{
  "_format": "hh-sol-artifact-1",
  "contractName": "BTCUtilsDelegate",
  "sourceName": "contracts/lib/bitcoin-spv/contracts/BTCUtilsDelegate.sol",
  "abi": [
    {
      "inputs": [
        {
          "internalType": "bytes",
          "name": "_a",
          "type": "bytes"
        },
        {
          "internalType": "bytes",
          "name": "_b",
          "type": "bytes"
        }
      ],
      "name": "_hash256MerkleStep",
      "outputs": [
        {
          "internalType": "bytes32",
          "name": "",
          "type": "bytes32"
        }
      ],
      "stateMutability": "pure",
      "type": "function"
    },
    {
      "inputs": [
        {
          "internalType": "bytes",
          "name": "_b",
          "type": "bytes"
        }
      ],
      "name": "bytesToUint",
      "outputs": [
        {
          "internalType": "uint256",
          "name": "",
          "type": "uint256"
        }
      ],
      "stateMutability": "pure",
      "type": "function"
    },
    {
      "inputs": [
        {
          "internalType": "uint256",
          "name": "_target",
          "type": "uint256"
        }
      ],
      "name": "calculateDifficulty",
      "outputs": [
        {
          "internalType": "uint256",
          "name": "",
          "type": "uint256"
        }
      ],
      "stateMutability": "pure",
      "type": "function"
    },
    {
      "inputs": [
        {
          "internalType": "bytes",
          "name": "_input",
          "type": "bytes"
        }
      ],
      "name": "determineInputLength",
      "outputs": [
        {
          "internalType": "uint256",
          "name": "",
          "type": "uint256"
        }
      ],
      "stateMutability": "pure",
      "type": "function"
    },
    {
      "inputs": [
        {
          "internalType": "bytes",
          "name": "_output",
          "type": "bytes"
        }
      ],
      "name": "determineOutputLength",
      "outputs": [
        {
          "internalType": "uint256",
          "name": "",
          "type": "uint256"
        }
      ],
      "stateMutability": "pure",
      "type": "function"
    },
    {
      "inputs": [
        {
          "internalType": "bytes",
          "name": "_flag",
          "type": "bytes"
        }
      ],
      "name": "determineVarIntDataLength",
      "outputs": [
        {
          "internalType": "uint8",
          "name": "",
          "type": "uint8"
        }
      ],
      "stateMutability": "pure",
      "type": "function"
    },
    {
      "inputs": [
        {
          "internalType": "bytes",
          "name": "_header",
          "type": "bytes"
        }
      ],
      "name": "extractDifficulty",
      "outputs": [
        {
          "internalType": "uint256",
          "name": "",
          "type": "uint256"
        }
      ],
      "stateMutability": "pure",
      "type": "function"
    },
    {
      "inputs": [
        {
          "internalType": "bytes",
          "name": "_output",
          "type": "bytes"
        }
      ],
      "name": "extractHash",
      "outputs": [
        {
          "internalType": "bytes",
          "name": "",
          "type": "bytes"
        }
      ],
      "stateMutability": "pure",
      "type": "function"
    },
    {
      "inputs": [
        {
          "internalType": "bytes",
          "name": "_vin",
          "type": "bytes"
        },
        {
          "internalType": "uint256",
          "name": "_index",
          "type": "uint256"
        }
      ],
      "name": "extractInputAtIndex",
      "outputs": [
        {
          "internalType": "bytes",
          "name": "",
          "type": "bytes"
        }
      ],
      "stateMutability": "pure",
      "type": "function"
    },
    {
      "inputs": [
        {
          "internalType": "bytes",
          "name": "_input",
          "type": "bytes"
        }
      ],
      "name": "extractInputTxIdLE",
      "outputs": [
        {
          "internalType": "bytes32",
          "name": "",
          "type": "bytes32"
        }
      ],
      "stateMutability": "pure",
      "type": "function"
    },
    {
      "inputs": [
        {
          "internalType": "bytes",
          "name": "_header",
          "type": "bytes"
        }
      ],
      "name": "extractMerkleRootLE",
      "outputs": [
        {
          "internalType": "bytes",
          "name": "",
          "type": "bytes"
        }
      ],
      "stateMutability": "pure",
      "type": "function"
    },
    {
      "inputs": [
        {
          "internalType": "bytes",
          "name": "_output",
          "type": "bytes"
        }
      ],
      "name": "extractOpReturnData",
      "outputs": [
        {
          "internalType": "bytes",
          "name": "",
          "type": "bytes"
        }
      ],
      "stateMutability": "pure",
      "type": "function"
    },
    {
      "inputs": [
        {
          "internalType": "bytes",
          "name": "_input",
          "type": "bytes"
        }
      ],
      "name": "extractOutpoint",
      "outputs": [
        {
          "internalType": "bytes",
          "name": "",
          "type": "bytes"
        }
      ],
      "stateMutability": "pure",
      "type": "function"
    },
    {
      "inputs": [
        {
          "internalType": "bytes",
          "name": "_vout",
          "type": "bytes"
        },
        {
          "internalType": "uint256",
          "name": "_index",
          "type": "uint256"
        }
      ],
      "name": "extractOutputAtIndex",
      "outputs": [
        {
          "internalType": "bytes",
          "name": "",
          "type": "bytes"
        }
      ],
      "stateMutability": "pure",
      "type": "function"
    },
    {
      "inputs": [
        {
          "internalType": "bytes",
          "name": "_header",
          "type": "bytes"
        }
      ],
      "name": "extractPrevBlockLE",
      "outputs": [
        {
          "internalType": "bytes",
          "name": "",
          "type": "bytes"
        }
      ],
      "stateMutability": "pure",
      "type": "function"
    },
    {
      "inputs": [
        {
          "internalType": "bytes",
          "name": "_input",
          "type": "bytes"
        }
      ],
      "name": "extractScriptSig",
      "outputs": [
        {
          "internalType": "bytes",
          "name": "",
          "type": "bytes"
        }
      ],
      "stateMutability": "pure",
      "type": "function"
    },
    {
      "inputs": [
        {
          "internalType": "bytes",
          "name": "_input",
          "type": "bytes"
        }
      ],
      "name": "extractScriptSigLen",
      "outputs": [
        {
          "internalType": "uint256",
          "name": "",
          "type": "uint256"
        },
        {
          "internalType": "uint256",
          "name": "",
          "type": "uint256"
        }
      ],
      "stateMutability": "pure",
      "type": "function"
    },
    {
      "inputs": [
        {
          "internalType": "bytes",
          "name": "_input",
          "type": "bytes"
        }
      ],
      "name": "extractSequenceLELegacy",
      "outputs": [
        {
          "internalType": "bytes",
          "name": "",
          "type": "bytes"
        }
      ],
      "stateMutability": "pure",
      "type": "function"
    },
    {
      "inputs": [
        {
          "internalType": "bytes",
          "name": "_input",
          "type": "bytes"
        }
      ],
      "name": "extractSequenceLEWitness",
      "outputs": [
        {
          "internalType": "bytes",
          "name": "",
          "type": "bytes"
        }
      ],
      "stateMutability": "pure",
      "type": "function"
    },
    {
      "inputs": [
        {
          "internalType": "bytes",
          "name": "_input",
          "type": "bytes"
        }
      ],
      "name": "extractSequenceLegacy",
      "outputs": [
        {
          "internalType": "uint32",
          "name": "",
          "type": "uint32"
        }
      ],
      "stateMutability": "pure",
      "type": "function"
    },
    {
      "inputs": [
        {
          "internalType": "bytes",
          "name": "_input",
          "type": "bytes"
        }
      ],
      "name": "extractSequenceWitness",
      "outputs": [
        {
          "internalType": "uint32",
          "name": "",
          "type": "uint32"
        }
      ],
      "stateMutability": "pure",
      "type": "function"
    },
    {
      "inputs": [
        {
          "internalType": "bytes",
          "name": "_header",
          "type": "bytes"
        }
      ],
      "name": "extractTarget",
      "outputs": [
        {
          "internalType": "uint256",
          "name": "",
          "type": "uint256"
        }
      ],
      "stateMutability": "pure",
      "type": "function"
    },
    {
      "inputs": [
        {
          "internalType": "bytes",
          "name": "_header",
          "type": "bytes"
        }
      ],
      "name": "extractTimestamp",
      "outputs": [
        {
          "internalType": "uint32",
          "name": "",
          "type": "uint32"
        }
      ],
      "stateMutability": "pure",
      "type": "function"
    },
    {
      "inputs": [
        {
          "internalType": "bytes",
          "name": "_header",
          "type": "bytes"
        }
      ],
      "name": "extractTimestampLE",
      "outputs": [
        {
          "internalType": "bytes",
          "name": "",
          "type": "bytes"
        }
      ],
      "stateMutability": "pure",
      "type": "function"
    },
    {
      "inputs": [
        {
          "internalType": "bytes",
          "name": "_input",
          "type": "bytes"
        }
      ],
      "name": "extractTxIndexLE",
      "outputs": [
        {
          "internalType": "bytes",
          "name": "",
          "type": "bytes"
        }
      ],
      "stateMutability": "pure",
      "type": "function"
    },
    {
      "inputs": [
        {
          "internalType": "bytes",
          "name": "_output",
          "type": "bytes"
        }
      ],
      "name": "extractValue",
      "outputs": [
        {
          "internalType": "uint64",
          "name": "",
          "type": "uint64"
        }
      ],
      "stateMutability": "pure",
      "type": "function"
    },
    {
      "inputs": [
        {
          "internalType": "bytes",
          "name": "_output",
          "type": "bytes"
        }
      ],
      "name": "extractValueLE",
      "outputs": [
        {
          "internalType": "bytes",
          "name": "",
          "type": "bytes"
        }
      ],
      "stateMutability": "pure",
      "type": "function"
    },
    {
      "inputs": [
        {
          "internalType": "bytes",
          "name": "_b",
          "type": "bytes"
        }
      ],
      "name": "hash160",
      "outputs": [
        {
          "internalType": "bytes",
          "name": "",
          "type": "bytes"
        }
      ],
      "stateMutability": "pure",
      "type": "function"
    },
    {
      "inputs": [
        {
          "internalType": "bytes",
          "name": "_b",
          "type": "bytes"
        }
      ],
      "name": "hash256",
      "outputs": [
        {
          "internalType": "bytes32",
          "name": "",
          "type": "bytes32"
        }
      ],
      "stateMutability": "pure",
      "type": "function"
    },
    {
      "inputs": [
        {
          "internalType": "bytes",
          "name": "_input",
          "type": "bytes"
        }
      ],
      "name": "isLegacyInput",
      "outputs": [
        {
          "internalType": "bool",
          "name": "",
          "type": "bool"
        }
      ],
      "stateMutability": "pure",
      "type": "function"
    },
    {
      "inputs": [
        {
          "internalType": "bytes",
          "name": "_b",
          "type": "bytes"
        },
        {
          "internalType": "uint256",
          "name": "_num",
          "type": "uint256"
        }
      ],
      "name": "lastBytes",
      "outputs": [
        {
          "internalType": "bytes",
          "name": "",
          "type": "bytes"
        }
      ],
      "stateMutability": "pure",
      "type": "function"
    },
    {
      "inputs": [
        {
          "internalType": "bytes",
          "name": "_b",
          "type": "bytes"
        }
      ],
      "name": "parseVarInt",
      "outputs": [
        {
          "internalType": "uint256",
          "name": "",
          "type": "uint256"
        },
        {
          "internalType": "uint256",
          "name": "",
          "type": "uint256"
        }
      ],
      "stateMutability": "pure",
      "type": "function"
    },
    {
      "inputs": [
        {
          "internalType": "uint256",
          "name": "_previousTarget",
          "type": "uint256"
        },
        {
          "internalType": "uint256",
          "name": "_firstTimestamp",
          "type": "uint256"
        },
        {
          "internalType": "uint256",
          "name": "_secondTimestamp",
          "type": "uint256"
        }
      ],
      "name": "retargetAlgorithm",
      "outputs": [
        {
          "internalType": "uint256",
          "name": "",
          "type": "uint256"
        }
      ],
      "stateMutability": "pure",
      "type": "function"
    },
    {
      "inputs": [
        {
          "internalType": "bytes",
          "name": "_b",
          "type": "bytes"
        }
      ],
      "name": "reverseEndianness",
      "outputs": [
        {
          "internalType": "bytes",
          "name": "",
          "type": "bytes"
        }
      ],
      "stateMutability": "pure",
      "type": "function"
    },
    {
      "inputs": [
        {
          "internalType": "bytes",
          "name": "_vin",
          "type": "bytes"
        }
      ],
      "name": "validateVin",
      "outputs": [
        {
          "internalType": "bool",
          "name": "",
          "type": "bool"
        }
      ],
      "stateMutability": "pure",
      "type": "function"
    },
    {
      "inputs": [
        {
          "internalType": "bytes",
          "name": "_vout",
          "type": "bytes"
        }
      ],
      "name": "validateVout",
      "outputs": [
        {
          "internalType": "bool",
          "name": "",
          "type": "bool"
        }
      ],
      "stateMutability": "pure",
      "type": "function"
    },
    {
      "inputs": [
        {
          "internalType": "bytes",
          "name": "_proof",
          "type": "bytes"
        },
        {
          "internalType": "uint256",
          "name": "_index",
          "type": "uint256"
        }
      ],
      "name": "verifyHash256Merkle",
      "outputs": [
        {
          "internalType": "bool",
          "name": "",
          "type": "bool"
        }
      ],
      "stateMutability": "pure",
      "type": "function"
    }
  ],
  "bytecode": "0x60808060405234601957612809908161001f823930815050f35b600080fdfe6080604052600436101561001257600080fd5b60003560e01c80620c81f41461026657806302d06d05146102615780630c2257d41461025c5780630ca25cc0146102575780631459866e14610252578063155718a81461024d57806320db3e0e1461024857806323f8623a14610243578063317e559a1461023e5780633318efcd1461023957806339efb09a146102345780633e39b4101461022f578063410433d51461022a578063427390c41461022557806348cf5c94146102205780635196ba031461021b578063797663401461021657806388dbbe34146102115780638bd3277a1461020c5780638eca67bf146102075780639ba32073146102025780639fd71484146101fd578063a3b62a8f146101f8578063a6a54a94146101f3578063b2591232146101ee578063b37d0f5d146101e9578063b59d0736146101e4578063b77f520c146101df578063b8fa7830146101da578063dc3607d4146101d5578063df84c6f6146101d0578063e31952c3146101cb578063e8f5b539146101c6578063ecc59124146101c1578063f42f17a9146101bc578063f9097235146101b75763ff013d82146101b257600080fd5b6110ab565b611097565b611086565b611078565b61103d565b610faf565b610e63565b610e45565b610dba565b610d96565b610d7d565b610d69565b610ccd565b610cb9565b610c2d565b610c1e565b610c0a565b610ba4565b610a15565b610964565b610941565b610932565b610851565b61083e565b610821565b6107fa565b6107e7565b610771565b6106d6565b610650565b6105c2565b610528565b610515565b610502565b61045e565b610443565b61041f565b7f4e487b7100000000000000000000000000000000000000000000000000000000600052604160045260246000fd5b90601f7fffffffffffffffffffffffffffffffffffffffffffffffffffffffffffffffe0910116810190811067ffffffffffffffff8211176102db57604052565b61026b565b67ffffffffffffffff81116102db57601f017fffffffffffffffffffffffffffffffffffffffffffffffffffffffffffffffe01660200190565b81601f8201121561036157803590610331826102e0565b9261033f604051948561029a565b8284526020838301011161036157816000926020809301838601378301015290565b600080fd5b60207ffffffffffffffffffffffffffffffffffffffffffffffffffffffffffffffffc820112610361576004359067ffffffffffffffff8211610361576103af9160040161031a565b90565b60005b8381106103c55750506000910152565b81810151838201526020016103b5565b7fffffffffffffffffffffffffffffffffffffffffffffffffffffffffffffffe0601f6040936020845261041881518092816020880152602088880191016103b2565b0116010190565b61043f61043361042e36610366565b6112ad565b604051918291826103d5565b0390f35b602061045661045136610366565b6114c7565b604051908152f35b61046736610366565b60258151106104a4576001604460209201207fbc36789e7a1e281436464229828f817d6612f7b477d66591ff96a9e064bcc98a6040519114158152f35b60646040517f08c379a000000000000000000000000000000000000000000000000000000000815260206004820152601360248201527f536c696365206f7574206f6620626f756e6473000000000000000000000000006044820152fd5b602061045661051036610366565b611576565b602061045661052336610366565b61162b565b61053136610366565b610546600461053f81611483565b1015612221565b61055e815161055760046025611491565b1115612286565b6040516004810191602901600882015b8084106105af5760048352601f84017fffffffffffffffffffffffffffffffffffffffffffffffffffffffffffffffe01660408190528061043f85826103d5565b909260208091855181520193019061056e565b6105cb36610366565b6105d9602061053f81611483565b6105ea815161055760206004611491565b60405160208101916024604083019101905b80841061063d5760208352601f84017fffffffffffffffffffffffffffffffffffffffffffffffffffffffffffffffe01660408190528061043f85826103d5565b90926020809185518152019301906105fc565b602061065b36610366565b6106688261053f81611483565b6106788151610557846000611491565b6040518281019183604083019101905b8084106106c55750507fffffffffffffffffffffffffffffffffffffffffffffffffffffffffffffffe0601f61045693858452011660405261278e565b815184529284019290840190610688565b60206106e136610366565b6106ef600461053f81611483565b610700815161055760046025611491565b604051906004820190602901600883015b808310610760578463ffffffff610757610451877fffffffffffffffffffffffffffffffffffffffffffffffffffffffffffffffe0601f89600484520116604052611921565b16604051908152f35b815183529184019190840190610711565b60407ffffffffffffffffffffffffffffffffffffffffffffffffffffffffffffffffc3601126103615760043567ffffffffffffffff8111610361576107bb90369060040161031a565b60243567ffffffffffffffff8111610361576020916107e161045692369060040161031a565b906116be565b60206104566107f536610366565b61172e565b602067ffffffffffffffff61075761045161081c61081736610366565b6122eb565b611921565b602061083461082f36610366565b61179a565b6040519015158152f35b602061083461084c36610366565b61186a565b6020600061087461086136610366565b83604051928284809451938492016103b2565b8101039060025afa1561092d57602060006108ac815160405190848201528381526108a060408261029a565b604051918280926116a7565b039060035afa1561092d5761043f6109016104336108cc60005160601b90565b604051928391602083017fffffffffffffffffffffffffffffffffffffffff0000000000000000000000006014921681520190565b037fffffffffffffffffffffffffffffffffffffffffffffffffffffffffffffffe0810183528261029a565b611722565b61043f61043361081c36610366565b61095261094d36610366565b6119fa565b60408051928352602083019190915290f35b60207ffffffffffffffffffffffffffffffffffffffffffffffffffffffffffffffffc3601126103615760043580156109c057602090604051907bffff0000000000000000000000000000000000000000000000000000048152f35b611af7565b60407ffffffffffffffffffffffffffffffffffffffffffffffffffffffffffffffffc820112610361576004359067ffffffffffffffff821161036157610a0e9160040161031a565b9060243590565b610a1e366109c5565b80610a28836119fa565b9091610a567fffffffffffffffffffffffffffffffffffffffffffffffffffffffffffffffff841415611b26565b81811015610b8b575b50821015610b2d57610a7090611475565b906000905b808210610ad35761043f6104338585610aa1610a9c610a9583855161123e565b83856126f2565b611f35565b91610ace7fffffffffffffffffffffffffffffffffffffffffffffffffffffffffffffffff841415611bb1565b6126f2565b9091610b2581610af3610a9c610aec600195895161123e565b83896126f2565b90610b207fffffffffffffffffffffffffffffffffffffffffffffffffffffffffffffffff831415611bb1565b611491565b920190610a75565b60646040517f08c379a000000000000000000000000000000000000000000000000000000000815260206004820152601160248201527f566f75742072656164206f76657272756e0000000000000000000000000000006044820152fd5b908093508101809111610b9f579138610a5f565b611161565b610bad36610366565b610bb6816120a2565b9190610be47fffffffffffffffffffffffffffffffffffffffffffffffffffffffffffffffff821415611c16565b806001019283600111610b9f576001910101809211610b9f5761043f9161043391612361565b6020610834610c18366109c5565b90611c7b565b61043f61043361081736610366565b610c3636610366565b610c44600461053f81611483565b610c55815161055760046020611491565b6040516004810191602401600882015b808410610ca65760048352601f84017fffffffffffffffffffffffffffffffffffffffffffffffffffffffffffffffe01660408190528061043f85826103d5565b9092602080918551815201930190610c65565b61043f610433610cc836610366565b611dc2565b60607ffffffffffffffffffffffffffffffffffffffffffffffffffffffffffffffffc3601126103615760043560243590604435918203918211610b9f576212750091610d329162049d408210610d5e575b6249d4008211610d53575b60101c6114b4565b048060101b90808204620100001490151715610b9f57604051908152602090f35b6249d4009150610d2a565b62049d409150610d1f565b61043f610433610d7836610366565b6123fe565b602063ffffffff61075761045161081c610d7836610366565b610d9f366109c5565b90805191808303928311610b9f5761043f92610433926126f2565b610dc336610366565b610dd1602461053f81611483565b610de2815161055760246000611491565b60405160048082019201602882015b808410610e325760248352601f84017fffffffffffffffffffffffffffffffffffffffffffffffffffffffffffffffe01660408190528061043f85826103d5565b9092602080918551815201930190610df1565b6020610e58610e5336610366565b611e99565b60ff60405191168152f35b610e6c366109c5565b610e75826119fa565b610ea17fffffffffffffffffffffffffffffffffffffffffffffffffffffffffffffffff831415611b26565b821015610f5157610eb190611475565b906000905b808210610f035761043f6104338585610ed6610523610a9583855161123e565b91610ace7fffffffffffffffffffffffffffffffffffffffffffffffffffffffffffffffff841415611c16565b9091610f4981610f1c610523610aec600195895161123e565b90610b207fffffffffffffffffffffffffffffffffffffffffffffffffffffffffffffffff831415611c16565b920190610eb6565b60646040517f08c379a000000000000000000000000000000000000000000000000000000000815260206004820152601060248201527f56696e2072656164206f76657272756e000000000000000000000000000000006044820152fd5b610fb836610366565b610fc6602061053f81611483565b610fd7815161055760206024611491565b60405160208101916044604083019101905b80841061102a5760208352601f84017fffffffffffffffffffffffffffffffffffffffffffffffffffffffffffffffe01660408190528061043f85826103d5565b9092602080918551815201930190610fe9565b61104961051036610366565b80156109c057602090604051907bffff0000000000000000000000000000000000000000000000000000048152f35b6020610456610a9c36610366565b61095261109236610366565b6120a2565b61043f6104336110a636610366565b612111565b602063ffffffff61075761045161081c6110a636610366565b8051600810156110d45760280190565b7f4e487b7100000000000000000000000000000000000000000000000000000000600052603260045260246000fd5b8051600910156110d45760290190565b8051600b10156110d457602b0190565b8051600a10156110d457602a0190565b8051604b10156110d457606b0190565b8051156110d45760200190565b9081518110156110d4570160200190565b7f4e487b7100000000000000000000000000000000000000000000000000000000600052601160045260246000fd5b60ff60099116019060ff8211610b9f57565b604051906111b160208361029a565b60008252565b907fffffffffffffffffffffffffffffffffffffffffffffffffffffffffffffffff8201918211610b9f57565b907ffffffffffffffffffffffffffffffffffffffffffffffffffffffffffffffffe8201918211610b9f57565b907fffffffffffffffffffffffffffffffffffffffffffffffffffffffffffffffe08201918211610b9f57565b91908203918211610b9f57565b60ff7ffffffffffffffffffffffffffffffffffffffffffffffffffffffffffffffffe9116019060ff8211610b9f57565b60ff7ffffffffffffffffffffffffffffffffffffffffffffffffffffffffffffffffd9116019060ff8211610b9f57565b6112e86112e26112bc836110c4565b517fff000000000000000000000000000000000000000000000000000000000000001690565b60f81c90565b6112f181611190565b60ff83519116036113585760ff61130d6112e26112bc85611103565b1661137957600260ff8216106113585761134161133561133b6113356112e26112bc87611123565b60ff1690565b9261124b565b8114801590611362575b611358576103af91612563565b50506103af6111a2565b506020811415801561134b5750601481141561134b565b50611383816121dc565b7fe1683aec1a10d43657f3f2c82e683d8e19e8a3f320ce9d3bf22c6ca6ab4cbce6810361141a5750601460ff6113be6112e26112bc85611113565b16148015906113de575b6113d5576103af906124ec565b506103af6111a2565b507f3b50b2715f5a28d2a7eeb517f17ec797e8536bd425bf31fc4f6bf7ce1e34b77d61141361140d83516111e4565b836121ef565b14156113c8565b7fa0916ee0b243ee20fb4ce56170744d86b54d7ae03a418a7a12156f40dedcf7d71461144957506103af6111a2565b608760ff6114666112e26112bc61146086516111b7565b86611150565b16036113d5576103af90612475565b6001019081600111610b9f57565b90601f8201809211610b9f57565b91908201809211610b9f57565b908160051b9180830460201490151715610b9f57565b81810292918115918404141715610b9f57565b60009190825b8151841015611571576114e08483611150565b5160f81c8251600186018611610b9f577fffffffffffffffffffffffffffffffffffffffffffffffffffffffffffffffff86820301908111610b9f577f1fffffffffffffffffffffffffffffffffffffffffffffffffffffffffffffff81168103610b9f5760031b9160ff8311610b9f5761156361156992600180951b906114b4565b90611491565b9301926114cd565b925050565b611584600361053f81611483565b611595815161055760036048611491565b6040519060038201604b8201600684015b8083106116185750506115fa6104516115f060ff947fffffffffffffffffffffffffffffffffffffffffffffffffffffffffffffffe0601f6116009660038a520116604052611133565b5160f81c94611921565b9261127c565b1690601f8211610b9f576103af916101000a906114b4565b90916020809184518152019201906115a6565b611634906120a2565b7fffffffffffffffffffffffffffffffffffffffffffffffffffffffffffffffff821461168157816025019182602511610b9f570160258101809211610b9f57602901809111610b9f5790565b50507fffffffffffffffffffffffffffffffffffffffffffffffffffffffffffffffff90565b906116ba602092828151948592016103b2565b0190565b906107f56103af92602060405193826116e086945180928580880191016103b2565b83016116f4825180938580850191016103b2565b0101037fffffffffffffffffffffffffffffffffffffffffffffffffffffffffffffffe0810183528261029a565b6040513d6000823e3d90fd5b600061174960209283604051928284809451938492016103b2565b8101039060025afa1561092d5760206000611787815160405184810191825284815261177660408261029a565b6040519283928392519283916103b2565b8101039060025afa1561092d5760005190565b6117a3816119fa565b919082158015611841575b6118395760010180600111610b9f57916000905b8082106117d0575050511490565b909282518082101561182f57610a9c6117ec836117f39361123e565b83866126f2565b907fffffffffffffffffffffffffffffffffffffffffffffffffffffffffffffffff821461182f5760019161182791611491565b9301906117c2565b5050505050600090565b505050600090565b507fffffffffffffffffffffffffffffffffffffffffffffffffffffffffffffffff81146117ae565b611873816119fa565b9190821580156118f8575b6118395760010180600111610b9f57916000905b8082106118a0575050511490565b909282518082101561182f576105236117ec836118bc9361123e565b907fffffffffffffffffffffffffffffffffffffffffffffffffffffffffffffffff821461182f576001916118f091611491565b930190611892565b507fffffffffffffffffffffffffffffffffffffffffffffffffffffffffffffffff811461187e565b9081517fffffffffffffffffffffffffffffffffffffffffffffffffffffffffffffffe0611967611951836102e0565b9261195f604051948561029a565b8084526102e0565b0136602083013760005b83518110156119f5577fff000000000000000000000000000000000000000000000000000000000000006119a58286611150565b5116908451818103908111610b9f577fffffffffffffffffffffffffffffffffffffffffffffffffffffffffffffffff8101908111610b9f576119ee60019360001a9185611150565b5301611971565b509150565b90611a0482611e99565b60ff8116928315611adf5780518460010160ff8111610b9f5760ff1611611ab457611a328461053f81611483565b611a428151610557866001611491565b601f6040519216906001821560051b80848601019387850193010101905b808310611aa1575050817fffffffffffffffffffffffffffffffffffffffffffffffffffffffffffffffe0601f61045193876103af96520116604052611921565b9091602080918451815201920190611a60565b505090507fffffffffffffffffffffffffffffffffffffffffffffffffffffffffffffffff90600090565b9050611aec919250611143565b5160f81c9060009190565b7f4e487b7100000000000000000000000000000000000000000000000000000000600052601260045260246000fd5b15611b2d57565b60846040517f08c379a000000000000000000000000000000000000000000000000000000000815260206004820152602260248201527f52656164206f76657272756e20647572696e6720566172496e7420706172736960448201527f6e670000000000000000000000000000000000000000000000000000000000006064820152fd5b15611bb857565b60646040517f08c379a000000000000000000000000000000000000000000000000000000000815260206004820152601a60248201527f42616420566172496e7420696e207363726970745075626b65790000000000006044820152fd5b15611c1d57565b60646040517f08c379a000000000000000000000000000000000000000000000000000000000815260206004820152601760248201527f42616420566172496e7420696e207363726970745369670000000000000000006044820152fd5b9091611c888251601f1690565b611dba5781519260208414611db15760408414611da857611cb8611cb2611cbd9295939593611211565b84612600565b61278e565b91611cca611cb882612679565b936001945b611ce2611cdd845160051c90565b6111b7565b861015611d9f57611d6760019182611cfa8760011690565b03611d7057611d2f611d6091611d5b611d1b611d158c61149e565b89612600565b916040519384916020830160209181520190565b037fffffffffffffffffffffffffffffffffffffffffffffffffffffffffffffffe0810184528361029a565b6116be565b9460011c90565b95019492611ccf565b610901611d8d611d60926040519283916020830160209181520190565b6107e1611d998a61149e565b87612600565b92509350501490565b50915050600090565b50915050600190565b915050600090565b90600a8251106104a4577fb31d742db54d6961c6b346af2c9c4c495eb8aff2ebf6b3699e052d1cef5cf50b6001602984012003611e8257611e036001612221565b611e1482516105576001600a611491565b604051600181019290600b8201600282015b808610611e6f575050807fffffffffffffffffffffffffffffffffffffffffffffffffffffffffffffffe0601f6103af95966001611e69955201166040526114c7565b90612563565b9094602080918751815201950190611e26565b9050604051611e9260208261029a565b6000815290565b60ff611ea482611143565b5160f81c14611f2f5760fe60ff7fff00000000000000000000000000000000000000000000000000000000000000611edb84611143565b511660f81c1614611f295760ff7fff00000000000000000000000000000000000000000000000000000000000000611f1460fd93611143565b511660f81c1614611f2457600090565b600290565b50600490565b50600890565b908151916009831061207c577ffffffffffffffffffffffffffffffffffffffffffffffffffffffffffffffff88301838111610b9f57611f788161053f81611483565b611f888251610557836008611491565b80611feb5750509050611fa760405160008152602081016040526119fa565b907fffffffffffffffffffffffffffffffffffffffffffffffffffffffffffffffff811461168157806009019182600911610b9f576009910101809111610b9f5790565b604051916008601f8316801560051b907ffffffffffffffffffffffffffffffffffffffffffffffffffffffffffffffff882828801019889010193010101905b808610612069575050601f611fa793947fffffffffffffffffffffffffffffffffffffffffffffffffffffffffffffffe092845201166040526119fa565b909460208091875181520195019061202b565b507fffffffffffffffffffffffffffffffffffffffffffffffffffffffffffffffff9150565b805190602582106120e8577fffffffffffffffffffffffffffffffffffffffffffffffffffffffffffffffdc8201918211610b9f576120e49161094d91612361565b9091565b50507fffffffffffffffffffffffffffffffffffffffffffffffffffffffffffffffff90600090565b61211a816120a2565b6121467fffffffffffffffffffffffffffffffffffffffffffffffffffffffffffffffff831415611c16565b816025019182602511610b9f57019060258201809111610b9f5761217f90612172600461053f81611483565b6105576004855192611491565b60405191600483019101602901600883015b8083106121c957505060048252601f017fffffffffffffffffffffffffffffffffffffffffffffffffffffffffffffffe01660405290565b9091602080918451815201920190612191565b600b8151106104a4576028600391012090565b60028201808311610b9f578281119081612215575b50156104a457600291016020012090565b90508151101538612204565b1561222857565b60646040517f08c379a000000000000000000000000000000000000000000000000000000000815260206004820152600e60248201527f736c6963655f6f766572666c6f770000000000000000000000000000000000006044820152fd5b1561228d57565b60646040517f08c379a000000000000000000000000000000000000000000000000000000000815260206004820152601160248201527f736c6963655f6f75744f66426f756e64730000000000000000000000000000006044820152fd5b6122f56001612221565b612306815161055760086000611491565b6040519060088083019101601083015b80831061234e57505060088252601f017fffffffffffffffffffffffffffffffffffffffffffffffffffffffffffffffe01660405290565b9091602080918451815201920190612316565b61236e8261053f81611483565b61237e8151610557846024611491565b81612396575050604051600081526020810160405290565b60405191601f8116916024831560051b80858701019484860193010101905b8084106123eb5750508252601f017fffffffffffffffffffffffffffffffffffffffffffffffffffffffffffffffe01660405290565b90926020809185518152019301906123b5565b6124086001612221565b612419815161055760046044611491565b604051906004820190604801600883015b80831061246257505060048252601f017fffffffffffffffffffffffffffffffffffffffffffffffffffffffffffffffe01660405290565b909160208091845181520192019061242a565b61247f6001612221565b61249081516105576014600b611491565b604051906014820190601f01602883015b8083106124d957505060148252601f017fffffffffffffffffffffffffffffffffffffffffffffffffffffffffffffffe01660405290565b90916020809184518152019201906124a1565b6124f66001612221565b61250781516105576014600c611491565b604051906014820190602001602883015b80831061255057505060148252601f017fffffffffffffffffffffffffffffffffffffffffffffffffffffffffffffffe01660405290565b9091602080918451815201920190612518565b6125708261053f81611483565b612580815161055784600b611491565b81612598575050604051600081526020810160405290565b60405191601f811691600b831560051b80858701019484860193010101905b8084106125ed5750508252601f017fffffffffffffffffffffffffffffffffffffffffffffffffffffffffffffffe01660405290565b90926020809185518152019301906125b7565b9061260b6001612221565b61261b8251610557602084611491565b6040519160208084019260408501920101905b80831061266657505060208252601f017fffffffffffffffffffffffffffffffffffffffffffffffffffffffffffffffe01660405290565b909160208091845181520192019061262e565b6126836001612221565b612694815161055760206000611491565b6040519060208201906020604084019101905b8083106126df57505060208252601f017fffffffffffffffffffffffffffffffffffffffffffffffffffffffffffffffe01660405290565b90916020809184518152019201906126a7565b916127008161053f81611483565b61270f83516105578385611491565b8061272857505050604051600081526020810160405290565b60405192601f821692831560051b80858701019484860193010101905b80841061277b5750508252601f017fffffffffffffffffffffffffffffffffffffffffffffffffffffffffffffffe01660405290565b9092602080918551815201930190612745565b602081511061279e576020015190565b60646040517f08c379a000000000000000000000000000000000000000000000000000000000815260206004820152601560248201527f746f427974657333325f6f75744f66426f756e647300000000000000000000006044820152fdfea164736f6c634300081c000a",
  "linkReferences": {},
  "deployedLinkReferences": {}
}