{
  "_format": "hh-sol-artifact-1",
  "contractName": "UUPSVoid",
  "sourceName": "contracts/UUPSVoid.sol",
  "abi": [
    {
      "inputs": [],
      "stateMutability": "nonpayable",
      "type": "constructor"
    },
    {
      "inputs": [
        {
          "internalType": "address",
          "name": "target",
          "type": "address"
        }
      ],
      "name": "AddressEmptyCode",
      "type": "error"
    },
    {
      "inputs": [
        {
          "internalType": "address",
          "name": "implementation",
          "type": "address"
        }
      ],
      "name": "ERC1967InvalidImplementation",
      "type": "error"
    },
    {
      "inputs": [],
      "name": "ERC1967NonPayable",
      "type": "error"
    },
    {
      "inputs": [],
      "name": "FailedCall",
      "type": "error"
    },
    {
      "inputs": [],
      "name": "InvalidInitialization",
      "type": "error"
    },
    {
      "inputs": [],
      "name": "NotInitializing",
      "type": "error"
    },
    {
      "inputs": [
        {
          "internalType": "address",
          "name": "owner",
          "type": "address"
        }
      ],
      "name": "OwnableInvalidOwner",
      "type": "error"
    },
    {
      "inputs": [
        {
          "internalType": "address",
          "name": "account",
          "type": "address"
        }
      ],
      "name": "OwnableUnauthorizedAccount",
      "type": "error"
    },
    {
      "inputs": [],
      "name": "UUPSUnauthorizedCallContext",
      "type": "error"
    },
    {
      "inputs": [
        {
          "internalType": "bytes32",
          "name": "slot",
          "type": "bytes32"
        }
      ],
      "name": "UUPSUnsupportedProxiableUUID",
      "type": "error"
    },
    {
      "anonymous": false,
      "inputs": [
        {
          "indexed": false,
          "internalType": "uint64",
          "name": "version",
          "type": "uint64"
        }
      ],
      "name": "Initialized",
      "type": "event"
    },
    {
      "anonymous": false,
      "inputs": [
        {
          "indexed": true,
          "internalType": "address",
          "name": "previousOwner",
          "type": "address"
        },
        {
          "indexed": true,
          "internalType": "address",
          "name": "newOwner",
          "type": "address"
        }
      ],
      "name": "OwnershipTransferred",
      "type": "event"
    },
    {
      "anonymous": false,
      "inputs": [
        {
          "indexed": true,
          "internalType": "address",
          "name": "implementation",
          "type": "address"
        }
      ],
      "name": "Upgraded",
      "type": "event"
    },
    {
      "inputs": [],
      "name": "UPGRADE_INTERFACE_VERSION",
      "outputs": [
        {
          "internalType": "string",
          "name": "",
          "type": "string"
        }
      ],
      "stateMutability": "view",
      "type": "function"
    },
    {
      "inputs": [
        {
          "internalType": "address",
          "name": "initialOwner",
          "type": "address"
        }
      ],
      "name": "initialize",
      "outputs": [],
      "stateMutability": "nonpayable",
      "type": "function"
    },
    {
      "inputs": [],
      "name": "owner",
      "outputs": [
        {
          "internalType": "address",
          "name": "",
          "type": "address"
        }
      ],
      "stateMutability": "view",
      "type": "function"
    },
    {
      "inputs": [],
      "name": "proxiableUUID",
      "outputs": [
        {
          "internalType": "bytes32",
          "name": "",
          "type": "bytes32"
        }
      ],
      "stateMutability": "view",
      "type": "function"
    },
    {
      "inputs": [],
      "name": "renounceOwnership",
      "outputs": [],
      "stateMutability": "nonpayable",
      "type": "function"
    },
    {
      "inputs": [
        {
          "internalType": "address",
          "name": "newOwner",
          "type": "address"
        }
      ],
      "name": "transferOwnership",
      "outputs": [],
      "stateMutability": "nonpayable",
      "type": "function"
    },
    {
      "inputs": [
        {
          "internalType": "address",
          "name": "newImplementation",
          "type": "address"
        },
        {
          "internalType": "bytes",
          "name": "data",
          "type": "bytes"
        }
      ],
      "name": "upgradeToAndCall",
      "outputs": [],
      "stateMutability": "payable",
      "type": "function"
    }
  ],
  "bytecode": "0x60a080604052346100a55730608052301561008f5760008054306001600160a01b0319821681178355916001600160a01b0390911690600080516020610be58339815191529080a3600080546001600160a01b0319811682556001600160a01b0316600080516020610be58339815191528280a3610b3a90816100ab823960805181818161051f01526106410152f35b631e4fbdf760e01b600052600060045260246000fd5b600080fdfe6080604052600436101561001257600080fd5b60003560e01c80634f1ef2861461059957806352d1902d146104d9578063715018a61461043d5780638da5cb5b146103eb578063ad3cb1cc1461031b578063c4d66de8146101035763f2fde38b1461006957600080fd5b346100fe5760207ffffffffffffffffffffffffffffffffffffffffffffffffffffffffffffffffc3601126100fe576100a0610908565b6100a86109d5565b73ffffffffffffffffffffffffffffffffffffffff8116156100cf576100cd90610a24565b005b7f1e4fbdf700000000000000000000000000000000000000000000000000000000600052600060045260246000fd5b600080fd5b346100fe5760207ffffffffffffffffffffffffffffffffffffffffffffffffffffffffffffffffc3601126100fe5761013a610908565b7ff0c57e16840df040f15088dc2f81fe391c3923bec73e23a9662efc9c229c6a005460ff8160401c16159167ffffffffffffffff821680159081610313575b6001149081610309575b159081610300575b506102d657818360017fffffffffffffffffffffffffffffffffffffffffffffffff00000000000000006101e89516177ff0c57e16840df040f15088dc2f81fe391c3923bec73e23a9662efc9c229c6a0055610281575b50610a24565b6101ee57005b7fffffffffffffffffffffffffffffffffffffffffffffff00ffffffffffffffff7ff0c57e16840df040f15088dc2f81fe391c3923bec73e23a9662efc9c229c6a0054167ff0c57e16840df040f15088dc2f81fe391c3923bec73e23a9662efc9c229c6a00557fc7f505b2f371ae2175ee4913f4499e1f2633a7b5936321eed1cdaeb6115181d2602060405160018152a1005b7fffffffffffffffffffffffffffffffffffffffffffffff0000000000000000001668010000000000000001177ff0c57e16840df040f15088dc2f81fe391c3923bec73e23a9662efc9c229c6a0055836101e2565b7ff92ee8a90000000000000000000000000000000000000000000000000000000060005260046000fd5b9050158461018b565b303b159150610183565b849150610179565b346100fe5760007ffffffffffffffffffffffffffffffffffffffffffffffffffffffffffffffffc3601126100fe576040805190610359818361092b565b600582527f352e302e300000000000000000000000000000000000000000000000000000006020830152805180926020825280519081602084015260005b8281106103d45750506000828201840152601f017fffffffffffffffffffffffffffffffffffffffffffffffffffffffffffffffe0168101030190f35b602082820181015187830187015286945001610397565b346100fe5760007ffffffffffffffffffffffffffffffffffffffffffffffffffffffffffffffffc3601126100fe57602073ffffffffffffffffffffffffffffffffffffffff60005416604051908152f35b346100fe5760007ffffffffffffffffffffffffffffffffffffffffffffffffffffffffffffffffc3601126100fe576104746109d5565b600073ffffffffffffffffffffffffffffffffffffffff81547fffffffffffffffffffffffff000000000000000000000000000000000000000081168355167f8be0079c531659141344cd1fd0a4f28419497f9722a3daafe3b4186f6b6457e08280a3005b346100fe5760007ffffffffffffffffffffffffffffffffffffffffffffffffffffffffffffffffc3601126100fe5773ffffffffffffffffffffffffffffffffffffffff7f000000000000000000000000000000000000000000000000000000000000000016300361056f5760206040517f360894a13ba1a3210667c828492db98dca3e2076cc3735a920a3ca505d382bbc8152f35b7fe07c8dba0000000000000000000000000000000000000000000000000000000060005260046000fd5b60407ffffffffffffffffffffffffffffffffffffffffffffffffffffffffffffffffc3601126100fe576105cb610908565b6024359067ffffffffffffffff82116100fe57366023830112156100fe578160040135906105f88261099b565b91610606604051938461092b565b808352602083019336602483830101116100fe578160009260246020930187378401015273ffffffffffffffffffffffffffffffffffffffff7f0000000000000000000000000000000000000000000000000000000000000000168030149081156108c6575b5061056f576106796109d5565b73ffffffffffffffffffffffffffffffffffffffff8116926040517f52d1902d000000000000000000000000000000000000000000000000000000008152602081600481885afa60009181610892575b506106fc57847f4c9c8ce30000000000000000000000000000000000000000000000000000000060005260045260246000fd5b807f360894a13ba1a3210667c828492db98dca3e2076cc3735a920a3ca505d382bbc8692036108655750823b1561083857807fffffffffffffffffffffffff00000000000000000000000000000000000000007f360894a13ba1a3210667c828492db98dca3e2076cc3735a920a3ca505d382bbc5416177f360894a13ba1a3210667c828492db98dca3e2076cc3735a920a3ca505d382bbc557fbc7cd75a20ee27fd9adebab32041f755214dbc6bffa90cc0225b39da2e5c2d3b600080a282511561080457600080916100cd945190845af43d156107fc573d916107df8361099b565b926107ed604051948561092b565b83523d6000602085013e610a90565b606091610a90565b5050503461080e57005b7fb398979f0000000000000000000000000000000000000000000000000000000060005260046000fd5b7f4c9c8ce30000000000000000000000000000000000000000000000000000000060005260045260246000fd5b7faa1d49a40000000000000000000000000000000000000000000000000000000060005260045260246000fd5b9091506020813d6020116108be575b816108ae6020938361092b565b810103126100fe575190866106c9565b3d91506108a1565b905073ffffffffffffffffffffffffffffffffffffffff7f360894a13ba1a3210667c828492db98dca3e2076cc3735a920a3ca505d382bbc541614158461066c565b6004359073ffffffffffffffffffffffffffffffffffffffff821682036100fe57565b90601f7fffffffffffffffffffffffffffffffffffffffffffffffffffffffffffffffe0910116810190811067ffffffffffffffff82111761096c57604052565b7f4e487b7100000000000000000000000000000000000000000000000000000000600052604160045260246000fd5b67ffffffffffffffff811161096c57601f017fffffffffffffffffffffffffffffffffffffffffffffffffffffffffffffffe01660200190565b73ffffffffffffffffffffffffffffffffffffffff6000541633036109f657565b7f118cdaa7000000000000000000000000000000000000000000000000000000006000523360045260246000fd5b73ffffffffffffffffffffffffffffffffffffffff80600054921691827fffffffffffffffffffffffff0000000000000000000000000000000000000000821617600055167f8be0079c531659141344cd1fd0a4f28419497f9722a3daafe3b4186f6b6457e0600080a3565b90610acf5750805115610aa557805190602001fd5b7fd6bda2750000000000000000000000000000000000000000000000000000000060005260046000fd5b81511580610b24575b610ae0575090565b73ffffffffffffffffffffffffffffffffffffffff907f9996b315000000000000000000000000000000000000000000000000000000006000521660045260246000fd5b50803b15610ad856fea164736f6c634300081c000a8be0079c531659141344cd1fd0a4f28419497f9722a3daafe3b4186f6b6457e0",
  "linkReferences": {},
  "deployedLinkReferences": {}
}