{
  "_format": "hh-sol-artifact-1",
  "contractName": "Vault",
  "sourceName": "contracts/Vault.sol",
  "abi": [
    {
      "inputs": [
        {
          "internalType": "uint48",
          "name": "delay",
          "type": "uint48"
        },
        {
          "internalType": "address",
          "name": "admin",
          "type": "address"
        },
        {
          "internalType": "address",
          "name": "collector",
          "type": "address"
        }
      ],
      "stateMutability": "nonpayable",
      "type": "constructor"
    },
    {
      "inputs": [],
      "name": "AccessControlBadConfirmation",
      "type": "error"
    },
    {
      "inputs": [
        {
          "internalType": "uint48",
          "name": "schedule",
          "type": "uint48"
        }
      ],
      "name": "AccessControlEnforcedDefaultAdminDelay",
      "type": "error"
    },
    {
      "inputs": [],
      "name": "AccessControlEnforcedDefaultAdminRules",
      "type": "error"
    },
    {
      "inputs": [
        {
          "internalType": "address",
          "name": "defaultAdmin",
          "type": "address"
        }
      ],
      "name": "AccessControlInvalidDefaultAdmin",
      "type": "error"
    },
    {
      "inputs": [
        {
          "internalType": "address",
          "name": "account",
          "type": "address"
        },
        {
          "internalType": "bytes32",
          "name": "neededRole",
          "type": "bytes32"
        }
      ],
      "name": "AccessControlUnauthorizedAccount",
      "type": "error"
    },
    {
      "inputs": [
        {
          "internalType": "uint8",
          "name": "bits",
          "type": "uint8"
        },
        {
          "internalType": "uint256",
          "name": "value",
          "type": "uint256"
        }
      ],
      "name": "SafeCastOverflowedUintDowncast",
      "type": "error"
    },
    {
      "anonymous": false,
      "inputs": [],
      "name": "DefaultAdminDelayChangeCanceled",
      "type": "event"
    },
    {
      "anonymous": false,
      "inputs": [
        {
          "indexed": false,
          "internalType": "uint48",
          "name": "newDelay",
          "type": "uint48"
        },
        {
          "indexed": false,
          "internalType": "uint48",
          "name": "effectSchedule",
          "type": "uint48"
        }
      ],
      "name": "DefaultAdminDelayChangeScheduled",
      "type": "event"
    },
    {
      "anonymous": false,
      "inputs": [],
      "name": "DefaultAdminTransferCanceled",
      "type": "event"
    },
    {
      "anonymous": false,
      "inputs": [
        {
          "indexed": true,
          "internalType": "address",
          "name": "newAdmin",
          "type": "address"
        },
        {
          "indexed": false,
          "internalType": "uint48",
          "name": "acceptSchedule",
          "type": "uint48"
        }
      ],
      "name": "DefaultAdminTransferScheduled",
      "type": "event"
    },
    {
      "anonymous": false,
      "inputs": [
        {
          "indexed": true,
          "internalType": "bytes32",
          "name": "role",
          "type": "bytes32"
        },
        {
          "indexed": true,
          "internalType": "bytes32",
          "name": "previousAdminRole",
          "type": "bytes32"
        },
        {
          "indexed": true,
          "internalType": "bytes32",
          "name": "newAdminRole",
          "type": "bytes32"
        }
      ],
      "name": "RoleAdminChanged",
      "type": "event"
    },
    {
      "anonymous": false,
      "inputs": [
        {
          "indexed": true,
          "internalType": "bytes32",
          "name": "role",
          "type": "bytes32"
        },
        {
          "indexed": true,
          "internalType": "address",
          "name": "account",
          "type": "address"
        },
        {
          "indexed": true,
          "internalType": "address",
          "name": "sender",
          "type": "address"
        }
      ],
      "name": "RoleGranted",
      "type": "event"
    },
    {
      "anonymous": false,
      "inputs": [
        {
          "indexed": true,
          "internalType": "bytes32",
          "name": "role",
          "type": "bytes32"
        },
        {
          "indexed": true,
          "internalType": "address",
          "name": "account",
          "type": "address"
        },
        {
          "indexed": true,
          "internalType": "address",
          "name": "sender",
          "type": "address"
        }
      ],
      "name": "RoleRevoked",
      "type": "event"
    },
    {
      "inputs": [],
      "name": "DEFAULT_ADMIN_ROLE",
      "outputs": [
        {
          "internalType": "bytes32",
          "name": "",
          "type": "bytes32"
        }
      ],
      "stateMutability": "view",
      "type": "function"
    },
    {
      "inputs": [],
      "name": "ROLE_COLLECTOR",
      "outputs": [
        {
          "internalType": "bytes32",
          "name": "",
          "type": "bytes32"
        }
      ],
      "stateMutability": "view",
      "type": "function"
    },
    {
      "inputs": [],
      "name": "acceptDefaultAdminTransfer",
      "outputs": [],
      "stateMutability": "nonpayable",
      "type": "function"
    },
    {
      "inputs": [
        {
          "internalType": "address",
          "name": "newAdmin",
          "type": "address"
        }
      ],
      "name": "beginDefaultAdminTransfer",
      "outputs": [],
      "stateMutability": "nonpayable",
      "type": "function"
    },
    {
      "inputs": [],
      "name": "cancelDefaultAdminTransfer",
      "outputs": [],
      "stateMutability": "nonpayable",
      "type": "function"
    },
    {
      "inputs": [
        {
          "internalType": "uint48",
          "name": "newDelay",
          "type": "uint48"
        }
      ],
      "name": "changeDefaultAdminDelay",
      "outputs": [],
      "stateMutability": "nonpayable",
      "type": "function"
    },
    {
      "inputs": [
        {
          "internalType": "uint256",
          "name": "eip",
          "type": "uint256"
        },
        {
          "internalType": "address",
          "name": "token",
          "type": "address"
        },
        {
          "internalType": "uint256",
          "name": "id",
          "type": "uint256"
        },
        {
          "internalType": "address",
          "name": "recipient",
          "type": "address"
        },
        {
          "internalType": "uint256",
          "name": "amount",
          "type": "uint256"
        }
      ],
      "name": "collect",
      "outputs": [],
      "stateMutability": "nonpayable",
      "type": "function"
    },
    {
      "inputs": [],
      "name": "defaultAdmin",
      "outputs": [
        {
          "internalType": "address",
          "name": "",
          "type": "address"
        }
      ],
      "stateMutability": "view",
      "type": "function"
    },
    {
      "inputs": [],
      "name": "defaultAdminDelay",
      "outputs": [
        {
          "internalType": "uint48",
          "name": "",
          "type": "uint48"
        }
      ],
      "stateMutability": "view",
      "type": "function"
    },
    {
      "inputs": [],
      "name": "defaultAdminDelayIncreaseWait",
      "outputs": [
        {
          "internalType": "uint48",
          "name": "",
          "type": "uint48"
        }
      ],
      "stateMutability": "view",
      "type": "function"
    },
    {
      "inputs": [
        {
          "internalType": "bytes32",
          "name": "role",
          "type": "bytes32"
        }
      ],
      "name": "getRoleAdmin",
      "outputs": [
        {
          "internalType": "bytes32",
          "name": "",
          "type": "bytes32"
        }
      ],
      "stateMutability": "view",
      "type": "function"
    },
    {
      "inputs": [
        {
          "internalType": "bytes32",
          "name": "role",
          "type": "bytes32"
        },
        {
          "internalType": "address",
          "name": "account",
          "type": "address"
        }
      ],
      "name": "grantRole",
      "outputs": [],
      "stateMutability": "nonpayable",
      "type": "function"
    },
    {
      "inputs": [
        {
          "internalType": "bytes32",
          "name": "role",
          "type": "bytes32"
        },
        {
          "internalType": "address",
          "name": "account",
          "type": "address"
        }
      ],
      "name": "hasRole",
      "outputs": [
        {
          "internalType": "bool",
          "name": "",
          "type": "bool"
        }
      ],
      "stateMutability": "view",
      "type": "function"
    },
    {
      "inputs": [
        {
          "internalType": "address",
          "name": "",
          "type": "address"
        },
        {
          "internalType": "address",
          "name": "",
          "type": "address"
        },
        {
          "internalType": "uint256[]",
          "name": "",
          "type": "uint256[]"
        },
        {
          "internalType": "uint256[]",
          "name": "",
          "type": "uint256[]"
        },
        {
          "internalType": "bytes",
          "name": "",
          "type": "bytes"
        }
      ],
      "name": "onERC1155BatchReceived",
      "outputs": [
        {
          "internalType": "bytes4",
          "name": "",
          "type": "bytes4"
        }
      ],
      "stateMutability": "nonpayable",
      "type": "function"
    },
    {
      "inputs": [
        {
          "internalType": "address",
          "name": "",
          "type": "address"
        },
        {
          "internalType": "address",
          "name": "",
          "type": "address"
        },
        {
          "internalType": "uint256",
          "name": "",
          "type": "uint256"
        },
        {
          "internalType": "uint256",
          "name": "",
          "type": "uint256"
        },
        {
          "internalType": "bytes",
          "name": "",
          "type": "bytes"
        }
      ],
      "name": "onERC1155Received",
      "outputs": [
        {
          "internalType": "bytes4",
          "name": "",
          "type": "bytes4"
        }
      ],
      "stateMutability": "nonpayable",
      "type": "function"
    },
    {
      "inputs": [
        {
          "internalType": "address",
          "name": "",
          "type": "address"
        },
        {
          "internalType": "address",
          "name": "",
          "type": "address"
        },
        {
          "internalType": "uint256",
          "name": "",
          "type": "uint256"
        },
        {
          "internalType": "bytes",
          "name": "",
          "type": "bytes"
        }
      ],
      "name": "onERC721Received",
      "outputs": [
        {
          "internalType": "bytes4",
          "name": "",
          "type": "bytes4"
        }
      ],
      "stateMutability": "nonpayable",
      "type": "function"
    },
    {
      "inputs": [],
      "name": "owner",
      "outputs": [
        {
          "internalType": "address",
          "name": "",
          "type": "address"
        }
      ],
      "stateMutability": "view",
      "type": "function"
    },
    {
      "inputs": [],
      "name": "pendingDefaultAdmin",
      "outputs": [
        {
          "internalType": "address",
          "name": "newAdmin",
          "type": "address"
        },
        {
          "internalType": "uint48",
          "name": "schedule",
          "type": "uint48"
        }
      ],
      "stateMutability": "view",
      "type": "function"
    },
    {
      "inputs": [],
      "name": "pendingDefaultAdminDelay",
      "outputs": [
        {
          "internalType": "uint48",
          "name": "newDelay",
          "type": "uint48"
        },
        {
          "internalType": "uint48",
          "name": "schedule",
          "type": "uint48"
        }
      ],
      "stateMutability": "view",
      "type": "function"
    },
    {
      "inputs": [
        {
          "internalType": "bytes32",
          "name": "role",
          "type": "bytes32"
        },
        {
          "internalType": "address",
          "name": "account",
          "type": "address"
        }
      ],
      "name": "renounceRole",
      "outputs": [],
      "stateMutability": "nonpayable",
      "type": "function"
    },
    {
      "inputs": [
        {
          "internalType": "bytes32",
          "name": "role",
          "type": "bytes32"
        },
        {
          "internalType": "address",
          "name": "account",
          "type": "address"
        }
      ],
      "name": "revokeRole",
      "outputs": [],
      "stateMutability": "nonpayable",
      "type": "function"
    },
    {
      "inputs": [],
      "name": "rollbackDefaultAdminDelay",
      "outputs": [],
      "stateMutability": "nonpayable",
      "type": "function"
    },
    {
      "inputs": [
        {
          "internalType": "bytes4",
          "name": "interfaceId",
          "type": "bytes4"
        }
      ],
      "name": "supportsInterface",
      "outputs": [
        {
          "internalType": "bool",
          "name": "",
          "type": "bool"
        }
      ],
      "stateMutability": "view",
      "type": "function"
    },
    {
      "stateMutability": "payable",
      "type": "receive"
    }
  ],
  "bytecode": "0x60803461012d57601f611e1838819003918201601f19168301916001600160401b038311848410176101325780849260609460405283398101031261012d57805165ffffffffffff81169081810361012d57610069604061006260208601610148565b9401610148565b9115610123575b6001600160a01b038316158015919061011d57835b6001600160a01b0381161561010757600180546001600160d01b031660d09390931b6001600160d01b031916929092179091556100c19061015c565b506001600160a01b038216156100eb575b6100db826101a7565b50604051611bbf90816102598239f35b1590506100fd576100db905b386100d2565b506100db326100f7565b636116401160e11b600052600060045260246000fd5b32610085565b5062093a80610070565b600080fd5b634e487b7160e01b600052604160045260246000fd5b51906001600160a01b038216820361012d57565b600254906001600160a01b038216610196576001600160a01b03199091166001600160a01b038216176002556101939060006101cd565b90565b631fe1e13d60e11b60005260046000fd5b610193907fcbce9983fcd5fc099294db3138f1660107f2bd5b23b9fa0002d7df1db9d854cb5b6000818152602081815260408083206001600160a01b038616845290915290205460ff16610251576000818152602081815260408083206001600160a01b0395909516808452949091528120805460ff19166001179055339291907f2f8788117e7eff1d82e926ec794901d17c78024a50270940304540a733656f0d9080a4600190565b505060009056fe608080604052600436101561001d575b50361561001b57600080fd5b005b600090813560e01c90816301ffc9a71461136b57508063022d63fb1461132f5780630aa6220b14611248578063150b7a02146111bb578063248a9ca3146111675780632f2ff15d1461110057806336568abe14610f7357806337654f5b14610b2c578063634e93da146109d4578063649a5ec7146107a057806384ef8ffc1461074e5780638da5cb5b1461074e57806391d14854146106d7578063a1eda53c14610656578063a217fddf1461061c578063bc197c811461054d578063cc8463c814610504578063cefc1429146103ca578063cf6eefb71461033f578063d547741f146102a7578063d602b9fd1461020d578063f0a0d04b146101b45763f23a6e610361000f57346101b15760a07ffffffffffffffffffffffffffffffffffffffffffffffffffffffffffffffffc3601126101b15761015a611495565b506101636114bd565b5060843567ffffffffffffffff81116101af5761018490369060040161158a565b5060206040517ff23a6e61000000000000000000000000000000000000000000000000000000008152f35b505b80fd5b50346101b157807ffffffffffffffffffffffffffffffffffffffffffffffffffffffffffffffffc3601126101b15760206040517fcbce9983fcd5fc099294db3138f1660107f2bd5b23b9fa0002d7df1db9d854cb8152f35b50346101b157807ffffffffffffffffffffffffffffffffffffffffffffffffffffffffffffffffc3601126101b157610244611672565b600180547fffffffffffff0000000000000000000000000000000000000000000000000000811690915560a01c65ffffffffffff166102805780f35b7f8886ebfc4259abdbc16601dd8fb5678e54878f47b3c34836cfc51154a96051098180a180f35b50346101b15760407ffffffffffffffffffffffffffffffffffffffffffffffffffffffffffffffffc3601126101b1576004356102e26114bd565b90801561031757908161030e61030961031394600052600060205260016040600020015490565b6116de565b61193f565b5080f35b6004837f3fc3c27a000000000000000000000000000000000000000000000000000000008152fd5b50346101b157807ffffffffffffffffffffffffffffffffffffffffffffffffffffffffffffffffc3601126101b157604065ffffffffffff6103a46001549065ffffffffffff73ffffffffffffffffffffffffffffffffffffffff83169260a01c1690565b73ffffffffffffffffffffffffffffffffffffffff849392935193168352166020820152f35b50346101b157807ffffffffffffffffffffffffffffffffffffffffffffffffffffffffffffffffc3601126101b15760015473ffffffffffffffffffffffffffffffffffffffff1633036104d85760015473ffffffffffffffffffffffffffffffffffffffff81169060a01c65ffffffffffff16801580156104ce575b6104a357506104779061047173ffffffffffffffffffffffffffffffffffffffff600254166118d1565b506117c8565b507fffffffffffff00000000000000000000000000000000000000000000000000006001541660015580f35b7f19ca5ebb000000000000000000000000000000000000000000000000000000008352600452602482fd5b5042811015610447565b807fc22c8022000000000000000000000000000000000000000000000000000000006024925233600452fd5b50346101b157807ffffffffffffffffffffffffffffffffffffffffffffffffffffffffffffffffc3601126101b157602061053d611639565b65ffffffffffff60405191168152f35b50346101b15760a07ffffffffffffffffffffffffffffffffffffffffffffffffffffffffffffffffc3601126101b157610585611495565b5061058e6114bd565b5060443567ffffffffffffffff81116101af576105af9036906004016115d1565b5060643567ffffffffffffffff81116101af576105d09036906004016115d1565b5060843567ffffffffffffffff81116101af576105f190369060040161158a565b5060206040517fbc197c81000000000000000000000000000000000000000000000000000000008152f35b50346101b157807ffffffffffffffffffffffffffffffffffffffffffffffffffffffffffffffffc3601126101b157602090604051908152f35b50346101b157807ffffffffffffffffffffffffffffffffffffffffffffffffffffffffffffffffc3601126101b1576002548060d01c91821515806106cd575b156106c4575060a01c65ffffffffffff165b6040805165ffffffffffff928316815292909116602083015290f35b915050806106a8565b5042831015610696565b50346101b15760407ffffffffffffffffffffffffffffffffffffffffffffffffffffffffffffffffc3601126101b15773ffffffffffffffffffffffffffffffffffffffff60406107266114bd565b92600435815280602052209116600052602052602060ff604060002054166040519015158152f35b50346101b157807ffffffffffffffffffffffffffffffffffffffffffffffffffffffffffffffffc3601126101b157602073ffffffffffffffffffffffffffffffffffffffff60025416604051908152f35b50346101b15760207ffffffffffffffffffffffffffffffffffffffffffffffffffffffffffffffffc3601126101b15760043565ffffffffffff81168082036109d0576107eb611672565b6107f4426119b5565b9065ffffffffffff610804611639565b168082111561096857507ff1038c18cf84a56e432fdbfaf746924b7ea511dfe03a6506a0ceba4888788d9b929165ffffffffffff82620697808061085295109118026206978018169061177b565b906002548060d01c806108e5575b50506002805473ffffffffffffffffffffffffffffffffffffffff1660a083901b79ffffffffffff0000000000000000000000000000000000000000161760d084901b7fffffffffffff0000000000000000000000000000000000000000000000000000161790556040805165ffffffffffff9283168152919092166020820152a180f35b42111561093e5779ffffffffffffffffffffffffffffffffffffffffffffffffffff7fffffffffffff00000000000000000000000000000000000000000000000000006001549260301b169116176001555b3880610860565b507f2b1fa2edafe6f7b9e97c1a9e0c3660e645beb2dcaa2d45bdbf9beaf5472e1ec58480a1610937565b0365ffffffffffff81116109a3577ff1038c18cf84a56e432fdbfaf746924b7ea511dfe03a6506a0ceba4888788d9b9291610852919061177b565b6024847f4e487b710000000000000000000000000000000000000000000000000000000081526011600452fd5b8280fd5b50346101b15760207ffffffffffffffffffffffffffffffffffffffffffffffffffffffffffffffffc3601126101b157610a0c611495565b610a14611672565b7f3377dc44241e779dd06afab5b788a35ca5f3b778836e2990bdb26a2a4b2e5ed66020610a51610a43426119b5565b610a4b611639565b9061177b565b65ffffffffffff73ffffffffffffffffffffffffffffffffffffffff610a9a6001549065ffffffffffff73ffffffffffffffffffffffffffffffffffffffff83169260a01c1690565b9690501694600154867fffffffffffff000000000000000000000000000000000000000000000000000079ffffffffffff00000000000000000000000000000000000000008660a01b169216171760015516610b03575b65ffffffffffff60405191168152a280f35b7f8886ebfc4259abdbc16601dd8fb5678e54878f47b3c34836cfc51154a96051098580a1610af1565b50346101b15760a07ffffffffffffffffffffffffffffffffffffffffffffffffffffffffffffffffc3601126101b157600435610b676114bd565b90604435906064359173ffffffffffffffffffffffffffffffffffffffff831692838103610f6f57608435927fcbce9983fcd5fc099294db3138f1660107f2bd5b23b9fa0002d7df1db9d854cb8752866020526040872073ffffffffffffffffffffffffffffffffffffffff3316885260205260ff60408820541615610f1f57918695939183601488979514600014610d1c5750505083906040519060208201937fa9059cbb0000000000000000000000000000000000000000000000000000000085526024830152604482015260448152610c446064826114e0565b51925af1610c5061174b565b81610ce4575b5015610c60575b80f35b60846040517f08c379a000000000000000000000000000000000000000000000000000000000815260206004820152602d60248201527f5472616e7366657248656c7065723a3a736166655472616e736665723a20747260448201527f616e73666572206661696c6564000000000000000000000000000000000000006064820152fd5b8051801592508215610cf9575b505038610c56565b81925090602091810103126101af576020015180151581036101af573880610cf1565b919550929392906102d18103610dbf5750505073ffffffffffffffffffffffffffffffffffffffff1691823b15610dba57606484928360405195869485937f42842e0e000000000000000000000000000000000000000000000000000000008552306004860152602485015260448401525af18015610daf57610d9e57505080f35b81610da8916114e0565b6101b15780f35b6040513d84823e3d90fd5b505050fd5b919594929161048303610e68575073ffffffffffffffffffffffffffffffffffffffff16803b15610e645783928360c49260405197889586947ff242432a00000000000000000000000000000000000000000000000000000000865230600487015260248601526044850152606484015260a060848401528160a48401525af18015610e5757610e4e57505080f35b610c5d916114e0565b50604051903d90823e3d90fd5b8380fd5b92505050819260405190610e7d6020836114e0565b8382526020820191600036843751925af1610e9661174b565b50610c5d5760846040517f08c379a000000000000000000000000000000000000000000000000000000000815260206004820152603460248201527f5472616e7366657248656c7065723a3a736166655472616e736665724554483a60448201527f20455448207472616e73666572206661696c65640000000000000000000000006064820152fd5b6044877fe2517d3f000000000000000000000000000000000000000000000000000000008152336004527fcbce9983fcd5fc099294db3138f1660107f2bd5b23b9fa0002d7df1db9d854cb602452fd5b8580fd5b50346101b15760407ffffffffffffffffffffffffffffffffffffffffffffffffffffffffffffffffc3601126101b157600435610fae6114bd565b908015806110c9575b61100b575b3373ffffffffffffffffffffffffffffffffffffffff831603610fe357906103139161193f565b6004837f6697b232000000000000000000000000000000000000000000000000000000008152fd5b60015465ffffffffffff60a082901c169073ffffffffffffffffffffffffffffffffffffffff16158015906110b9575b80156110a7575b61107457507fffffffffffff000000000000ffffffffffffffffffffffffffffffffffffffff60015416600155610fbc565b7f19ca5ebb00000000000000000000000000000000000000000000000000000000845265ffffffffffff16600452602483fd5b504265ffffffffffff82161015611042565b5065ffffffffffff81161561103b565b5073ffffffffffffffffffffffffffffffffffffffff6002541673ffffffffffffffffffffffffffffffffffffffff831614610fb7565b50346101b15760407ffffffffffffffffffffffffffffffffffffffffffffffffffffffffffffffffc3601126101b15760043561113b6114bd565b90801561031757908161116261030961031394600052600060205260016040600020015490565b61185d565b50346101b15760207ffffffffffffffffffffffffffffffffffffffffffffffffffffffffffffffffc3601126101b15760206111b3600435600052600060205260016040600020015490565b604051908152f35b50346101b15760807ffffffffffffffffffffffffffffffffffffffffffffffffffffffffffffffffc3601126101b1576111f3611495565b506111fc6114bd565b5060643567ffffffffffffffff81116101af5761121d90369060040161158a565b5060206040517f150b7a02000000000000000000000000000000000000000000000000000000008152f35b50346101b157807ffffffffffffffffffffffffffffffffffffffffffffffffffffffffffffffffc3601126101b15761127f611672565b6002548060d01c806112ac575b8273ffffffffffffffffffffffffffffffffffffffff6002541660025580f35b4211156113055779ffffffffffffffffffffffffffffffffffffffffffffffffffff7fffffffffffff00000000000000000000000000000000000000000000000000006001549260301b169116176001555b388061128c565b507f2b1fa2edafe6f7b9e97c1a9e0c3660e645beb2dcaa2d45bdbf9beaf5472e1ec58180a16112fe565b50346101b157807ffffffffffffffffffffffffffffffffffffffffffffffffffffffffffffffffc3601126101b1576020604051620697808152f35b9050346101af5760207ffffffffffffffffffffffffffffffffffffffffffffffffffffffffffffffffc3601126101af576004357fffffffff0000000000000000000000000000000000000000000000000000000081168091036109d057602092507f314987860000000000000000000000000000000000000000000000000000000081148015611443575b80918115611408575b505015158152f35b7f4e2312e000000000000000000000000000000000000000000000000000000000149150811561143b575b503880611400565b905038611433565b507f7965db0b000000000000000000000000000000000000000000000000000000008114806113f757507f01ffc9a70000000000000000000000000000000000000000000000000000000081146113f7565b6004359073ffffffffffffffffffffffffffffffffffffffff821682036114b857565b600080fd5b6024359073ffffffffffffffffffffffffffffffffffffffff821682036114b857565b90601f7fffffffffffffffffffffffffffffffffffffffffffffffffffffffffffffffe0910116810190811067ffffffffffffffff82111761152157604052565b7f4e487b7100000000000000000000000000000000000000000000000000000000600052604160045260246000fd5b67ffffffffffffffff811161152157601f017fffffffffffffffffffffffffffffffffffffffffffffffffffffffffffffffe01660200190565b81601f820112156114b8578035906115a182611550565b926115af60405194856114e0565b828452602083830101116114b857816000926020809301838601378301015290565b9080601f830112156114b85781359167ffffffffffffffff8311611521578260051b906040519361160560208401866114e0565b84526020808501928201019283116114b857602001905b8282106116295750505090565b813581526020918201910161161c565b6002548060d01c8015159081611668575b501561165e5760a01c65ffffffffffff1690565b5060015460d01c90565b905042113861164a565b3360009081527fad3228b676f7d3cd4284a5443f17f1962b36e491b30a40b2405849e597ba5fb5602052604090205460ff16156116ab57565b7fe2517d3f0000000000000000000000000000000000000000000000000000000060005233600452600060245260446000fd5b806000526000602052604060002073ffffffffffffffffffffffffffffffffffffffff331660005260205260ff604060002054161561171a5750565b7fe2517d3f000000000000000000000000000000000000000000000000000000006000523360045260245260446000fd5b3d15611776573d9061175c82611550565b9161176a60405193846114e0565b82523d6000602084013e565b606090565b9065ffffffffffff8091169116019065ffffffffffff821161179957565b7f4e487b7100000000000000000000000000000000000000000000000000000000600052601160045260246000fd5b6002549073ffffffffffffffffffffffffffffffffffffffff821661183357611830917fffffffffffffffffffffffff000000000000000000000000000000000000000073ffffffffffffffffffffffffffffffffffffffff831691161760025560006119ff565b90565b7f3fc3c27a0000000000000000000000000000000000000000000000000000000060005260046000fd5b90811561186e575b611830916119ff565b6002549173ffffffffffffffffffffffffffffffffffffffff8316611833577fffffffffffffffffffffffff000000000000000000000000000000000000000090921673ffffffffffffffffffffffffffffffffffffffff821617600255611865565b6118309073ffffffffffffffffffffffffffffffffffffffff6002541673ffffffffffffffffffffffffffffffffffffffff821614611912575b6000611ade565b7fffffffffffffffffffffffff00000000000000000000000000000000000000006002541660025561190b565b906118309180158061197e575b15611ade577fffffffffffffffffffffffff000000000000000000000000000000000000000060025416600255611ade565b5073ffffffffffffffffffffffffffffffffffffffff6002541673ffffffffffffffffffffffffffffffffffffffff83161461194c565b65ffffffffffff81116119cd5765ffffffffffff1690565b7f6dfcc65000000000000000000000000000000000000000000000000000000000600052603060045260245260446000fd5b806000526000602052604060002073ffffffffffffffffffffffffffffffffffffffff831660005260205260ff6040600020541615600014611ad757806000526000602052604060002073ffffffffffffffffffffffffffffffffffffffff8316600052602052604060002060017fffffffffffffffffffffffffffffffffffffffffffffffffffffffffffffff0082541617905573ffffffffffffffffffffffffffffffffffffffff339216907f2f8788117e7eff1d82e926ec794901d17c78024a50270940304540a733656f0d600080a4600190565b5050600090565b806000526000602052604060002073ffffffffffffffffffffffffffffffffffffffff831660005260205260ff60406000205416600014611ad757806000526000602052604060002073ffffffffffffffffffffffffffffffffffffffff831660005260205260406000207fffffffffffffffffffffffffffffffffffffffffffffffffffffffffffffff00815416905573ffffffffffffffffffffffffffffffffffffffff339216907ff6391f5c32d9c69d2a47ea670b442974b53935d1edc7fd64eb21e047a839171b600080a460019056fea164736f6c634300081c000a",
  "linkReferences": {},
  "deployedLinkReferences": {}
}