{
  "_format": "hh-sol-artifact-1",
  "contractName": "Endurio",
  "sourceName": "contracts/Endurio.sol",
  "abi": [
    {
      "inputs": [
        {
          "internalType": "bytes32",
          "name": "name_",
          "type": "bytes32"
        },
        {
          "internalType": "bytes32",
          "name": "symbol_",
          "type": "bytes32"
        },
        {
          "internalType": "address",
          "name": "utr",
          "type": "address"
        },
        {
          "internalType": "address",
          "name": "por",
          "type": "address"
        },
        {
          "internalType": "address",
          "name": "refnet",
          "type": "address"
        },
        {
          "internalType": "address",
          "name": "brands",
          "type": "address"
        }
      ],
      "stateMutability": "nonpayable",
      "type": "constructor"
    },
    {
      "inputs": [],
      "name": "AccessControlBadRoleChange",
      "type": "error"
    },
    {
      "inputs": [],
      "name": "ECDSAInvalidSignature",
      "type": "error"
    },
    {
      "inputs": [
        {
          "internalType": "uint256",
          "name": "length",
          "type": "uint256"
        }
      ],
      "name": "ECDSAInvalidSignatureLength",
      "type": "error"
    },
    {
      "inputs": [
        {
          "internalType": "bytes32",
          "name": "s",
          "type": "bytes32"
        }
      ],
      "name": "ECDSAInvalidSignatureS",
      "type": "error"
    },
    {
      "inputs": [
        {
          "internalType": "address",
          "name": "spender",
          "type": "address"
        },
        {
          "internalType": "uint256",
          "name": "allowance",
          "type": "uint256"
        },
        {
          "internalType": "uint256",
          "name": "needed",
          "type": "uint256"
        }
      ],
      "name": "ERC20InsufficientAllowance",
      "type": "error"
    },
    {
      "inputs": [
        {
          "internalType": "address",
          "name": "sender",
          "type": "address"
        },
        {
          "internalType": "uint256",
          "name": "balance",
          "type": "uint256"
        },
        {
          "internalType": "uint256",
          "name": "needed",
          "type": "uint256"
        }
      ],
      "name": "ERC20InsufficientBalance",
      "type": "error"
    },
    {
      "inputs": [
        {
          "internalType": "address",
          "name": "approver",
          "type": "address"
        }
      ],
      "name": "ERC20InvalidApprover",
      "type": "error"
    },
    {
      "inputs": [
        {
          "internalType": "address",
          "name": "receiver",
          "type": "address"
        }
      ],
      "name": "ERC20InvalidReceiver",
      "type": "error"
    },
    {
      "inputs": [
        {
          "internalType": "address",
          "name": "sender",
          "type": "address"
        }
      ],
      "name": "ERC20InvalidSender",
      "type": "error"
    },
    {
      "inputs": [
        {
          "internalType": "address",
          "name": "spender",
          "type": "address"
        }
      ],
      "name": "ERC20InvalidSpender",
      "type": "error"
    },
    {
      "inputs": [
        {
          "internalType": "uint256",
          "name": "deadline",
          "type": "uint256"
        }
      ],
      "name": "ERC2612ExpiredSignature",
      "type": "error"
    },
    {
      "inputs": [
        {
          "internalType": "address",
          "name": "signer",
          "type": "address"
        },
        {
          "internalType": "address",
          "name": "owner",
          "type": "address"
        }
      ],
      "name": "ERC2612InvalidSigner",
      "type": "error"
    },
    {
      "inputs": [
        {
          "internalType": "address",
          "name": "account",
          "type": "address"
        },
        {
          "internalType": "uint256",
          "name": "currentNonce",
          "type": "uint256"
        }
      ],
      "name": "InvalidAccountNonce",
      "type": "error"
    },
    {
      "inputs": [],
      "name": "InvalidShortString",
      "type": "error"
    },
    {
      "inputs": [
        {
          "internalType": "string",
          "name": "str",
          "type": "string"
        }
      ],
      "name": "StringTooLong",
      "type": "error"
    },
    {
      "anonymous": false,
      "inputs": [
        {
          "indexed": true,
          "internalType": "address",
          "name": "owner",
          "type": "address"
        },
        {
          "indexed": true,
          "internalType": "address",
          "name": "spender",
          "type": "address"
        },
        {
          "indexed": false,
          "internalType": "uint256",
          "name": "value",
          "type": "uint256"
        }
      ],
      "name": "Approval",
      "type": "event"
    },
    {
      "anonymous": false,
      "inputs": [],
      "name": "EIP712DomainChanged",
      "type": "event"
    },
    {
      "anonymous": false,
      "inputs": [
        {
          "indexed": true,
          "internalType": "address",
          "name": "from",
          "type": "address"
        },
        {
          "indexed": true,
          "internalType": "address",
          "name": "to",
          "type": "address"
        },
        {
          "indexed": false,
          "internalType": "uint256",
          "name": "value",
          "type": "uint256"
        }
      ],
      "name": "Transfer",
      "type": "event"
    },
    {
      "inputs": [],
      "name": "BRANDS",
      "outputs": [
        {
          "internalType": "address",
          "name": "",
          "type": "address"
        }
      ],
      "stateMutability": "view",
      "type": "function"
    },
    {
      "inputs": [],
      "name": "DOMAIN_SEPARATOR",
      "outputs": [
        {
          "internalType": "bytes32",
          "name": "",
          "type": "bytes32"
        }
      ],
      "stateMutability": "view",
      "type": "function"
    },
    {
      "inputs": [],
      "name": "POR",
      "outputs": [
        {
          "internalType": "address",
          "name": "",
          "type": "address"
        }
      ],
      "stateMutability": "view",
      "type": "function"
    },
    {
      "inputs": [],
      "name": "REFNET",
      "outputs": [
        {
          "internalType": "address",
          "name": "",
          "type": "address"
        }
      ],
      "stateMutability": "view",
      "type": "function"
    },
    {
      "inputs": [],
      "name": "UTR",
      "outputs": [
        {
          "internalType": "address",
          "name": "",
          "type": "address"
        }
      ],
      "stateMutability": "view",
      "type": "function"
    },
    {
      "inputs": [
        {
          "internalType": "address",
          "name": "owner",
          "type": "address"
        },
        {
          "internalType": "address",
          "name": "spender",
          "type": "address"
        }
      ],
      "name": "allowance",
      "outputs": [
        {
          "internalType": "uint256",
          "name": "",
          "type": "uint256"
        }
      ],
      "stateMutability": "view",
      "type": "function"
    },
    {
      "inputs": [
        {
          "internalType": "address",
          "name": "spender",
          "type": "address"
        },
        {
          "internalType": "uint256",
          "name": "value",
          "type": "uint256"
        }
      ],
      "name": "approve",
      "outputs": [
        {
          "internalType": "bool",
          "name": "",
          "type": "bool"
        }
      ],
      "stateMutability": "nonpayable",
      "type": "function"
    },
    {
      "inputs": [
        {
          "internalType": "address",
          "name": "account",
          "type": "address"
        }
      ],
      "name": "balanceOf",
      "outputs": [
        {
          "internalType": "uint256",
          "name": "",
          "type": "uint256"
        }
      ],
      "stateMutability": "view",
      "type": "function"
    },
    {
      "inputs": [
        {
          "internalType": "address",
          "name": "account",
          "type": "address"
        },
        {
          "internalType": "uint256",
          "name": "value",
          "type": "uint256"
        }
      ],
      "name": "burn",
      "outputs": [],
      "stateMutability": "nonpayable",
      "type": "function"
    },
    {
      "inputs": [],
      "name": "decimals",
      "outputs": [
        {
          "internalType": "uint8",
          "name": "",
          "type": "uint8"
        }
      ],
      "stateMutability": "view",
      "type": "function"
    },
    {
      "inputs": [],
      "name": "eip712Domain",
      "outputs": [
        {
          "internalType": "bytes1",
          "name": "fields",
          "type": "bytes1"
        },
        {
          "internalType": "string",
          "name": "name",
          "type": "string"
        },
        {
          "internalType": "string",
          "name": "version",
          "type": "string"
        },
        {
          "internalType": "uint256",
          "name": "chainId",
          "type": "uint256"
        },
        {
          "internalType": "address",
          "name": "verifyingContract",
          "type": "address"
        },
        {
          "internalType": "bytes32",
          "name": "salt",
          "type": "bytes32"
        },
        {
          "internalType": "uint256[]",
          "name": "extensions",
          "type": "uint256[]"
        }
      ],
      "stateMutability": "view",
      "type": "function"
    },
    {
      "inputs": [
        {
          "internalType": "address",
          "name": "account",
          "type": "address"
        },
        {
          "internalType": "uint256",
          "name": "value",
          "type": "uint256"
        }
      ],
      "name": "mint",
      "outputs": [],
      "stateMutability": "nonpayable",
      "type": "function"
    },
    {
      "inputs": [],
      "name": "name",
      "outputs": [
        {
          "internalType": "string",
          "name": "",
          "type": "string"
        }
      ],
      "stateMutability": "view",
      "type": "function"
    },
    {
      "inputs": [
        {
          "internalType": "address",
          "name": "owner",
          "type": "address"
        }
      ],
      "name": "nonces",
      "outputs": [
        {
          "internalType": "uint256",
          "name": "",
          "type": "uint256"
        }
      ],
      "stateMutability": "view",
      "type": "function"
    },
    {
      "inputs": [
        {
          "internalType": "address",
          "name": "owner",
          "type": "address"
        },
        {
          "internalType": "address",
          "name": "spender",
          "type": "address"
        },
        {
          "internalType": "uint256",
          "name": "value",
          "type": "uint256"
        },
        {
          "internalType": "uint256",
          "name": "deadline",
          "type": "uint256"
        },
        {
          "internalType": "uint8",
          "name": "v",
          "type": "uint8"
        },
        {
          "internalType": "bytes32",
          "name": "r",
          "type": "bytes32"
        },
        {
          "internalType": "bytes32",
          "name": "s",
          "type": "bytes32"
        }
      ],
      "name": "permit",
      "outputs": [],
      "stateMutability": "nonpayable",
      "type": "function"
    },
    {
      "inputs": [],
      "name": "symbol",
      "outputs": [
        {
          "internalType": "string",
          "name": "",
          "type": "string"
        }
      ],
      "stateMutability": "view",
      "type": "function"
    },
    {
      "inputs": [],
      "name": "totalSupply",
      "outputs": [
        {
          "internalType": "uint256",
          "name": "",
          "type": "uint256"
        }
      ],
      "stateMutability": "view",
      "type": "function"
    },
    {
      "inputs": [
        {
          "internalType": "address",
          "name": "to",
          "type": "address"
        },
        {
          "internalType": "uint256",
          "name": "value",
          "type": "uint256"
        }
      ],
      "name": "transfer",
      "outputs": [
        {
          "internalType": "bool",
          "name": "",
          "type": "bool"
        }
      ],
      "stateMutability": "nonpayable",
      "type": "function"
    },
    {
      "inputs": [
        {
          "internalType": "address",
          "name": "from",
          "type": "address"
        },
        {
          "internalType": "address",
          "name": "to",
          "type": "address"
        },
        {
          "internalType": "uint256",
          "name": "value",
          "type": "uint256"
        }
      ],
      "name": "transferFrom",
      "outputs": [
        {
          "internalType": "bool",
          "name": "",
          "type": "bool"
        }
      ],
      "stateMutability": "nonpayable",
      "type": "function"
    }
  ],
  "bytecode": "0x61022080604052346104f75760c081611f5d803803809161002082856104fc565b8339810103126104f757805190602081015161003e6040830161051f565b61004a6060840161051f565b9161006360a061005c6080870161051f565b950161051f565b94604051602081018281526020825261007d6040836104fc565b6040519061008c6020836104fc565b600082526040519261009f6020856104fc565b60008452604051936100b26040866104fc565b60018552603160f81b60208601908152845190946001600160401b0382116103f45760035490600182811c921680156104ed575b60208310146103d45781601f84931161047d575b50602090601f83116001146104155760009261040a575b50508160011b916000199060031b1c1916176003555b8051906001600160401b0382116103f45760045490600182811c921680156103ea575b60208310146103d45781601f849311610364575b50602090601f83116001146102fc576000926102f1575b50508160011b916000199060031b1c1916176004555b61019481610533565b610120526101a1846106e1565b61014052519020918260e05251902080610100524660a0526040519060208201927f8b73c3c69bb8fe3d512ecc4cf759cc79239f7b179b0ffacaa9a75d522b39400f8452604083015260608201524660808201523060a082015260a0815261020a60c0826104fc565b5190206080523060c05261016052610180526101a0526101c0526101e052610200526040516116dd908161088082396080518161116e015260a0518161122b015260c0518161113f015260e051816111bd015261010051816111e3015261012051816106f90152610140518161072201526101605181610c4b0152610180518161060801526101a05181818161034901528181610e0f0152610ed301526101c05181818161047e0152818161090e015261098501526101e0518181816105aa0152818161069e0152610aa60152610200518181816103b80152818161057f0152610a7b0152f35b015190503880610175565b600460009081528281209350601f198516905b81811061034c5750908460019594939210610333575b505050811b0160045561018b565b015160001960f88460031b161c19169055388080610325565b9293602060018192878601518155019501930161030f565b60046000529091507f8a35acfbc15ff81a39ae7d344fd709f28e8600b4aa8c65c6b64bfe7fe36bd19b601f840160051c810191602085106103ca575b90601f859493920160051c01905b8181106103bb575061015e565b600081558493506001016103ae565b90915081906103a0565b634e487b7160e01b600052602260045260246000fd5b91607f169161014a565b634e487b7160e01b600052604160045260246000fd5b015190503880610111565b600360009081528281209350601f198516905b818110610465575090846001959493921061044c575b505050811b01600355610127565b015160001960f88460031b161c1916905538808061043e565b92936020600181928786015181550195019301610428565b60036000529091507fc2575a0e9e593c00f959f8c92f12db2869c3395a3b0502d05e2516446f71f85b601f840160051c810191602085106104e3575b90601f859493920160051c01905b8181106104d457506100fa565b600081558493506001016104c7565b90915081906104b9565b91607f16916100e6565b600080fd5b601f909101601f19168101906001600160401b038211908210176103f457604052565b51906001600160a01b03821682036104f757565b908151602081106000146105cb575090601f81511161056f57602081519101516020821061055f571790565b6000198260200360031b1b161790565b6040519063305a27a960e01b8252602060048301528181519182602483015260005b8381106105b35750508160006044809484010152601f80199101168101030190fd5b60208282018101516044878401015285935001610591565b6001600160401b0381116103f457600554600181811c911680156106d7575b60208210146103d457601f81116106a1575b50602092601f821160011461063c5792819293600092610631575b50508160011b916000199060031b1c19161760055560ff90565b015190503880610617565b601f198216936005600052806000209160005b8681106106895750836001959610610670575b505050811b0160055560ff90565b015160001960f88460031b161c19169055388080610662565b9192602060018192868501518155019401920161064f565b6005600052601f6020600020910160051c810190601f830160051c015b8181106106cb57506105fc565b600081556001016106be565b90607f16906105ea565b90815160208110600014610769575090601f81511161070d57602081519101516020821061055f571790565b6040519063305a27a960e01b8252602060048301528181519182602483015260005b8381106107515750508160006044809484010152601f80199101168101030190fd5b6020828201810151604487840101528593500161072f565b6001600160401b0381116103f457600654600181811c91168015610875575b60208210146103d457601f811161083f575b50602092601f82116001146107da57928192936000926107cf575b50508160011b916000199060031b1c19161760065560ff90565b0151905038806107b5565b601f198216936006600052806000209160005b868110610827575083600195961061080e575b505050811b0160065560ff90565b015160001960f88460031b161c19169055388080610800565b919260206001819286850151815501940192016107ed565b6006600052601f6020600020910160051c810190601f830160051c015b818110610869575061079a565b6000815560010161085c565b90607f169061078856fe608080604052600436101561001357600080fd5b60003560e01c90816306fdde0314610c1657508063095ea7b314610bd257806318160ddd14610b9657806323b872dd14610b40578063313ce56714610b065780633644e51514610acd57806340c10f19146109325780635c470ecb146108c357806370a082311461085e5780637ecebe00146107f957806384b0196e146106c2578063872dc0391461065357806395d89b41146105d15780639dc29fac1461042b578063a9059cbb146103dc578063ad22453c1461036d578063ca6ef16d146102fe578063d505accf146101475763dd62ed3e146100f057600080fd5b346101425760407ffffffffffffffffffffffffffffffffffffffffffffffffffffffffffffffffc36011261014257602061013a61012c610cdd565b610134610d00565b90610df8565b604051908152f35b600080fd5b346101425760e07ffffffffffffffffffffffffffffffffffffffffffffffffffffffffffffffffc3601126101425761017e610cdd565b610186610d00565b604435906064359260843560ff81168103610142578442116102d05761028961028073ffffffffffffffffffffffffffffffffffffffff92838516978860005260076020526040600020908154916001830190556040519060208201927f6e71edae12b1b97f4d1f60370fef10105fa2faae0126114a169c64845d6126c984528b6040840152878a1660608401528a608084015260a083015260c082015260c0815261023360e082610d23565b51902061023e611128565b90604051917f190100000000000000000000000000000000000000000000000000000000000083526002830152602282015260c43591604260a4359220611542565b909291926115e4565b1684810361029e575061029c9350611251565b005b84907f4b800e460000000000000000000000000000000000000000000000000000000060005260045260245260446000fd5b847f627913020000000000000000000000000000000000000000000000000000000060005260045260246000fd5b346101425760007ffffffffffffffffffffffffffffffffffffffffffffffffffffffffffffffffc36011261014257602060405173ffffffffffffffffffffffffffffffffffffffff7f0000000000000000000000000000000000000000000000000000000000000000168152f35b346101425760007ffffffffffffffffffffffffffffffffffffffffffffffffffffffffffffffffc36011261014257602060405173ffffffffffffffffffffffffffffffffffffffff7f0000000000000000000000000000000000000000000000000000000000000000168152f35b346101425760407ffffffffffffffffffffffffffffffffffffffffffffffffffffffffffffffffc36011261014257610420610416610cdd565b602435903361105c565b602060405160018152f35b346101425760407ffffffffffffffffffffffffffffffffffffffffffffffffffffffffffffffffc36011261014257610462610cdd565b73ffffffffffffffffffffffffffffffffffffffff60243591817f000000000000000000000000000000000000000000000000000000000000000016331480156105a6575b801561057b575b6104b790610d93565b1690811561054c5760009082825281602052604082205481811061051b5760208285937fddf252ad1be2c89b69c2b068fc378daa952ba7f163c4a11628f55a4df523b3ef93869787528684520360408620558060025403600255604051908152a380f35b6064937fe450d38c000000000000000000000000000000000000000000000000000000008452600452602452604452fd5b7f96c6fd1e00000000000000000000000000000000000000000000000000000000600052600060045260246000fd5b50337f00000000000000000000000000000000000000000000000000000000000000008316146104ae565b50817f00000000000000000000000000000000000000000000000000000000000000001633146104a7565b346101425760007ffffffffffffffffffffffffffffffffffffffffffffffffffffffffffffffffc3601126101425761064f6040517f000000000000000000000000000000000000000000000000000000000000000060208201526020815261063b604082610d23565b604051918291602083526020830190610c7e565b0390f35b346101425760007ffffffffffffffffffffffffffffffffffffffffffffffffffffffffffffffffc36011261014257602060405173ffffffffffffffffffffffffffffffffffffffff7f0000000000000000000000000000000000000000000000000000000000000000168152f35b346101425760007ffffffffffffffffffffffffffffffffffffffffffffffffffffffffffffffffc3601126101425761079b61071d7f00000000000000000000000000000000000000000000000000000000000000006112d2565b6107467f0000000000000000000000000000000000000000000000000000000000000000611470565b60206107a9604051926107598385610d23565b6000845260003681376040519586957f0f00000000000000000000000000000000000000000000000000000000000000875260e08588015260e0870190610c7e565b908582036040870152610c7e565b466060850152306080850152600060a085015283810360c085015281808451928381520193019160005b8281106107e257505050500390f35b8351855286955093810193928101926001016107d3565b346101425760207ffffffffffffffffffffffffffffffffffffffffffffffffffffffffffffffffc3601126101425773ffffffffffffffffffffffffffffffffffffffff610845610cdd565b1660005260076020526020604060002054604051908152f35b346101425760207ffffffffffffffffffffffffffffffffffffffffffffffffffffffffffffffffc3601126101425773ffffffffffffffffffffffffffffffffffffffff6108aa610cdd565b1660005260006020526020604060002054604051908152f35b346101425760007ffffffffffffffffffffffffffffffffffffffffffffffffffffffffffffffffc36011261014257602060405173ffffffffffffffffffffffffffffffffffffffff7f0000000000000000000000000000000000000000000000000000000000000000168152f35b346101425760407ffffffffffffffffffffffffffffffffffffffffffffffffffffffffffffffffc36011261014257610969610cdd565b73ffffffffffffffffffffffffffffffffffffffff60243591817f00000000000000000000000000000000000000000000000000000000000000001633148015610aa2575b8015610a77575b6109be90610d93565b168015610a485760025491808301809311610a19576020926002557fddf252ad1be2c89b69c2b068fc378daa952ba7f163c4a11628f55a4df523b3ef600093849284845283825260408420818154019055604051908152a380f35b7f4e487b7100000000000000000000000000000000000000000000000000000000600052601160045260246000fd5b7fec442f0500000000000000000000000000000000000000000000000000000000600052600060045260246000fd5b50337f00000000000000000000000000000000000000000000000000000000000000008316146109b5565b50817f00000000000000000000000000000000000000000000000000000000000000001633146109ae565b346101425760007ffffffffffffffffffffffffffffffffffffffffffffffffffffffffffffffffc36011261014257602061013a611128565b346101425760007ffffffffffffffffffffffffffffffffffffffffffffffffffffffffffffffffc36011261014257602060405160128152f35b346101425760607ffffffffffffffffffffffffffffffffffffffffffffffffffffffffffffffffc36011261014257610420610b7a610cdd565b610b82610d00565b60443591610b91833383610eba565b61105c565b346101425760007ffffffffffffffffffffffffffffffffffffffffffffffffffffffffffffffffc360112610142576020600254604051908152f35b346101425760407ffffffffffffffffffffffffffffffffffffffffffffffffffffffffffffffffc36011261014257610420610c0c610cdd565b6024359033611251565b346101425760007ffffffffffffffffffffffffffffffffffffffffffffffffffffffffffffffffc3601126101425761064f907f000000000000000000000000000000000000000000000000000000000000000060208201526020815261063b604082610d23565b919082519283825260005b848110610cc85750507fffffffffffffffffffffffffffffffffffffffffffffffffffffffffffffffe0601f8460006020809697860101520116010190565b80602080928401015182828601015201610c89565b6004359073ffffffffffffffffffffffffffffffffffffffff8216820361014257565b6024359073ffffffffffffffffffffffffffffffffffffffff8216820361014257565b90601f7fffffffffffffffffffffffffffffffffffffffffffffffffffffffffffffffe0910116810190811067ffffffffffffffff821117610d6457604052565b7f4e487b7100000000000000000000000000000000000000000000000000000000600052604160045260246000fd5b15610d9a57565b60646040517f08c379a000000000000000000000000000000000000000000000000000000000815260206004820152601560248201527f456e647572696f3a20554e415554484f52495a454400000000000000000000006044820152fd5b73ffffffffffffffffffffffffffffffffffffffff7f00000000000000000000000000000000000000000000000000000000000000001673ffffffffffffffffffffffffffffffffffffffff831614610e945773ffffffffffffffffffffffffffffffffffffffff16600052600160205273ffffffffffffffffffffffffffffffffffffffff6040600020911660005260205260406000205490565b50507fffffffffffffffffffffffffffffffffffffffffffffffffffffffffffffffff90565b919073ffffffffffffffffffffffffffffffffffffffff7f000000000000000000000000000000000000000000000000000000000000000016331461105757610f038184610df8565b927fffffffffffffffffffffffffffffffffffffffffffffffffffffffffffffffff8403610f32575b50505050565b82841061100b5773ffffffffffffffffffffffffffffffffffffffff168015610fdc5773ffffffffffffffffffffffffffffffffffffffff821615610fad57600052600160205273ffffffffffffffffffffffffffffffffffffffff6040600020911660005260205260406000209103905538808080610f2c565b7f94280d6200000000000000000000000000000000000000000000000000000000600052600060045260246000fd5b7fe602df0500000000000000000000000000000000000000000000000000000000600052600060045260246000fd5b5073ffffffffffffffffffffffffffffffffffffffff83917ffb8f41b2000000000000000000000000000000000000000000000000000000006000521660045260245260445260646000fd5b505050565b73ffffffffffffffffffffffffffffffffffffffff1690811561054c5773ffffffffffffffffffffffffffffffffffffffff16918215610a485760008281528060205260408120548281106110f55791604082827fddf252ad1be2c89b69c2b068fc378daa952ba7f163c4a11628f55a4df523b3ef958760209652828652038282205586815280845220818154019055604051908152a3565b6064937fe450d38c0000000000000000000000000000000000000000000000000000000083949352600452602452604452fd5b73ffffffffffffffffffffffffffffffffffffffff7f000000000000000000000000000000000000000000000000000000000000000016301480611228575b15611190577f000000000000000000000000000000000000000000000000000000000000000090565b60405160208101907f8b73c3c69bb8fe3d512ecc4cf759cc79239f7b179b0ffacaa9a75d522b39400f82527f000000000000000000000000000000000000000000000000000000000000000060408201527f000000000000000000000000000000000000000000000000000000000000000060608201524660808201523060a082015260a0815261122260c082610d23565b51902090565b507f00000000000000000000000000000000000000000000000000000000000000004614611167565b73ffffffffffffffffffffffffffffffffffffffff16908115610fdc5773ffffffffffffffffffffffffffffffffffffffff16918215610fad5760207f8c5be1e5ebec7d5bd14f71427d1e84f3dd0314c0f7b2291e5b200ac8c7c3b925918360005260018252604060002085600052825280604060002055604051908152a3565b60ff81146113545760ff811690601f821161132a5760408051926112f68285610d23565b602084527fffffffffffffffffffffffffffffffffffffffffffffffffffffffffffffffe060208501920136833783525290565b7fb3512b0c0000000000000000000000000000000000000000000000000000000060005260046000fd5b506040516000600554908160011c91600181168015611466575b6020841081146114395783855284929181156113fc575060011461139c575b61139992500382610d23565b90565b506005600090815290917f036b6384b5eca791c62761152d0c79bb0604c104a5fb6f4eb0703f3154bb3db05b8183106113e05750509060206113999282010161138d565b60209193508060019154838588010152019101909183926113c8565b602092506113999491507fffffffffffffffffffffffffffffffffffffffffffffffffffffffffffffff001682840152151560051b82010161138d565b6024837f4e487b710000000000000000000000000000000000000000000000000000000081526022600452fd5b92607f169261136e565b60ff81146114945760ff811690601f821161132a5760408051926112f68285610d23565b506040516000600654908160011c91600181168015611538575b6020841081146114395783855284929181156113fc57506001146114d85761139992500382610d23565b506006600090815290917ff652222313e28459528d920b65115c16c04f3efc82aaedc97be59f3f377c0d3f5b81831061151c5750509060206113999282010161138d565b6020919350806001915483858801015201910190918392611504565b92607f16926114ae565b91907f7fffffffffffffffffffffffffffffff5d576e7357a4501ddfe92f46681b20a084116115d8579160209360809260ff60009560405194855216868401526040830152606082015282805260015afa156115cc5760005173ffffffffffffffffffffffffffffffffffffffff8116156115c05790600090600090565b50600090600190600090565b6040513d6000823e3d90fd5b50505060009160039190565b91909160048110156116a157806115fa57509050565b60006001820361162e577ff645eedf0000000000000000000000000000000000000000000000000000000060005260046000fd5b506002810361166557827ffce698f70000000000000000000000000000000000000000000000000000000060005260045260246000fd5b9091600360009214611675575050565b602492507fd78bce0c000000000000000000000000000000000000000000000000000000008252600452fd5b7f4e487b7100000000000000000000000000000000000000000000000000000000600052602160045260246000fdfea164736f6c634300081c000a",
  "linkReferences": {},
  "deployedLinkReferences": {}
}