{
  "_format": "hh-sol-artifact-1",
  "contractName": "RefNet",
  "sourceName": "contracts/RefNet.sol",
  "abi": [
    {
      "inputs": [
        {
          "internalType": "address",
          "name": "token",
          "type": "address"
        }
      ],
      "stateMutability": "nonpayable",
      "type": "constructor"
    },
    {
      "inputs": [
        {
          "internalType": "address",
          "name": "target",
          "type": "address"
        }
      ],
      "name": "AddressEmptyCode",
      "type": "error"
    },
    {
      "inputs": [
        {
          "internalType": "address",
          "name": "implementation",
          "type": "address"
        }
      ],
      "name": "ERC1967InvalidImplementation",
      "type": "error"
    },
    {
      "inputs": [],
      "name": "ERC1967NonPayable",
      "type": "error"
    },
    {
      "inputs": [],
      "name": "FailedCall",
      "type": "error"
    },
    {
      "inputs": [
        {
          "internalType": "address",
          "name": "owner",
          "type": "address"
        }
      ],
      "name": "OwnableInvalidOwner",
      "type": "error"
    },
    {
      "inputs": [
        {
          "internalType": "address",
          "name": "account",
          "type": "address"
        }
      ],
      "name": "OwnableUnauthorizedAccount",
      "type": "error"
    },
    {
      "inputs": [],
      "name": "UUPSUnauthorizedCallContext",
      "type": "error"
    },
    {
      "inputs": [
        {
          "internalType": "bytes32",
          "name": "slot",
          "type": "bytes32"
        }
      ],
      "name": "UUPSUnsupportedProxiableUUID",
      "type": "error"
    },
    {
      "anonymous": false,
      "inputs": [
        {
          "indexed": true,
          "internalType": "address",
          "name": "account",
          "type": "address"
        },
        {
          "indexed": true,
          "internalType": "bytes32",
          "name": "parentHash",
          "type": "bytes32"
        }
      ],
      "name": "EndurioAttach",
      "type": "event"
    },
    {
      "anonymous": false,
      "inputs": [
        {
          "indexed": true,
          "internalType": "address",
          "name": "previousOwner",
          "type": "address"
        },
        {
          "indexed": true,
          "internalType": "address",
          "name": "newOwner",
          "type": "address"
        }
      ],
      "name": "OwnershipTransferStarted",
      "type": "event"
    },
    {
      "anonymous": false,
      "inputs": [
        {
          "indexed": true,
          "internalType": "address",
          "name": "previousOwner",
          "type": "address"
        },
        {
          "indexed": true,
          "internalType": "address",
          "name": "newOwner",
          "type": "address"
        }
      ],
      "name": "OwnershipTransferred",
      "type": "event"
    },
    {
      "anonymous": false,
      "inputs": [
        {
          "indexed": true,
          "internalType": "address",
          "name": "implementation",
          "type": "address"
        }
      ],
      "name": "Upgraded",
      "type": "event"
    },
    {
      "inputs": [],
      "name": "TOKEN",
      "outputs": [
        {
          "internalType": "address",
          "name": "",
          "type": "address"
        }
      ],
      "stateMutability": "view",
      "type": "function"
    },
    {
      "inputs": [],
      "name": "UPGRADE_INTERFACE_VERSION",
      "outputs": [
        {
          "internalType": "string",
          "name": "",
          "type": "string"
        }
      ],
      "stateMutability": "view",
      "type": "function"
    },
    {
      "inputs": [],
      "name": "acceptOwnership",
      "outputs": [],
      "stateMutability": "nonpayable",
      "type": "function"
    },
    {
      "inputs": [
        {
          "internalType": "address",
          "name": "parent",
          "type": "address"
        }
      ],
      "name": "endurioAttach",
      "outputs": [],
      "stateMutability": "nonpayable",
      "type": "function"
    },
    {
      "inputs": [],
      "name": "owner",
      "outputs": [
        {
          "internalType": "address",
          "name": "",
          "type": "address"
        }
      ],
      "stateMutability": "view",
      "type": "function"
    },
    {
      "inputs": [],
      "name": "pendingOwner",
      "outputs": [
        {
          "internalType": "address",
          "name": "",
          "type": "address"
        }
      ],
      "stateMutability": "view",
      "type": "function"
    },
    {
      "inputs": [],
      "name": "proxiableUUID",
      "outputs": [
        {
          "internalType": "bytes32",
          "name": "",
          "type": "bytes32"
        }
      ],
      "stateMutability": "view",
      "type": "function"
    },
    {
      "inputs": [],
      "name": "renounceOwnership",
      "outputs": [],
      "stateMutability": "nonpayable",
      "type": "function"
    },
    {
      "inputs": [
        {
          "internalType": "address",
          "name": "",
          "type": "address"
        }
      ],
      "name": "s_levels",
      "outputs": [
        {
          "internalType": "uint256",
          "name": "",
          "type": "uint256"
        }
      ],
      "stateMutability": "view",
      "type": "function"
    },
    {
      "inputs": [
        {
          "internalType": "address",
          "name": "",
          "type": "address"
        }
      ],
      "name": "s_nodes",
      "outputs": [
        {
          "internalType": "address",
          "name": "parent",
          "type": "address"
        },
        {
          "internalType": "uint64",
          "name": "rent",
          "type": "uint64"
        },
        {
          "internalType": "uint32",
          "name": "expiry",
          "type": "uint32"
        }
      ],
      "stateMutability": "view",
      "type": "function"
    },
    {
      "inputs": [
        {
          "internalType": "address",
          "name": "newOwner",
          "type": "address"
        }
      ],
      "name": "transferOwnership",
      "outputs": [],
      "stateMutability": "nonpayable",
      "type": "function"
    },
    {
      "inputs": [
        {
          "internalType": "address",
          "name": "newImplementation",
          "type": "address"
        },
        {
          "internalType": "bytes",
          "name": "data",
          "type": "bytes"
        }
      ],
      "name": "upgradeToAndCall",
      "outputs": [],
      "stateMutability": "payable",
      "type": "function"
    }
  ],
  "bytecode": "0x60c03461010d57601f610f3c38819003918201601f19168301916001600160401b038311848410176101125780849260209460405283398101031261010d57516001600160a01b038116810361010d573060805230156100f757600180546001600160a01b03199081169091556000805430928116831782556001600160a01b031690600080516020610f1c8339815191529080a3600180546001600160a01b0319908116909155600080549182168155906001600160a01b0316600080516020610f1c8339815191528280a360a052604051610df390816101298239608051818181610608015261072a015260a0518161038b0152f35b631e4fbdf760e01b600052600060045260246000fd5b600080fd5b634e487b7160e01b600052604160045260246000fdfe608080604052600436101561001357600080fd5b60003560e01c9081634c91f4ff146109f1575080634f1ef2861461068257806352d1902d146105c2578063715018a6146104fe57806377c0337b146104bd57806379ba5097146103af57806382bfefc8146103405780638da5cb5b146102ee578063ad3cb1cc1461021e578063c5da2994146101b9578063e30c3978146101675763f2fde38b146100a357600080fd5b346101625760207ffffffffffffffffffffffffffffffffffffffffffffffffffffffffffffffffc3601126101625773ffffffffffffffffffffffffffffffffffffffff6100ef610a85565b6100f7610d28565b16807fffffffffffffffffffffffff0000000000000000000000000000000000000000600154161760015573ffffffffffffffffffffffffffffffffffffffff600054167f38d16b8cac22d99fc7c124b9cd0de2d3fa1faef420bfe791d8c362d765e22700600080a3005b600080fd5b346101625760007ffffffffffffffffffffffffffffffffffffffffffffffffffffffffffffffffc36011261016257602073ffffffffffffffffffffffffffffffffffffffff60015416604051908152f35b346101625760207ffffffffffffffffffffffffffffffffffffffffffffffffffffffffffffffffc3601126101625773ffffffffffffffffffffffffffffffffffffffff610205610a85565b1660005260026020526020604060002054604051908152f35b346101625760007ffffffffffffffffffffffffffffffffffffffffffffffffffffffffffffffffc36011261016257604080519061025c8183610aa8565b600582527f352e302e300000000000000000000000000000000000000000000000000000006020830152805180926020825280519081602084015260005b8281106102d75750506000828201840152601f017fffffffffffffffffffffffffffffffffffffffffffffffffffffffffffffffe0168101030190f35b60208282018101518783018701528694500161029a565b346101625760007ffffffffffffffffffffffffffffffffffffffffffffffffffffffffffffffffc36011261016257602073ffffffffffffffffffffffffffffffffffffffff60005416604051908152f35b346101625760007ffffffffffffffffffffffffffffffffffffffffffffffffffffffffffffffffc36011261016257602060405173ffffffffffffffffffffffffffffffffffffffff7f0000000000000000000000000000000000000000000000000000000000000000168152f35b346101625760007ffffffffffffffffffffffffffffffffffffffffffffffffffffffffffffffffc360112610162573373ffffffffffffffffffffffffffffffffffffffff600154160361048f577fffffffffffffffffffffffff000000000000000000000000000000000000000060015416600155600054337fffffffffffffffffffffffff000000000000000000000000000000000000000082161760005573ffffffffffffffffffffffffffffffffffffffff3391167f8be0079c531659141344cd1fd0a4f28419497f9722a3daafe3b4186f6b6457e0600080a3005b7f118cdaa7000000000000000000000000000000000000000000000000000000006000523360045260246000fd5b346101625760207ffffffffffffffffffffffffffffffffffffffffffffffffffffffffffffffffc360112610162576104fc6104f7610a85565b610b52565b005b346101625760007ffffffffffffffffffffffffffffffffffffffffffffffffffffffffffffffffc36011261016257610535610d28565b7fffffffffffffffffffffffff000000000000000000000000000000000000000060015416600155600073ffffffffffffffffffffffffffffffffffffffff81547fffffffffffffffffffffffff000000000000000000000000000000000000000081168355167f8be0079c531659141344cd1fd0a4f28419497f9722a3daafe3b4186f6b6457e08280a3005b346101625760007ffffffffffffffffffffffffffffffffffffffffffffffffffffffffffffffffc3601126101625773ffffffffffffffffffffffffffffffffffffffff7f00000000000000000000000000000000000000000000000000000000000000001630036106585760206040517f360894a13ba1a3210667c828492db98dca3e2076cc3735a920a3ca505d382bbc8152f35b7fe07c8dba0000000000000000000000000000000000000000000000000000000060005260046000fd5b60407ffffffffffffffffffffffffffffffffffffffffffffffffffffffffffffffffc360112610162576106b4610a85565b6024359067ffffffffffffffff82116101625736602383011215610162578160040135906106e182610b18565b916106ef6040519384610aa8565b80835260208301933660248383010111610162578160009260246020930187378401015273ffffffffffffffffffffffffffffffffffffffff7f0000000000000000000000000000000000000000000000000000000000000000168030149081156109af575b5061065857610762610d28565b73ffffffffffffffffffffffffffffffffffffffff8116926040517f52d1902d000000000000000000000000000000000000000000000000000000008152602081600481885afa6000918161097b575b506107e557847f4c9c8ce30000000000000000000000000000000000000000000000000000000060005260045260246000fd5b807f360894a13ba1a3210667c828492db98dca3e2076cc3735a920a3ca505d382bbc86920361094e5750823b1561092157807fffffffffffffffffffffffff00000000000000000000000000000000000000007f360894a13ba1a3210667c828492db98dca3e2076cc3735a920a3ca505d382bbc5416177f360894a13ba1a3210667c828492db98dca3e2076cc3735a920a3ca505d382bbc557fbc7cd75a20ee27fd9adebab32041f755214dbc6bffa90cc0225b39da2e5c2d3b600080a28251156108ed57600080916104fc945190845af43d156108e5573d916108c883610b18565b926108d66040519485610aa8565b83523d6000602085013e610d49565b606091610d49565b505050346108f757005b7fb398979f0000000000000000000000000000000000000000000000000000000060005260046000fd5b7f4c9c8ce30000000000000000000000000000000000000000000000000000000060005260045260246000fd5b7faa1d49a40000000000000000000000000000000000000000000000000000000060005260045260246000fd5b9091506020813d6020116109a7575b8161099760209383610aa8565b81010312610162575190866107b2565b3d915061098a565b905073ffffffffffffffffffffffffffffffffffffffff7f360894a13ba1a3210667c828492db98dca3e2076cc3735a920a3ca505d382bbc5416141584610755565b346101625760207ffffffffffffffffffffffffffffffffffffffffffffffffffffffffffffffffc3601126101625760609073ffffffffffffffffffffffffffffffffffffffff610a40610a85565b16600052600360205260406000205473ffffffffffffffffffffffffffffffffffffffff8116825267ffffffffffffffff8160a01c16602083015260e01c6040820152f35b6004359073ffffffffffffffffffffffffffffffffffffffff8216820361016257565b90601f7fffffffffffffffffffffffffffffffffffffffffffffffffffffffffffffffe0910116810190811067ffffffffffffffff821117610ae957604052565b7f4e487b7100000000000000000000000000000000000000000000000000000000600052604160045260246000fd5b67ffffffffffffffff8111610ae957601f017fffffffffffffffffffffffffffffffffffffffffffffffffffffffffffffffe01660200190565b336000526002602052604060002054610cca5760405160208101907fffffffffffffffffffffffffffffffffffffffff00000000000000000000000073ffffffffffffffffffffffffffffffffffffffff84169360601b16825260148152610bbb603482610aa8565b5190209060405191337f9513c673ec6d0226899bf32b1d9237890379052bdd8ba03a6db8af85c09a34d1600080a38015610cb5576000526002602052604060002054908115610c59575060018101809111610c2a57336000526002602052604060002055336000526003602052565b7f4e487b7100000000000000000000000000000000000000000000000000000000600052601160045260246000fd5b807f08c379a0000000000000000000000000000000000000000000000000000000006064925260206004820152601660248201527f5265664e65743a20494e56414c49445f504152454e54000000000000000000006044820152fd5b50503360005260026020526001604060002055565b60646040517f08c379a000000000000000000000000000000000000000000000000000000000815260206004820152601860248201527f5265664e65743a20414c52454144595f415454414348454400000000000000006044820152fd5b73ffffffffffffffffffffffffffffffffffffffff60005416330361048f57565b90610d885750805115610d5e57805190602001fd5b7fd6bda2750000000000000000000000000000000000000000000000000000000060005260046000fd5b81511580610ddd575b610d99575090565b73ffffffffffffffffffffffffffffffffffffffff907f9996b315000000000000000000000000000000000000000000000000000000006000521660045260246000fd5b50803b15610d9156fea164736f6c634300081c000a8be0079c531659141344cd1fd0a4f28419497f9722a3daafe3b4186f6b6457e0",
  "linkReferences": {},
  "deployedLinkReferences": {}
}