{
  "_format": "hh-sol-artifact-1",
  "contractName": "PoR",
  "sourceName": "contracts/PoR.sol",
  "abi": [
    {
      "inputs": [
        {
          "internalType": "address",
          "name": "token",
          "type": "address"
        },
        {
          "internalType": "address",
          "name": "vault",
          "type": "address"
        },
        {
          "internalType": "uint256",
          "name": "slot",
          "type": "uint256"
        },
        {
          "internalType": "uint256",
          "name": "submitTime",
          "type": "uint256"
        },
        {
          "internalType": "uint256",
          "name": "bountyTime",
          "type": "uint256"
        },
        {
          "internalType": "uint256",
          "name": "rewardStart",
          "type": "uint256"
        },
        {
          "internalType": "uint256",
          "name": "baseTarget",
          "type": "uint256"
        },
        {
          "internalType": "uint256",
          "name": "timeShift",
          "type": "uint256"
        }
      ],
      "stateMutability": "nonpayable",
      "type": "constructor"
    },
    {
      "inputs": [
        {
          "internalType": "address",
          "name": "target",
          "type": "address"
        }
      ],
      "name": "AddressEmptyCode",
      "type": "error"
    },
    {
      "inputs": [
        {
          "internalType": "address",
          "name": "implementation",
          "type": "address"
        }
      ],
      "name": "ERC1967InvalidImplementation",
      "type": "error"
    },
    {
      "inputs": [],
      "name": "ERC1967NonPayable",
      "type": "error"
    },
    {
      "inputs": [],
      "name": "FailedCall",
      "type": "error"
    },
    {
      "inputs": [
        {
          "internalType": "address",
          "name": "owner",
          "type": "address"
        }
      ],
      "name": "OwnableInvalidOwner",
      "type": "error"
    },
    {
      "inputs": [
        {
          "internalType": "address",
          "name": "account",
          "type": "address"
        }
      ],
      "name": "OwnableUnauthorizedAccount",
      "type": "error"
    },
    {
      "inputs": [],
      "name": "UUPSUnauthorizedCallContext",
      "type": "error"
    },
    {
      "inputs": [
        {
          "internalType": "bytes32",
          "name": "slot",
          "type": "bytes32"
        }
      ],
      "name": "UUPSUnsupportedProxiableUUID",
      "type": "error"
    },
    {
      "anonymous": false,
      "inputs": [
        {
          "indexed": true,
          "internalType": "address",
          "name": "miner",
          "type": "address"
        },
        {
          "indexed": true,
          "internalType": "bytes32",
          "name": "memoHash",
          "type": "bytes32"
        },
        {
          "indexed": true,
          "internalType": "bytes32",
          "name": "payerHash",
          "type": "bytes32"
        },
        {
          "indexed": false,
          "internalType": "uint256",
          "name": "slot",
          "type": "uint256"
        },
        {
          "indexed": false,
          "internalType": "uint256",
          "name": "amount",
          "type": "uint256"
        },
        {
          "indexed": false,
          "internalType": "address",
          "name": "recipient",
          "type": "address"
        }
      ],
      "name": "EndurioClaim",
      "type": "event"
    },
    {
      "anonymous": false,
      "inputs": [
        {
          "indexed": true,
          "internalType": "address",
          "name": "miner",
          "type": "address"
        },
        {
          "indexed": true,
          "internalType": "bytes32",
          "name": "memoHash",
          "type": "bytes32"
        },
        {
          "indexed": false,
          "internalType": "uint256",
          "name": "slot",
          "type": "uint256"
        },
        {
          "indexed": false,
          "internalType": "uint256",
          "name": "slotShare",
          "type": "uint256"
        }
      ],
      "name": "EndurioRelay",
      "type": "event"
    },
    {
      "anonymous": false,
      "inputs": [
        {
          "indexed": true,
          "internalType": "address",
          "name": "previousOwner",
          "type": "address"
        },
        {
          "indexed": true,
          "internalType": "address",
          "name": "newOwner",
          "type": "address"
        }
      ],
      "name": "OwnershipTransferStarted",
      "type": "event"
    },
    {
      "anonymous": false,
      "inputs": [
        {
          "indexed": true,
          "internalType": "address",
          "name": "previousOwner",
          "type": "address"
        },
        {
          "indexed": true,
          "internalType": "address",
          "name": "newOwner",
          "type": "address"
        }
      ],
      "name": "OwnershipTransferred",
      "type": "event"
    },
    {
      "anonymous": false,
      "inputs": [
        {
          "indexed": true,
          "internalType": "address",
          "name": "implementation",
          "type": "address"
        }
      ],
      "name": "Upgraded",
      "type": "event"
    },
    {
      "inputs": [],
      "name": "BASE_TARGET",
      "outputs": [
        {
          "internalType": "uint256",
          "name": "",
          "type": "uint256"
        }
      ],
      "stateMutability": "view",
      "type": "function"
    },
    {
      "inputs": [],
      "name": "BOUNTY_RATE",
      "outputs": [
        {
          "internalType": "uint256",
          "name": "",
          "type": "uint256"
        }
      ],
      "stateMutability": "view",
      "type": "function"
    },
    {
      "inputs": [],
      "name": "BOUNTY_TIME",
      "outputs": [
        {
          "internalType": "uint256",
          "name": "",
          "type": "uint256"
        }
      ],
      "stateMutability": "view",
      "type": "function"
    },
    {
      "inputs": [],
      "name": "EXP_W",
      "outputs": [
        {
          "internalType": "uint256",
          "name": "",
          "type": "uint256"
        }
      ],
      "stateMutability": "view",
      "type": "function"
    },
    {
      "inputs": [],
      "name": "MEMO_HASH",
      "outputs": [
        {
          "internalType": "bytes32",
          "name": "",
          "type": "bytes32"
        }
      ],
      "stateMutability": "view",
      "type": "function"
    },
    {
      "inputs": [],
      "name": "REWARD_HALVING_SLOT",
      "outputs": [
        {
          "internalType": "uint256",
          "name": "",
          "type": "uint256"
        }
      ],
      "stateMutability": "view",
      "type": "function"
    },
    {
      "inputs": [],
      "name": "REWARD_HALVING_SLOT_START",
      "outputs": [
        {
          "internalType": "uint256",
          "name": "",
          "type": "uint256"
        }
      ],
      "stateMutability": "view",
      "type": "function"
    },
    {
      "inputs": [],
      "name": "REWARD_START",
      "outputs": [
        {
          "internalType": "uint256",
          "name": "",
          "type": "uint256"
        }
      ],
      "stateMutability": "view",
      "type": "function"
    },
    {
      "inputs": [],
      "name": "SLOT",
      "outputs": [
        {
          "internalType": "uint256",
          "name": "",
          "type": "uint256"
        }
      ],
      "stateMutability": "view",
      "type": "function"
    },
    {
      "inputs": [],
      "name": "SLOT_REWARD_MAX",
      "outputs": [
        {
          "internalType": "uint256",
          "name": "",
          "type": "uint256"
        }
      ],
      "stateMutability": "view",
      "type": "function"
    },
    {
      "inputs": [],
      "name": "SLOT_REWARD_MIN",
      "outputs": [
        {
          "internalType": "uint256",
          "name": "",
          "type": "uint256"
        }
      ],
      "stateMutability": "view",
      "type": "function"
    },
    {
      "inputs": [],
      "name": "SUBMIT_TIME",
      "outputs": [
        {
          "internalType": "uint256",
          "name": "",
          "type": "uint256"
        }
      ],
      "stateMutability": "view",
      "type": "function"
    },
    {
      "inputs": [],
      "name": "SUBSIDY_RATE",
      "outputs": [
        {
          "internalType": "uint256",
          "name": "",
          "type": "uint256"
        }
      ],
      "stateMutability": "view",
      "type": "function"
    },
    {
      "inputs": [],
      "name": "TOKEN",
      "outputs": [
        {
          "internalType": "address",
          "name": "",
          "type": "address"
        }
      ],
      "stateMutability": "view",
      "type": "function"
    },
    {
      "inputs": [],
      "name": "UPGRADE_INTERFACE_VERSION",
      "outputs": [
        {
          "internalType": "string",
          "name": "",
          "type": "string"
        }
      ],
      "stateMutability": "view",
      "type": "function"
    },
    {
      "inputs": [],
      "name": "VAULT",
      "outputs": [
        {
          "internalType": "address",
          "name": "",
          "type": "address"
        }
      ],
      "stateMutability": "view",
      "type": "function"
    },
    {
      "inputs": [],
      "name": "acceptOwnership",
      "outputs": [],
      "stateMutability": "nonpayable",
      "type": "function"
    },
    {
      "inputs": [
        {
          "components": [
            {
              "internalType": "bytes32",
              "name": "memoHash",
              "type": "bytes32"
            },
            {
              "internalType": "uint256",
              "name": "slot",
              "type": "uint256"
            },
            {
              "internalType": "address",
              "name": "payer",
              "type": "address"
            },
            {
              "internalType": "address",
              "name": "recipient",
              "type": "address"
            }
          ],
          "internalType": "struct PoR.ParamClaim",
          "name": "params",
          "type": "tuple"
        }
      ],
      "name": "endurioClaim",
      "outputs": [],
      "stateMutability": "nonpayable",
      "type": "function"
    },
    {
      "inputs": [
        {
          "components": [
            {
              "internalType": "bytes",
              "name": "pubkey",
              "type": "bytes"
            },
            {
              "internalType": "bytes",
              "name": "header",
              "type": "bytes"
            },
            {
              "internalType": "uint32",
              "name": "merkleIndex",
              "type": "uint32"
            },
            {
              "internalType": "bytes",
              "name": "merkleProof",
              "type": "bytes"
            },
            {
              "internalType": "bytes4",
              "name": "version",
              "type": "bytes4"
            },
            {
              "internalType": "bytes4",
              "name": "locktime",
              "type": "bytes4"
            },
            {
              "internalType": "bytes",
              "name": "vin",
              "type": "bytes"
            },
            {
              "internalType": "bytes",
              "name": "vout",
              "type": "bytes"
            },
            {
              "internalType": "uint32",
              "name": "inputIndex",
              "type": "uint32"
            },
            {
              "internalType": "uint32",
              "name": "memoLength",
              "type": "uint32"
            },
            {
              "internalType": "uint32",
              "name": "pubkeyPos",
              "type": "uint32"
            }
          ],
          "internalType": "struct PoR.ParamSubmit",
          "name": "params",
          "type": "tuple"
        },
        {
          "components": [
            {
              "internalType": "bytes4",
              "name": "version",
              "type": "bytes4"
            },
            {
              "internalType": "bytes4",
              "name": "locktime",
              "type": "bytes4"
            },
            {
              "internalType": "bytes",
              "name": "vin",
              "type": "bytes"
            },
            {
              "internalType": "bytes",
              "name": "vout",
              "type": "bytes"
            },
            {
              "internalType": "uint32",
              "name": "pkhPos",
              "type": "uint32"
            }
          ],
          "internalType": "struct PoR.ParamOutpoint[]",
          "name": "outpoint",
          "type": "tuple[]"
        },
        {
          "components": [
            {
              "internalType": "bytes",
              "name": "header",
              "type": "bytes"
            },
            {
              "internalType": "uint32",
              "name": "merkleIndex",
              "type": "uint32"
            },
            {
              "internalType": "bytes",
              "name": "merkleProof",
              "type": "bytes"
            },
            {
              "internalType": "bytes4",
              "name": "version",
              "type": "bytes4"
            },
            {
              "internalType": "bytes4",
              "name": "locktime",
              "type": "bytes4"
            },
            {
              "internalType": "bytes",
              "name": "vin",
              "type": "bytes"
            },
            {
              "internalType": "bytes",
              "name": "vout",
              "type": "bytes"
            }
          ],
          "internalType": "struct PoR.ParamBounty[]",
          "name": "bounty",
          "type": "tuple[]"
        }
      ],
      "name": "endurioRelay",
      "outputs": [],
      "stateMutability": "nonpayable",
      "type": "function"
    },
    {
      "inputs": [],
      "name": "owner",
      "outputs": [
        {
          "internalType": "address",
          "name": "",
          "type": "address"
        }
      ],
      "stateMutability": "view",
      "type": "function"
    },
    {
      "inputs": [],
      "name": "pendingOwner",
      "outputs": [
        {
          "internalType": "address",
          "name": "",
          "type": "address"
        }
      ],
      "stateMutability": "view",
      "type": "function"
    },
    {
      "inputs": [],
      "name": "proxiableUUID",
      "outputs": [
        {
          "internalType": "bytes32",
          "name": "",
          "type": "bytes32"
        }
      ],
      "stateMutability": "view",
      "type": "function"
    },
    {
      "inputs": [],
      "name": "renounceOwnership",
      "outputs": [],
      "stateMutability": "nonpayable",
      "type": "function"
    },
    {
      "inputs": [
        {
          "internalType": "address",
          "name": "",
          "type": "address"
        }
      ],
      "name": "s_xp",
      "outputs": [
        {
          "internalType": "uint256",
          "name": "",
          "type": "uint256"
        }
      ],
      "stateMutability": "view",
      "type": "function"
    },
    {
      "inputs": [
        {
          "internalType": "address",
          "name": "newOwner",
          "type": "address"
        }
      ],
      "name": "transferOwnership",
      "outputs": [],
      "stateMutability": "nonpayable",
      "type": "function"
    },
    {
      "inputs": [
        {
          "internalType": "address",
          "name": "newImplementation",
          "type": "address"
        },
        {
          "internalType": "bytes",
          "name": "data",
          "type": "bytes"
        }
      ],
      "name": "upgradeToAndCall",
      "outputs": [],
      "stateMutability": "payable",
      "type": "function"
    }
  ],
  "bytecode": "0x6102006040523060805261070860e08190526202a30061010052610e1061012052600160f01b6101405260006101605261003d906307861f80610305565b6101805260e051610052906367748580610305565b6101a052683782dace9d900000006101c05234801561007057600080fd5b50604051615fcf380380615fcf83398101604081905261008f91610343565b30806100b657604051631e4fbdf760e01b8152600060048201526024015b60405180910390fd5b6100bf81610299565b506100ca6000610299565b6001600160a01b0388166101095760405162461bcd60e51b815260206004820152600660248201526510ba37b5b2b760d11b60448201526064016100ad565b6001600160a01b0387166101485760405162461bcd60e51b8152602060048201526006602482015265085d985d5b1d60d21b60448201526064016100ad565b600086116101805760405162461bcd60e51b8152602060048201526005602482015264085cdb1bdd60da1b60448201526064016100ad565b8585116101bd5760405162461bcd60e51b815260206004820152600b60248201526a217375626d697454696d6560a81b60448201526064016100ad565b600084116101fb5760405162461bcd60e51b815260206004820152600b60248201526a21626f756e747954696d6560a81b60448201526064016100ad565b600082116102395760405162461bcd60e51b815260206004820152600b60248201526a0858985cd955185c99d95d60aa1b60448201526064016100ad565b6001600160a01b0380891660a052871660c05260e08690526101008590526101208490526101608390526101408290526101e08190526102798682610305565b6101a05161028791906103af565b6101a052506103d69650505050505050565b600180546001600160a01b03191690556102b2816102b5565b50565b600080546001600160a01b038381166001600160a01b0319831681178455604051919092169283917f8be0079c531659141344cd1fd0a4f28419497f9722a3daafe3b4186f6b6457e09190a35050565b60008261032257634e487b7160e01b600052601260045260246000fd5b500490565b80516001600160a01b038116811461033e57600080fd5b919050565b600080600080600080600080610100898b03121561036057600080fd5b61036989610327565b975061037760208a01610327565b60408a015160608b015160808c015160a08d015160c08e015160e0909e01519c9f949e50929c919b909a509198509650945092505050565b808201808211156103d057634e487b7160e01b600052601160045260246000fd5b92915050565b60805160a05160c05160e05161010051610120516101405161016051610180516101a0516101c0516101e051615aea6104e56000396000613f9001526000818161053201526123cb0152600081816102900152818161426301526142900152600081816105b101526142be01526000818161047401526141a90152600081816102d901528181610f730152610ffa0152600081816104fe0152611c580152600081816103e10152613fc301526000818161036401528181613f6c01528181613fea015261414c01526000818161020a0152611f830152600081816103ad01528181611fb2015281816124d5015261254d0152600081816143030152818161432c015261454d0152615aea6000f3fe6080604052600436106101a15760003560e01c80637b216854116100e1578063ad3cb1cc1161008a578063de1f035c11610064578063de1f035c14610554578063e30c397814610574578063ec1dcb921461059f578063f2fde38b146105d357600080fd5b8063ad3cb1cc14610496578063c5d009c6146104ec578063d24bc55d1461052057600080fd5b80638da5cb5b116100bb5780638da5cb5b14610403578063a5faa7021461042e578063aa5486971461046257600080fd5b80637b216854146102fb57806382bfefc81461039b57806387658af5146103cf57600080fd5b806352d1902d1161014e5780635caa2af8116101285780635caa2af814610310578063715018a61461033d578063736e43cc1461035257806379ba50971461038657600080fd5b806352d1902d146102b257806354753982146102c757806357500c95146102fb57600080fd5b80634aab6ca51161017f5780634aab6ca5146102515780634f1ef2861461026b57806352ce758f1461027e57600080fd5b80630348124c146101a657806316123e85146101d6578063411557d1146101f8575b600080fd5b3480156101b257600080fd5b506101c36803782dace9d900000081565b6040519081526020015b60405180910390f35b3480156101e257600080fd5b506101f66101f136600461531e565b6105f3565b005b34801561020457600080fd5b5061022c7f000000000000000000000000000000000000000000000000000000000000000081565b60405173ffffffffffffffffffffffffffffffffffffffff90911681526020016101cd565b34801561025d57600080fd5b506101c365de0b6b3a764081565b6101f661027936600461541d565b6120a9565b34801561028a57600080fd5b506101c37f000000000000000000000000000000000000000000000000000000000000000081565b3480156102be57600080fd5b506101c36120c8565b3480156102d357600080fd5b506101c37f000000000000000000000000000000000000000000000000000000000000000081565b34801561030757600080fd5b506101c3602081565b34801561031c57600080fd5b506101c361032b366004615524565b60036020526000908152604090205481565b34801561034957600080fd5b506101f66120f7565b34801561035e57600080fd5b506101c37f000000000000000000000000000000000000000000000000000000000000000081565b34801561039257600080fd5b506101f661210b565b3480156103a757600080fd5b5061022c7f000000000000000000000000000000000000000000000000000000000000000081565b3480156103db57600080fd5b506101c37f000000000000000000000000000000000000000000000000000000000000000081565b34801561040f57600080fd5b5060005473ffffffffffffffffffffffffffffffffffffffff1661022c565b34801561043a57600080fd5b506101c37f022086784c27d04e67d08b0afbf4f0459c59a00094bd15dab852f4fa981d214781565b34801561046e57600080fd5b506101c37f000000000000000000000000000000000000000000000000000000000000000081565b3480156104a257600080fd5b506104df6040518060400160405280600581526020017f352e302e3000000000000000000000000000000000000000000000000000000081525081565b6040516101cd9190615563565b3480156104f857600080fd5b506101c37f000000000000000000000000000000000000000000000000000000000000000081565b34801561052c57600080fd5b506101c37f000000000000000000000000000000000000000000000000000000000000000081565b34801561056057600080fd5b506101f661056f3660046155b4565b612182565b34801561058057600080fd5b5060015473ffffffffffffffffffffffffffffffffffffffff1661022c565b3480156105ab57600080fd5b506101c37f000000000000000000000000000000000000000000000000000000000000000081565b3480156105df57600080fd5b506101f66105ee366004615524565b612736565b600061077f61064261060860208901896155cf565b8080601f0160208091040260200160405190810160405280939291908181526020018383808284376000920191909152506127e692505050565b60008190506008817eff00ff00ff00ff00ff00ff00ff00ff00ff00ff00ff00ff00ff00ff00ff00ff16901b600882901c7eff00ff00ff00ff00ff00ff00ff00ff00ff00ff00ff00ff00ff00ff00ff00ff161790506010817dffff0000ffff0000ffff0000ffff0000ffff0000ffff0000ffff0000ffff16901b601082901c7dffff0000ffff0000ffff0000ffff0000ffff0000ffff0000ffff0000ffff161790506020817bffffffff00000000ffffffff00000000ffffffff00000000ffffffff16901b602082901c7bffffffff00000000ffffffff00000000ffffffff00000000ffffffff1617905060408177ffffffffffffffff0000000000000000ffffffffffffffff16901b604082901c77ffffffffffffffff0000000000000000ffffffffffffffff16179050608081901b608082901c179050919050565b9050600060608315610fac576000806060806107db6107a160c08e018e6155cf565b8080601f0160208091040260200160405190810160405280939291908181526020018383808284376000920191909152506128c992505050565b815192955090935091508a14610852576040517f08c379a000000000000000000000000000000000000000000000000000000000815260206004820181905260248201527f626f756e74793a206f7574706f696e747320636f756e74206d69736d6174636860448201526064015b60405180910390fd5b60005b8251811015610aea576109b78c8c8381811061087357610873615634565b90506020028101906108859190615663565b6108939060208101906156a1565b8d8d848181106108a5576108a5615634565b90506020028101906108b79190615663565b6108c59060408101906155cf565b8080601f016020809104026020016040519081016040528093929190818152602001838380828437600081840152601f19601f820116905080830192505050505050508e8e8581811061091a5761091a615634565b905060200281019061092c9190615663565b61093a9060608101906155cf565b8080601f016020809104026020016040519081016040528093929190818152602001838380828437600081840152601f19601f820116905080830192505050505050508f8f8681811061098f5761098f615634565b90506020028101906109a19190615663565b6109b29060408101906020016156a1565b612b48565b8382815181106109c9576109c9615634565b602002602001015114610a38576040517f08c379a000000000000000000000000000000000000000000000000000000000815260206004820152601760248201527f626f756e74793a20696e70757473206d69736d617463680000000000000000006044820152606401610849565b610acc610ac7838381518110610a5057610a50615634565b60200260200101518e8e85818110610a6a57610a6a615634565b9050602002810190610a7c9190615663565b610a8a9060608101906155cf565b8080601f0160208091040260200160405190810160405280939291908181526020018383808284376000920191909152509293925050612b839050565b612e0b565b610ae09067ffffffffffffffff1686615712565b9450600101610855565b506000610c488a8a6000818110610b0357610b03615634565b9050602002810190610b159190615725565b610b269060808101906060016156a1565b8b8b6000818110610b3957610b39615634565b9050602002810190610b4b9190615725565b610b599060a08101906155cf565b8080601f016020809104026020016040519081016040528093929190818152602001838380828437600081840152601f19601f820116905080830192505050505050508c8c6000818110610baf57610baf615634565b9050602002810190610bc19190615725565b610bcf9060c08101906155cf565b8080601f016020809104026020016040519081016040528093929190818152602001838380828437600081840152601f19601f820116905080830192505050505050508d8d6000818110610c2557610c25615634565b9050602002810190610c379190615725565b6109b29060a08101906080016156a1565b9050602083600081518110610c5f57610c5f615634565b602002602001015182604051602001610c82929190918252602082015260400190565b6040516020818303038152906040528051906020012060001c610ca59190615788565b15610d0c576040517f08c379a000000000000000000000000000000000000000000000000000000000815260206004820152601e60248201527f626f756e74793a20756e61636365707461626c6520726563697069656e7400006044820152606401610849565b610e3381610d7c8c8c6000818110610d2657610d26615634565b9050602002810190610d389190615725565b610d4290806155cf565b8080601f016020809104026020016040519081016040528093929190818152602001838380828437600092019190915250612e8292505050565b8c8c6000818110610d8f57610d8f615634565b9050602002810190610da19190615725565b610daf9060408101906155cf565b8080601f016020809104026020016040519081016040528093929190818152602001838380828437600081840152601f19601f820116905080830192505050505050508d8d6000818110610e0557610e05615634565b9050602002810190610e179190615725565b610e2890604081019060200161579c565b63ffffffff16612e8f565b610e99576040517f08c379a000000000000000000000000000000000000000000000000000000000815260206004820152601c60248201527f626f756e74793a20696e76616c6964206d65726b6c652070726f6f66000000006044820152606401610849565b50610f6a9150610eae905060c08c018c6155cf565b9050610f0f610f0a7fffffffffffffffffffffffffffffffffffffffffffffffffffffffffffffffff8b8b6000818110610eea57610eea615634565b9050602002810190610efc9190615725565b610a8a9060c08101906155cf565b612ec2565b805190602001208484898f8060e00190610f2991906155cf565b8080601f016020809104026020016040519081016040528093929190818152602001838380828437600092019190915250929796959493925050612ef69050565b94509250610f997f000000000000000000000000000000000000000000000000000000000000000060026157c2565b610fa390856157c2565b9350505061101c565b610ff6610fbc60e08a018a6155cf565b8080601f01602080910402602001604051908101604052809392919081815260200183838082843760009201919091525061344a92505050565b90507f000000000000000000000000000000000000000000000000000000000000000091505b60006110306101208a016101008b0161579c565b63ffffffff16905060006110888261104b60c08d018d6155cf565b8080601f016020809104026020016040519081016040528093929190818152602001838380828437600092019190915250929392505061368e9050565b9050600061109e6101608c016101408d0161579c565b63ffffffff1611156111a25760006110e46110c16101608d016101408e0161579c565b6110cc9060256157d9565b63ffffffff166021846138f49092919063ffffffff16565b905061112d6110f38c806155cf565b8080601f01602080910402602001604051908101604052809392919081815260200183838082843760009201919091525061398492505050565b80519060200120811461119c576040517f08c379a000000000000000000000000000000000000000000000000000000000815260206004820152601560248201527f7075626b6579206d69736d617463683a205032534800000000000000000000006044820152606401610849565b50611753565b604a81511015801561123157508060046021600184516111c291906157f5565b6111cc91906157f5565b6111d691906157f5565b815181106111e6576111e6615634565b6020910101517fff00000000000000000000000000000000000000000000000000000000000000167f2100000000000000000000000000000000000000000000000000000000000000145b156112dc57600061125e60046021845161124b91906157f5565b61125591906157f5565b839060216138f4565b905061126d6110f38c806155cf565b80519060200120811461119c576040517f08c379a000000000000000000000000000000000000000000000000000000000815260206004820152601660248201527f7075626b6579206d69736d617463683a205032504b48000000000000000000006044820152606401610849565b7f54a7e824f373257a8e97cc251e08041c2e042cf00fa33051e7ed3604fe21e84661130a82602460046138f4565b036113f257600061131c8260286139f0565b905061136561132b8c806155cf565b8080601f0160208091040260200160405190810160405280939291908181526020018383808284376000920191909152506139ff92505050565b7fffffffffffffffffffffffffffffffffffffffff00000000000000000000000082811691161461119c576040517f08c379a000000000000000000000000000000000000000000000000000000000815260206004820152601c60248201527f7075626b6579206d69736d617463683a20503253482d503257504b48000000006044820152606401610849565b87611459576040517f08c379a000000000000000000000000000000000000000000000000000000000815260206004820152600960248201527f216f7574706f696e7400000000000000000000000000000000000000000000006044820152606401610849565b60008690036116125760006115998a8a600081811061147a5761147a615634565b905060200281019061148c9190615663565b61149a9060208101906156a1565b8b8b60008181106114ad576114ad615634565b90506020028101906114bf9190615663565b6114cd9060408101906155cf565b8080601f016020809104026020016040519081016040528093929190818152602001838380828437600081840152601f19601f820116905080830192505050505050508c8c600081811061152357611523615634565b90506020028101906115359190615663565b6115439060608101906155cf565b8080601f016020809104026020016040519081016040528093929190818152602001838380828437600081840152601f19601f820116905080830192505050505050508d8d600081811061098f5761098f615634565b90506115a482613ad7565b811461160c576040517f08c379a000000000000000000000000000000000000000000000000000000000815260206004820152601160248201527f6f7574706f696e74206d69736d617463680000000000000000000000000000006044820152606401610849565b60009250505b600061164661162083613ae4565b60d881901c63ff00ff001662ff00ff60e89290921c9190911617601081811b91901c1790565b63ffffffff1690506000611666828c8c87818110610a6a57610a6a615634565b905060006116b360006116ad848f8f8a81811061168557611685615634565b90506020028101906116979190615663565b6116a89060a081019060800161579c565b613af1565b906139f0565b90506116c261132b8e806155cf565b7fffffffffffffffffffffffffffffffffffffffff00000000000000000000000082811691161461174f576040517f08c379a000000000000000000000000000000000000000000000000000000000815260206004820152601760248201527f7075626b6579206d69736d617463683a20503257504b480000000000000000006044820152606401610849565b5050505b5060009050806117a361176960208c018c6155cf565b8080601f016020809104026020016040519081016040528093929190818152602001838380828437600092019190915250613b9492505050565b905085156118975760006117df888860008181106117c3576117c3615634565b90506020028101906117d59190615725565b61176990806155cf565b9050806118176106428a8a60008181106117fb576117fb615634565b905060200281019061180d9190615725565b61060890806155cf565b111561187f576040517f08c379a000000000000000000000000000000000000000000000000000000000815260206004820152601960248201527f626f756e74793a20696e73756666696369656e7420776f726b000000000000006044820152606401610849565b8181101561189557611892858284613ba1565b94505b505b60006118ba846118af6101408e016101208f0161579c565b63ffffffff16613c71565b909350905060018111156119e857600086611920600060208f80600001906118e291906155cf565b8080601f016020809104026020016040519081016040528093929190818152602001838380828437600092019190915250929493925050613e739050565b604051602001611931929190615808565b604080517fffffffffffffffffffffffffffffffffffffffffffffffffffffffffffffffe0818403018152919052805160209091012090506119738282615788565b156119da576040517f08c379a000000000000000000000000000000000000000000000000000000000815260206004820152601260248201527f782d6d696e653a20696e656c696769626c6500000000000000000000000000006044820152606401610849565b6119e482876157c2565b9550505b81861115611a52576040517f08c379a000000000000000000000000000000000000000000000000000000000815260206004820152601160248201527f696e73756666696369656e7420776f726b0000000000000000000000000000006044820152606401610849565b611a5c828661582e565b945060009150611b1c9050611a7760a08c0160808d016156a1565b611a8460c08d018d6155cf565b8080601f016020809104026020016040519081016040528093929190818152602001838380828437600092019190915250611ac69250505060e08e018e6155cf565b8080601f016020809104026020016040519081016040528093929190818152602001838380828437600081840152601f19601f820116905080830192505050505050508d60a00160208101906109b291906156a1565b9050611b9581611b32610d4260208e018e6155cf565b611b3f60608e018e6155cf565b8080601f016020809104026020016040519081016040528093929190818152602001838380828437600081840152601f19601f820116905080830192505050505050508d6040016020810190610e28919061579c565b611bfb576040517f08c379a000000000000000000000000000000000000000000000000000000000815260206004820152601460248201527f696e76616c6964206d65726b6c652070726f6f660000000000000000000000006044820152606401610849565b506000611c48611c0e60208c018c6155cf565b8080601f016020809104026020016040519081016040528093929190818152602001838380828437600092019190915250613f5a92505050565b63ffffffff1690508515611d21577f0000000000000000000000000000000000000000000000000000000000000000611ca988886000818110611c8d57611c8d615634565b9050602002810190611c9f9190615725565b611c0e90806155cf565b611cb99063ffffffff16836157f5565b1115611d21576040517f08c379a000000000000000000000000000000000000000000000000000000000815260206004820152601560248201527f626f756e74793a20626c6f636b20746f6f206f6c6400000000000000000000006044820152606401610849565b6000611d2c82613f68565b9050611d3781613fbf565b611d9d576040517f08c379a000000000000000000000000000000000000000000000000000000000815260206004820152600860248201527f746f6f206c6174650000000000000000000000000000000000000000000000006044820152606401610849565b6000611dbe611db9600060408f80600001906118e291906155cf565b61401b565b905073ffffffffffffffffffffffffffffffffffffffff8116611e3d576040517f08c379a000000000000000000000000000000000000000000000000000000000815260206004820152600660248201527f216d696e657200000000000000000000000000000000000000000000000000006044820152606401610849565b6000828152600260209081526040808320878452825280832073ffffffffffffffffffffffffffffffffffffffff8516845290915290205415611edc576040517f08c379a000000000000000000000000000000000000000000000000000000000815260206004820152600960248201527f7375626d697474656400000000000000000000000000000000000000000000006044820152606401610849565b6000828152600260209081526040808320878452825280832073ffffffffffffffffffffffffffffffffffffffff851684529091528082208890558180528120549003612012576000611f2f83866140ba565b90506000611f3e60208361582e565b9050801561200f576040517f40c10f1900000000000000000000000000000000000000000000000000000000815273ffffffffffffffffffffffffffffffffffffffff7f000000000000000000000000000000000000000000000000000000000000000081166004830152602482018390527f000000000000000000000000000000000000000000000000000000000000000016906340c10f1990604401600060405180830381600087803b158015611ff657600080fd5b505af115801561200a573d6000803e3d6000fd5b505050505b50505b6000828152600260209081526040808320878452825280832083805290915281208054889290612043908490615712565b90915550506040805183815260208101889052859173ffffffffffffffffffffffffffffffffffffffff8416917fbc7d383af4b9c8305da23f3f091ffcbc41ac1334003e86385a9415a75a233307910160405180910390a3505050505050505050505050565b6120b16142eb565b6120ba826143ef565b6120c482826143f7565b5050565b60006120d2614535565b507f360894a13ba1a3210667c828492db98dca3e2076cc3735a920a3ca505d382bbc90565b6120ff6145a4565b61210960006145f7565b565b600154339073ffffffffffffffffffffffffffffffffffffffff168114612176576040517f118cdaa700000000000000000000000000000000000000000000000000000000815273ffffffffffffffffffffffffffffffffffffffff82166004820152602401610849565b61217f816145f7565b50565b602081013561219081613fbf565b156121f7576040517f08c379a000000000000000000000000000000000000000000000000000000000815260206004820152600860248201527f746f6f20736f6f6e0000000000000000000000000000000000000000000000006044820152606401610849565b60008181526002602090815260408083208535845282528083203380855292529091205480612282576040517f08c379a000000000000000000000000000000000000000000000000000000000815260206004820152600760248201527f636c61696d6564000000000000000000000000000000000000000000000000006044820152606401610849565b60008381526002602090815260408083208735845282528083208380529091529020548061230c576040517f08c379a000000000000000000000000000000000000000000000000000000000815260206004820152600660248201527f21746f74616c00000000000000000000000000000000000000000000000000006044820152606401610849565b60006123198587356140ba565b90506000612328828585613ba1565b905060008111612394576040517f08c379a000000000000000000000000000000000000000000000000000000000815260206004820152600760248201527f21726577617264000000000000000000000000000000000000000000000000006044820152606401610849565b73ffffffffffffffffffffffffffffffffffffffff85166000908152600360205260409020546123ef6123c860028461582e565b827f0000000000000000000000000000000000000000000000000000000000000000614628565b6123f990836157f5565b9150612425837fffffffffffffffffffffffffffffffffffffffffffffffffffffffffffffffff6157f5565b811161245c576124358382615712565b73ffffffffffffffffffffffffffffffffffffffff87166000908152600360205260409020555b600061246e60808a0160608b01615524565b73ffffffffffffffffffffffffffffffffffffffff1603612536576040517f40c10f1900000000000000000000000000000000000000000000000000000000815273ffffffffffffffffffffffffffffffffffffffff8781166004830152602482018490527f000000000000000000000000000000000000000000000000000000000000000016906340c10f1990604401600060405180830381600087803b15801561251957600080fd5b505af115801561252d573d6000803e3d6000fd5b50505050612608565b73ffffffffffffffffffffffffffffffffffffffff7f0000000000000000000000000000000000000000000000000000000000000000166340c10f1961258260808b0160608c01615524565b6040517fffffffff0000000000000000000000000000000000000000000000000000000060e084901b16815273ffffffffffffffffffffffffffffffffffffffff909116600482015260248101859052604401600060405180830381600087803b1580156125ef57600080fd5b505af1158015612603573d6000803e3d6000fd5b505050505b60008781526002602090815260408083208b358452825280832073ffffffffffffffffffffffffffffffffffffffff8a168452909152808220919091556126559060608a01908a01615524565b604051602001612690919060609190911b7fffffffffffffffffffffffffffffffffffffffff00000000000000000000000016815260140190565b6040516020818303038152906040528051906020012088600001358773ffffffffffffffffffffffffffffffffffffffff167f41e1dac3324678ffde2b967866fdf3b5aa8dbdb20be705eb41376ba3e5adc0d68a868d60600160208101906126f89190615524565b60408051938452602084019290925273ffffffffffffffffffffffffffffffffffffffff169082015260600160405180910390a45050505050505050565b61273e6145a4565b6001805473ffffffffffffffffffffffffffffffffffffffff83167fffffffffffffffffffffffff000000000000000000000000000000000000000090911681179091556127a160005473ffffffffffffffffffffffffffffffffffffffff1690565b73ffffffffffffffffffffffffffffffffffffffff167f38d16b8cac22d99fc7c124b9cd0de2d3fa1faef420bfe791d8c362d765e2270060405160405180910390a350565b6000600280836040516127f99190615842565b602060405180830381855afa158015612816573d6000803e3d6000fd5b5050506040513d601f19601f820116820180604052508101906128399190615854565b60405160200161284b91815260200190565b604080517fffffffffffffffffffffffffffffffffffffffffffffffffffffffffffffffe08184030181529082905261288391615842565b602060405180830381855afa1580156128a0573d6000803e3d6000fd5b5050506040513d601f19601f820116820180604052508101906128c39190615854565b92915050565b60006060806000806128da8661466e565b90925090506001820161296f576040517f08c379a000000000000000000000000000000000000000000000000000000000815260206004820152602260248201527f52656164206f76657272756e20647572696e6720566172496e7420706172736960448201527f6e670000000000000000000000000000000000000000000000000000000000006064820152608401610849565b606060008061297f856001615712565b90508367ffffffffffffffff81111561299a5761299a6153ee565b6040519080825280602002602001820160405280156129c3578160200160208202803683370190505b5096508367ffffffffffffffff8111156129df576129df6153ee565b604051908082528060200260200182016040528015612a08578160200160208202803683370190505b50955060005b84811015612b3b57612a2f82838c51612a2791906157f5565b8c9190613e73565b9350612a3a84614685565b92507fffffffffffffffffffffffffffffffffffffffffffffffffffffffffffffffff8303612ac5576040517f08c379a000000000000000000000000000000000000000000000000000000000815260206004820152601760248201527f42616420566172496e7420696e207363726970745369670000000000000000006044820152606401610849565b80600003612ad1578298505b612adb8383615712565b9150612ae684613ad7565b888281518110612af857612af8615634565b602002602001018181525050612b1061162085613ae4565b63ffffffff16878281518110612b2857612b28615634565b6020908102919091010152600101612a0e565b5050505050509193909250565b6000612b7885858585604051602001612b64949392919061586d565b604051602081830303815290604052614692565b90505b949350505050565b6060600080612b918561466e565b909250905060018201612c26576040517f08c379a000000000000000000000000000000000000000000000000000000000815260206004820152602260248201527f52656164206f76657272756e20647572696e6720566172496e7420706172736960448201527f6e670000000000000000000000000000000000000000000000000000000000006064820152608401610849565b808410612c3257928301925b808410612c9b576040517f08c379a000000000000000000000000000000000000000000000000000000000815260206004820152601160248201527f566f75742072656164206f76657272756e0000000000000000000000000000006044820152606401610849565b600080612ca9846001615712565b905060005b86811015612d5f57612cc088836146b9565b92507fffffffffffffffffffffffffffffffffffffffffffffffffffffffffffffffff8303612d4b576040517f08c379a000000000000000000000000000000000000000000000000000000000815260206004820152601a60248201527f42616420566172496e7420696e207363726970745075626b65790000000000006044820152606401610849565b612d558383615712565b9150600101612cae565b50612d6a87826146b9565b91507fffffffffffffffffffffffffffffffffffffffffffffffffffffffffffffffff8203612df5576040517f08c379a000000000000000000000000000000000000000000000000000000000815260206004820152601a60248201527f42616420566172496e7420696e207363726970745075626b65790000000000006044820152606401610849565b612e00878284613e73565b979650505050505050565b600080612e1783614762565b60c01c90506000612b7b8264ff000000ff600882811c91821665ff000000ff009390911b92831617601090811b67ffffffffffffffff1666ff00ff00ff00ff9290921667ff00ff00ff00ff009093169290921790911c65ffff0000ffff1617602081811c91901b1790565b60448101516000906128c3565b60008385148015612e9e575081155b8015612ea957508251155b15612eb657506001612b7b565b612b788584868561476e565b6060600082600881518110612ed957612ed9615634565b016020015160f81c9050612eef83600983613e73565b9392505050565b60606000612f05600a85615712565b935087516008612f159190615712565b612f1f9088615712565b96507fffffffffffffffffffffffffffffffffffffffffffffffffffffffffffffffff600080612f4e8b61466e565b915091507fffffffffffffffffffffffffffffffffffffffffffffffffffffffffffffffff8203613001576040517f08c379a000000000000000000000000000000000000000000000000000000000815260206004820152602260248201527f52656164206f76657272756e20647572696e6720566172496e7420706172736960448201527f6e670000000000000000000000000000000000000000000000000000000000006064820152608401610849565b6002811161306b576040517f08c379a000000000000000000000000000000000000000000000000000000000815260206004820152601a60248201527f626f756e74793a206e6f7420656e6f756768206f7574707574730000000000006044820152606401610849565b613074826158f9565b915060005b818110156133bf5761309a83848e5161309291906157f5565b8e9190613e73565b9b506130a58c614818565b92507fffffffffffffffffffffffffffffffffffffffffffffffffffffffffffffffff8303613130576040517f08c379a000000000000000000000000000000000000000000000000000000000815260206004820152601a60248201527f42616420566172496e7420696e207363726970745075626b65790000000000006044820152606401610849565b600061313b8d612e0b565b67ffffffffffffffff169050613151818b6157f5565b995085600003613290578c60098151811061316e5761316e615634565b01602001517fff00000000000000000000000000000000000000000000000000000000000000167f6a000000000000000000000000000000000000000000000000000000000000000361328b57816131c76002856157f5565b6131d191906157f5565b9550600886111561323e576040517f08c379a000000000000000000000000000000000000000000000000000000000815260206004820152601b60248201527f626f756e74793a20746f6f206d616e7920726563697069656e747300000000006044820152606401610849565b81613249878a615788565b6132539190615712565b61325e906001615712565b9750613288600b8e600a8151811061327857613278615634565b01602001518f919060f81c613e73565b96505b6133b6565b61329b6001846157f5565b8210156133b657848110156132ae578094505b87820361333e576132be8d612ec2565b805190602001208b1461332d576040517f08c379a000000000000000000000000000000000000000000000000000000000815260206004820181905260248201527f626f756e74793a2073616d706c696e6720736372697074206d69736d617463686044820152606401610849565b613337848a615712565b98506133b6565b6133478d612ec2565b805190602001208b036133b6576040517f08c379a000000000000000000000000000000000000000000000000000000000815260206004820152601b60248201527f626f756e74793a206475706c696361746520726563697069656e7400000000006044820152606401610849565b50600101613079565b506133ca8a846157c2565b6133d4888a6157c2565b111561343c576040517f08c379a000000000000000000000000000000000000000000000000000000000815260206004820152601360248201527f626f756e74793a2064757374206f7574707574000000000000000000000000006044820152606401610849565b505050965096945050505050565b60606000806134588461466e565b915091507fffffffffffffffffffffffffffffffffffffffffffffffffffffffffffffffff820361350b576040517f08c379a000000000000000000000000000000000000000000000000000000000815260206004820152602260248201527f52656164206f76657272756e20647572696e6720566172496e7420706172736960448201527f6e670000000000000000000000000000000000000000000000000000000000006064820152608401610849565b6060600061351a846001615712565b905060005b83811015613684576135408283895161353891906157f5565b899190613e73565b92508260098151811061355557613555615634565b01602001517fff00000000000000000000000000000000000000000000000000000000000000167f6a00000000000000000000000000000000000000000000000000000000000000036135d957600083600a815181106135b7576135b7615634565b016020015160f81c90506135cd84600b83613e73565b98975050505050505050565b60006135e484614818565b90507fffffffffffffffffffffffffffffffffffffffffffffffffffffffffffffffff810361366f576040517f08c379a000000000000000000000000000000000000000000000000000000000815260206004820152601a60248201527f42616420566172496e7420696e207363726970745075626b65790000000000006044820152606401610849565b6136798184615712565b92505060010161351f565b5050505050919050565b606060008061369c8561466e565b909250905060018201613731576040517f08c379a000000000000000000000000000000000000000000000000000000000815260206004820152602260248201527f52656164206f76657272756e20647572696e6720566172496e7420706172736960448201527f6e670000000000000000000000000000000000000000000000000000000000006064820152608401610849565b80841061379a576040517f08c379a000000000000000000000000000000000000000000000000000000000815260206004820152601060248201527f56696e2072656164206f76657272756e000000000000000000000000000000006044820152606401610849565b6000806137a8846001615712565b905060005b8681101561385e576137bf8883614825565b92507fffffffffffffffffffffffffffffffffffffffffffffffffffffffffffffffff830361384a576040517f08c379a000000000000000000000000000000000000000000000000000000000815260206004820152601760248201527f42616420566172496e7420696e207363726970745369670000000000000000006044820152606401610849565b6138548383615712565b91506001016137ad565b506138698782614825565b91507fffffffffffffffffffffffffffffffffffffffffffffffffffffffffffffffff8203612df5576040517f08c379a000000000000000000000000000000000000000000000000000000000815260206004820152601760248201527f42616420566172496e7420696e207363726970745369670000000000000000006044820152606401610849565b6000806139018385615712565b90508381118015613913575080855110155b613979576040517f08c379a000000000000000000000000000000000000000000000000000000000815260206004820152601360248201527f536c696365206f7574206f6620626f756e6473000000000000000000000000006044820152606401610849565b505091016020012090565b6060600082603f8151811061399b5761399b615634565b60209101015160f81c6001908116146139b55760026139b8565b60035b9050806139c88460006020613e73565b6040516020016139d9929190615931565b604051602081830303815290604052915050919050565b6000612eef8383016020015190565b600080613a0b83613984565b90506003600282604051613a1f9190615842565b602060405180830381855afa158015613a3c573d6000803e3d6000fd5b5050506040513d601f19601f82011682018060405250810190613a5f9190615854565b604051602001613a7191815260200190565b604080517fffffffffffffffffffffffffffffffffffffffffffffffffffffffffffffffe081840301815290829052613aa991615842565b602060405180830381855afa158015613ac6573d6000803e3d6000fd5b50506040515160601b949350505050565b60208101516000906128c3565b60006128c38260206139f0565b606063ffffffff821615613b1c57613b158363ffffffff80851690601490613e7316565b90506128c3565b6000613b278461488c565b90508051601414612eef576040517f08c379a000000000000000000000000000000000000000000000000000000000815260206004820152601b60248201527f756e737570706f7274656420504b4820696e206f7574706f696e7400000000006044820152606401610849565b60006128c38260006148a6565b600080807fffffffffffffffffffffffffffffffffffffffffffffffffffffffffffffffff85870985870292508281108382030391505080600003613bf85760008411613bed57600080fd5b508290049050612eef565b808411613c0457600080fd5b6000848688096000868103871696879004966002600389028118808a02820302808a02820302808a02820302808a02820302808a02820302808a02909103029181900381900460010186841190950394909402919094039290920491909117919091029150509392505050565b6000806000845111613cdf576040517f08c379a000000000000000000000000000000000000000000000000000000000815260206004820152600760248201527f214f505f524554000000000000000000000000000000000000000000000000006044820152606401610849565b82600003613cf7575050815160208301206001613e6c565b8284511015613d62576040517f08c379a000000000000000000000000000000000000000000000000000000000815260206004820152601060248201527f4f4f423a206d656d6f206c656e677468000000000000000000000000000000006044820152606401610849565b613d6e846000856138f4565b9150613d7b836002615712565b8451118015613de25750838381518110613d9757613d97615634565b6020910101517fff00000000000000000000000000000000000000000000000000000000000000167f2000000000000000000000000000000000000000000000000000000000000000145b8015613e50575083613df5846001615712565b81518110613e0557613e05615634565b6020910101517fff00000000000000000000000000000000000000000000000000000000000000167f7800000000000000000000000000000000000000000000000000000000000000145b15613e6c57613e6984613e64856002615712565b614944565b90505b9250929050565b606081600003613e925750604080516020810190915260008152612eef565b6000613e9e8385615712565b90508381118015613eb0575080855110155b613f16576040517f08c379a000000000000000000000000000000000000000000000000000000000815260206004820152601360248201527f536c696365206f7574206f6620626f756e6473000000000000000000000000006044820152606401610849565b604051915082604083010160405282825283850182038460208701018481015b80821015613f4f57815183830152602082019150613f36565b505050509392505050565b60006128c3611620836149bb565b60007f0000000000000000000000000000000000000000000000000000000000000000613fb57f000000000000000000000000000000000000000000000000000000000000000084615712565b6128c3919061582e565b60007f000000000000000000000000000000000000000000000000000000000000000061401461400f7f0000000000000000000000000000000000000000000000000000000000000000856157c2565b6149c8565b1092915050565b600081516040146140ae576040517f08c379a000000000000000000000000000000000000000000000000000000000815260206004820152602d60248201527f5075626b6579206d7573742062652036342d62797465207261772c20756e636f60448201527f6d70726573736564206b65792e000000000000000000000000000000000000006064820152608401610849565b50805160209091012090565b60007f022086784c27d04e67d08b0afbf4f0459c59a00094bd15dab852f4fa981d21478214614145576040517f08c379a000000000000000000000000000000000000000000000000000000000815260206004820152601060248201527f6272616e64206e6f7420616374697665000000000000000000000000000000006044820152606401610849565b60006141747f00000000000000000000000000000000000000000000000000000000000000006201518061582e565b905060006007614184838761582e565b61418e919061582e565b9050600061419c8387615788565b65de0b6b3a7640945090507f00000000000000000000000000000000000000000000000000000000000000005b600c8110156142605760006141e282608086901b615712565b90506000816040516020016141f991815260200190565b604080517fffffffffffffffffffffffffffffffffffffffffffffffffffffffffffffffe0818403018152919052805160209091012090508361423c8783615788565b036142565750506803782dace9d9000000811c9450614260565b50506001016141c9565b507f00000000000000000000000000000000000000000000000000000000000000008611156142e25760006142b57f0000000000000000000000000000000000000000000000000000000000000000886157f5565b9050612e0085827f0000000000000000000000000000000000000000000000000000000000000000614628565b50505092915050565b3073ffffffffffffffffffffffffffffffffffffffff7f00000000000000000000000000000000000000000000000000000000000000001614806143b857507f000000000000000000000000000000000000000000000000000000000000000073ffffffffffffffffffffffffffffffffffffffff1661439f7f360894a13ba1a3210667c828492db98dca3e2076cc3735a920a3ca505d382bbc5473ffffffffffffffffffffffffffffffffffffffff1690565b73ffffffffffffffffffffffffffffffffffffffff1614155b15612109576040517fe07c8dba00000000000000000000000000000000000000000000000000000000815260040160405180910390fd5b61217f6145a4565b8173ffffffffffffffffffffffffffffffffffffffff166352d1902d6040518163ffffffff1660e01b8152600401602060405180830381865afa92505050801561447c575060408051601f3d9081017fffffffffffffffffffffffffffffffffffffffffffffffffffffffffffffffe016820190925261447991810190615854565b60015b6144ca576040517f4c9c8ce300000000000000000000000000000000000000000000000000000000815273ffffffffffffffffffffffffffffffffffffffff83166004820152602401610849565b7f360894a13ba1a3210667c828492db98dca3e2076cc3735a920a3ca505d382bbc8114614526576040517faa1d49a400000000000000000000000000000000000000000000000000000000815260048101829052602401610849565b61453083836149d4565b505050565b3073ffffffffffffffffffffffffffffffffffffffff7f00000000000000000000000000000000000000000000000000000000000000001614612109576040517fe07c8dba00000000000000000000000000000000000000000000000000000000815260040160405180910390fd5b60005473ffffffffffffffffffffffffffffffffffffffff163314612109576040517f118cdaa7000000000000000000000000000000000000000000000000000000008152336004820152602401610849565b600180547fffffffffffffffffffffffff000000000000000000000000000000000000000016905561217f81614a37565b6000614634828461582e565b9390931c926002826146468186615788565b61465090876157c2565b61465a919061582e565b614664919061582e565b612b7b90856157f5565b60008061467c836000614aac565b91509150915091565b60006128c3826000614825565b60006020600083516020850160025afa50602060006020600060025afa5050600051919050565b60006146c6826009615712565b835110156146f557507fffffffffffffffffffffffffffffffffffffffffffffffffffffffffffffffff6128c3565b60008061470c85614707866008615712565b614aac565b909250905060018201614743577fffffffffffffffffffffffffffffffffffffffffffffffffffffffffffffffff925050506128c3565b8061474f836009615712565b6147599190615712565b95945050505050565b60006128c382826139f0565b60006020845161477e9190615788565b1561478b57506000612b7b565b835160000361479c57506000612b7b565b818560005b865181101561480b576147b5600284615788565b6001036147d9576147d26147cc8883016020015190565b83614c47565b91506147f2565b6147ef826147ea8984016020015190565b614c47565b91505b60019290921c91614804602082615712565b90506147a1565b5090931495945050505050565b60006128c38260006146b9565b60008060006148348585614c53565b90925090506001820161486b577fffffffffffffffffffffffffffffffffffffffffffffffffffffffffffffffff925050506128c3565b80614877836025615712565b6148819190615712565b614759906004615712565b60606128c38260088085516148a191906157f5565b614cb3565b6000806148be6148b7846048615712565b85906139f0565b60e81c90506000846148d185604b615712565b815181106148e1576148e1615634565b016020015160f81c9050600061491583600060108262ffffff16901c8261ff001660108462ffffff16901b17179050919050565b62ffffff169050600061492960038461597c565b60ff16905061493a81610100615ab8565b612e0090836157c2565b6000815b83518110156149b457600084828151811061496557614965615634565b016020015160f81c9050603081108061497e5750603981115b1561498957506149b4565b6149946030826157f5565b61499f84600a6157c2565b6149a99190615712565b925050600101614948565b5092915050565b60006128c38260446139f0565b60006128c34283614fb8565b6149dd82614fd3565b60405173ffffffffffffffffffffffffffffffffffffffff8316907fbc7cd75a20ee27fd9adebab32041f755214dbc6bffa90cc0225b39da2e5c2d3b90600090a2805115614a2f5761453082826150a2565b6120c461511c565b6000805473ffffffffffffffffffffffffffffffffffffffff8381167fffffffffffffffffffffffff0000000000000000000000000000000000000000831681178455604051919092169283917f8be0079c531659141344cd1fd0a4f28419497f9722a3daafe3b4186f6b6457e09190a35050565b6000806000614abb8585615154565b90508060ff16600003614af0576000858581518110614adc57614adc615634565b016020015190935060f81c9150613e6c9050565b83614afc826001615ac4565b60ff16614b099190615712565b85511015614b3e577fffffffffffffffffffffffffffffffffffffffffffffffffffffffffffffffff60009250925050613e6c565b60008160ff16600203614b8257614b77614b63614b5c876001615712565b88906139f0565b62ffff0060e882901c1660f89190911c1790565b61ffff169050614c37565b8160ff16600403614bab57614b9e611620614b5c876001615712565b63ffffffff169050614c37565b8160ff16600803614c3757614c2a614bc7614b5c876001615712565b60c01c64ff000000ff600882811c91821665ff000000ff009390911b92831617601090811b67ffffffffffffffff1666ff00ff00ff00ff9290921667ff00ff00ff00ff009093169290921790911c65ffff0000ffff1617602081811c91901b1790565b67ffffffffffffffff1690505b60ff909116925090509250929050565b6000612eef83836151da565b600080614c61836025615712565b84511015614c9457507fffffffffffffffffffffffffffffffffffffffffffffffffffffffffffffffff90506000613e6c565b600080614ca686614707876024615712565b9097909650945050505050565b60606000848481518110614cc957614cc9615634565b016020015160f81c905082614cdf826001615ac4565b60ff1614614cfd575050604080516020810190915260008152612eef565b84614d09856001615712565b81518110614d1957614d19615634565b016020015160f81c600003614dd85760028160ff161015614d4a575050604080516020810190915260008152612eef565b600085614d58866002615712565b81518110614d6857614d68615634565b016020015160f81c9050614d7d60028361597c565b60ff1681141580614d9b575080602014158015614d9b575080601414155b15614db9576040518060200160405280600081525092505050612eef565b614dcf614dc7866003615712565b879083613e73565b92505050612eef565b6000614de486866139f0565b90507fffffff000000000000000000000000000000000000000000000000000000000081167f1976a9000000000000000000000000000000000000000000000000000000000003614ef85785614e3b866003615712565b81518110614e4b57614e4b615634565b60209101015160f81c6014141580614ec35750614e7e6002614e6d8688615712565b614e7791906157f5565b87906139f0565b7dffffffffffffffffffffffffffffffffffffffffffffffffffffffffffff19167f88ac00000000000000000000000000000000000000000000000000000000000014155b15614ee1576040518060200160405280600081525092505050612eef565b614dcf614eef866004615712565b87906014613e73565b7fffffff000000000000000000000000000000000000000000000000000000000081167f17a914000000000000000000000000000000000000000000000000000000000003614f9f57856001614f4e8688615712565b614f5891906157f5565b81518110614f6857614f68615634565b60209101015160f81c608714614f91576040518060200160405280600081525092505050612eef565b614dcf614eef866003615712565b5050506040805160208101909152600081529392505050565b6000818311614fc9575060006128c3565b612eef82846157f5565b8073ffffffffffffffffffffffffffffffffffffffff163b60000361503c576040517f4c9c8ce300000000000000000000000000000000000000000000000000000000815273ffffffffffffffffffffffffffffffffffffffff82166004820152602401610849565b7f360894a13ba1a3210667c828492db98dca3e2076cc3735a920a3ca505d382bbc80547fffffffffffffffffffffffff00000000000000000000000000000000000000001673ffffffffffffffffffffffffffffffffffffffff92909216919091179055565b60606000808473ffffffffffffffffffffffffffffffffffffffff16846040516150cc9190615842565b600060405180830381855af49150503d8060008114615107576040519150601f19603f3d011682016040523d82523d6000602084013e61510c565b606091505b5091509150614759858383615208565b3415612109576040517fb398979f00000000000000000000000000000000000000000000000000000000815260040160405180910390fd5b600082828151811061516857615168615634565b016020015160f81c60ff0361517f575060086128c3565b82828151811061519157615191615634565b016020015160f81c60fe036151a8575060046128c3565b8282815181106151ba576151ba615634565b016020015160f81c60fd036151d1575060026128c3565b50600092915050565b60008260005281602052602060006040600060025afa50602060006020600060025afa505060005192915050565b60608261521d5761521882615297565b612eef565b8151158015615241575073ffffffffffffffffffffffffffffffffffffffff84163b155b15615290576040517f9996b31500000000000000000000000000000000000000000000000000000000815273ffffffffffffffffffffffffffffffffffffffff85166004820152602401610849565b5080612eef565b8051156152a75780518082602001fd5b6040517fd6bda27500000000000000000000000000000000000000000000000000000000815260040160405180910390fd5b60008083601f8401126152eb57600080fd5b50813567ffffffffffffffff81111561530357600080fd5b6020830191508360208260051b8501011115613e6c57600080fd5b60008060008060006060868803121561533657600080fd5b853567ffffffffffffffff81111561534d57600080fd5b8601610160818903121561536057600080fd5b9450602086013567ffffffffffffffff81111561537c57600080fd5b615388888289016152d9565b909550935050604086013567ffffffffffffffff8111156153a857600080fd5b6153b4888289016152d9565b969995985093965092949392505050565b803573ffffffffffffffffffffffffffffffffffffffff811681146153e957600080fd5b919050565b7f4e487b7100000000000000000000000000000000000000000000000000000000600052604160045260246000fd5b6000806040838503121561543057600080fd5b615439836153c5565b9150602083013567ffffffffffffffff81111561545557600080fd5b8301601f8101851361546657600080fd5b803567ffffffffffffffff811115615480576154806153ee565b6040517fffffffffffffffffffffffffffffffffffffffffffffffffffffffffffffffe0603f7fffffffffffffffffffffffffffffffffffffffffffffffffffffffffffffffe0601f8501160116810181811067ffffffffffffffff821117156154ec576154ec6153ee565b60405281815282820160200187101561550457600080fd5b816020840160208301376000602083830101528093505050509250929050565b60006020828403121561553657600080fd5b612eef826153c5565b60005b8381101561555a578181015183820152602001615542565b50506000910152565b602081526000825180602084015261558281604085016020870161553f565b601f017fffffffffffffffffffffffffffffffffffffffffffffffffffffffffffffffe0169190910160400192915050565b600060808284031280156155c757600080fd5b509092915050565b60008083357fffffffffffffffffffffffffffffffffffffffffffffffffffffffffffffffe184360301811261560457600080fd5b83018035915067ffffffffffffffff82111561561f57600080fd5b602001915036819003821315613e6c57600080fd5b7f4e487b7100000000000000000000000000000000000000000000000000000000600052603260045260246000fd5b600082357fffffffffffffffffffffffffffffffffffffffffffffffffffffffffffffff6183360301811261569757600080fd5b9190910192915050565b6000602082840312156156b357600080fd5b81357fffffffff0000000000000000000000000000000000000000000000000000000081168114612eef57600080fd5b7f4e487b7100000000000000000000000000000000000000000000000000000000600052601160045260246000fd5b808201808211156128c3576128c36156e3565b600082357fffffffffffffffffffffffffffffffffffffffffffffffffffffffffffffff2183360301811261569757600080fd5b7f4e487b7100000000000000000000000000000000000000000000000000000000600052601260045260246000fd5b60008261579757615797615759565b500690565b6000602082840312156157ae57600080fd5b813563ffffffff81168114612eef57600080fd5b80820281158282048414176128c3576128c36156e3565b63ffffffff81811683821601908111156128c3576128c36156e3565b818103818111156128c3576128c36156e3565b8281526000825161582081602085016020870161553f565b919091016020019392505050565b60008261583d5761583d615759565b500490565b6000825161569781846020870161553f565b60006020828403121561586657600080fd5b5051919050565b7fffffffff0000000000000000000000000000000000000000000000000000000085168152600084516158a781600485016020890161553f565b8451908301906158be81600484016020890161553f565b7fffffffff00000000000000000000000000000000000000000000000000000000949094169301600481019390935250506008019392505050565b60007fffffffffffffffffffffffffffffffffffffffffffffffffffffffffffffffff820361592a5761592a6156e3565b5060010190565b7fff000000000000000000000000000000000000000000000000000000000000008360f81b1681526000825161596e81600185016020870161553f565b919091016001019392505050565b60ff82811682821603908111156128c3576128c36156e3565b6001815b60018411156159d0578085048111156159b4576159b46156e3565b60018416156159c257908102905b60019390931c928002615999565b935093915050565b6000826159e7575060016128c3565b816159f4575060006128c3565b8160018114615a0a5760028114615a1457615a30565b60019150506128c3565b60ff841115615a2557615a256156e3565b50506001821b6128c3565b5060208310610133831016604e8410600b8410161715615a53575081810a6128c3565b615a7e7fffffffffffffffffffffffffffffffffffffffffffffffffffffffffffffffff8484615995565b807fffffffffffffffffffffffffffffffffffffffffffffffffffffffffffffffff04821115615ab057615ab06156e3565b029392505050565b6000612eef83836159d8565b60ff81811683821601908111156128c3576128c36156e356fea164736f6c634300081c000a",
  "linkReferences": {},
  "deployedLinkReferences": {}
}