{
  "_format": "hh-sol-artifact-1",
  "contractName": "ValidateSPVDelegate",
  "sourceName": "contracts/lib/bitcoin-spv/contracts/ValidateSPVDelegate.sol",
  "abi": [
    {
      "inputs": [
        {
          "internalType": "uint32",
          "name": "_version",
          "type": "uint32"
        },
        {
          "internalType": "bytes",
          "name": "_vin",
          "type": "bytes"
        },
        {
          "internalType": "bytes",
          "name": "_vout",
          "type": "bytes"
        },
        {
          "internalType": "uint32",
          "name": "_locktime",
          "type": "uint32"
        }
      ],
      "name": "calculateTxId",
      "outputs": [
        {
          "internalType": "bytes32",
          "name": "",
          "type": "bytes32"
        }
      ],
      "stateMutability": "pure",
      "type": "function"
    },
    {
      "inputs": [],
      "name": "getErrBadLength",
      "outputs": [
        {
          "internalType": "uint256",
          "name": "",
          "type": "uint256"
        }
      ],
      "stateMutability": "pure",
      "type": "function"
    },
    {
      "inputs": [],
      "name": "getErrInvalidChain",
      "outputs": [
        {
          "internalType": "uint256",
          "name": "",
          "type": "uint256"
        }
      ],
      "stateMutability": "pure",
      "type": "function"
    },
    {
      "inputs": [],
      "name": "getErrLowWork",
      "outputs": [
        {
          "internalType": "uint256",
          "name": "",
          "type": "uint256"
        }
      ],
      "stateMutability": "pure",
      "type": "function"
    },
    {
      "inputs": [
        {
          "internalType": "bytes32",
          "name": "_txid",
          "type": "bytes32"
        },
        {
          "internalType": "bytes32",
          "name": "_merkleRoot",
          "type": "bytes32"
        },
        {
          "internalType": "bytes",
          "name": "_proof",
          "type": "bytes"
        },
        {
          "internalType": "uint256",
          "name": "_index",
          "type": "uint256"
        }
      ],
      "name": "prove",
      "outputs": [
        {
          "internalType": "bool",
          "name": "",
          "type": "bool"
        }
      ],
      "stateMutability": "pure",
      "type": "function"
    },
    {
      "inputs": [
        {
          "internalType": "bytes",
          "name": "_header",
          "type": "bytes"
        },
        {
          "internalType": "bytes32",
          "name": "_prevHeaderDigest",
          "type": "bytes32"
        }
      ],
      "name": "validateHeaderPrevHash",
      "outputs": [
        {
          "internalType": "bool",
          "name": "",
          "type": "bool"
        }
      ],
      "stateMutability": "pure",
      "type": "function"
    },
    {
      "inputs": [
        {
          "internalType": "bytes32",
          "name": "_digest",
          "type": "bytes32"
        },
        {
          "internalType": "uint256",
          "name": "_target",
          "type": "uint256"
        }
      ],
      "name": "validateHeaderWork",
      "outputs": [
        {
          "internalType": "bool",
          "name": "",
          "type": "bool"
        }
      ],
      "stateMutability": "pure",
      "type": "function"
    }
  ],
  "bytecode": "0x60808060405234601957610cee908161001f823930815050f35b600080fdfe6080604052600436101561001257600080fd5b60003560e01c80630aad669914610087578063224302391461008257806331c03d0f1461007d578063713248ca14610078578063b14b305014610073578063e041325a1461006e5763e68c184f1461006957600080fd5b610469565b610411565b6103bd565b610383565b610319565b6102c5565b60807ffffffffffffffffffffffffffffffffffffffffffffffffffffffffffffffffc3601126101a4576100b96101a9565b60243567ffffffffffffffff81116101a4576100d990369060040161027e565b906044359067ffffffffffffffff82116101a45761018b60047fffffffff00000000000000000000000000000000000000000000000000000000926101a0958461015761012c610190983690870161027e565b6101516101376101bc565b94604051998a9760e01b16602088015260248701906104bd565b906104bd565b9160e01b168152037fffffffffffffffffffffffffffffffffffffffffffffffffffffffffffffffe48101845201826101fe565b61070c565b6040519081529081906020820190565b0390f35b600080fd5b6004359063ffffffff821682036101a457565b6064359063ffffffff821682036101a457565b7f4e487b7100000000000000000000000000000000000000000000000000000000600052604160045260246000fd5b90601f7fffffffffffffffffffffffffffffffffffffffffffffffffffffffffffffffe0910116810190811067ffffffffffffffff82111761023f57604052565b6101cf565b67ffffffffffffffff811161023f57601f017fffffffffffffffffffffffffffffffffffffffffffffffffffffffffffffffe01660200190565b81601f820112156101a45780359061029582610244565b926102a360405194856101fe565b828452602083830101116101a457816000926020809301838601378301015290565b60007ffffffffffffffffffffffffffffffffffffffffffffffffffffffffffffffffc3601126101a45760206040517ffffffffffffffffffffffffffffffffffffffffffffffffffffffffffffffffe8152f35b60807ffffffffffffffffffffffffffffffffffffffffffffffffffffffffffffffffc3601126101a45760243560443560043567ffffffffffffffff82116101a45760209261036f61037993369060040161027e565b90606435926104e8565b6040519015158152f35b60407ffffffffffffffffffffffffffffffffffffffffffffffffffffffffffffffffc3601126101a4576020610379602435600435610550565b60007ffffffffffffffffffffffffffffffffffffffffffffffffffffffffffffffffc3601126101a45760206040517fffffffffffffffffffffffffffffffffffffffffffffffffffffffffffffffff8152f35b60407ffffffffffffffffffffffffffffffffffffffffffffffffffffffffffffffffc3601126101a45760043567ffffffffffffffff81116101a457610379610460602092369060040161027e565b60243590610660565b60007ffffffffffffffffffffffffffffffffffffffffffffffffffffffffffffffffc3601126101a45760206040517ffffffffffffffffffffffffffffffffffffffffffffffffffffffffffffffffd8152f35b9081519160005b8381106104d5575050016000815290565b80602080928401015181850152016104c4565b9291909283811480610548575b8061053f575b61053657602061052e91610533956105206040519586938585015260408401906104bd565b9081520380845201826101fe565b61081e565b90565b50505050600190565b508151156104fb565b5082156104f5565b918215610658576040519260208401526020835261056f6040846101fe565b8251907fffffffffffffffffffffffffffffffffffffffffffffffffffffffffffffffe06105b561059f84610244565b936105ad60405195866101fe565b808552610244565b0136602084013760005b8451811015610648577fff000000000000000000000000000000000000000000000000000000000000006105f3828761098f565b5116908551818103908111610643577fffffffffffffffffffffffffffffffffffffffffffffffffffffffffffffffff81019081116106435761063c60019360001a918661098f565b53016105bf565b61076c565b509250610654906109ea565b1090565b915050600090565b610675602061066e816109cf565b1015610b07565b61068d8151610686602060046109dd565b1115610b6c565b6040519060208201906024604084019101905b8083106106ed57505060208252601f017fffffffffffffffffffffffffffffffffffffffffffffffffffffffffffffffe0166040526106de90610a99565b036106e857600190565b600090565b90916020809184518152019201906106a0565b6040513d6000823e3d90fd5b6000610720602092604051918280926104bd565b039060025afa1561076757602060006107568151604051908482015283815261074a6040826101fe565b604051918280926104bd565b039060025afa156107675760005190565b610700565b7f4e487b7100000000000000000000000000000000000000000000000000000000600052601160045260246000fd5b907fffffffffffffffffffffffffffffffffffffffffffffffffffffffffffffffe0820191821161064357565b907fffffffffffffffffffffffffffffffffffffffffffffffffffffffffffffffff820191821161064357565b908160051b918083046020149015171561064357565b8181029291811591840414171561064357565b909161082b8251601f1690565b6106585781519260208414610986576040841461097d5761085b610855610860929593959361079b565b84610bd1565b610a99565b9161086d61085b82610c4a565b936001945b610885610880845160051c90565b6107c8565b8610156109745761090a6001918261089d8760011690565b03610913576108d2610903916108fe6108be6108b88c6107f5565b89610bd1565b916040519384916020830160209181520190565b037fffffffffffffffffffffffffffffffffffffffffffffffffffffffffffffffe081018452836101fe565b610cc3565b9460011c90565b95019492610872565b61093061095c610903926040519283916020830160209181520190565b037fffffffffffffffffffffffffffffffffffffffffffffffffffffffffffffffe081018352826101fe565b61096e6109688a6107f5565b87610bd1565b90610cc3565b92509350501490565b50915050600090565b50915050600190565b9081518110156109a0570160200190565b7f4e487b7100000000000000000000000000000000000000000000000000000000600052603260045260246000fd5b90601f820180921161064357565b9190820180921161064357565b60009190825b8151841015610a9457610a03848361098f565b5160f81c8251600186018611610643577fffffffffffffffffffffffffffffffffffffffffffffffffffffffffffffffff86820301908111610643577f1fffffffffffffffffffffffffffffffffffffffffffffffffffffffffffffff811681036106435760031b9160ff831161064357610a86610a8c92600180951b9061080b565b906109dd565b9301926109f0565b925050565b6020815110610aa9576020015190565b60646040517f08c379a000000000000000000000000000000000000000000000000000000000815260206004820152601560248201527f746f427974657333325f6f75744f66426f756e647300000000000000000000006044820152fd5b15610b0e57565b60646040517f08c379a000000000000000000000000000000000000000000000000000000000815260206004820152600e60248201527f736c6963655f6f766572666c6f770000000000000000000000000000000000006044820152fd5b15610b7357565b60646040517f08c379a000000000000000000000000000000000000000000000000000000000815260206004820152601160248201527f736c6963655f6f75744f66426f756e64730000000000000000000000000000006044820152fd5b90610bdc6001610b07565b610bec82516106866020846109dd565b6040519160208084019260408501920101905b808310610c3757505060208252601f017fffffffffffffffffffffffffffffffffffffffffffffffffffffffffffffffe01660405290565b9091602080918451815201920190610bff565b610c546001610b07565b610c658151610686602060006109dd565b6040519060208201906020604084019101905b808310610cb057505060208252601f017fffffffffffffffffffffffffffffffffffffffffffffffffffffffffffffffe01660405290565b9091602080918451815201920190610c78565b61018b610151916109306105339460405194859360208501906104bd56fea164736f6c634300081c000a",
  "linkReferences": {},
  "deployedLinkReferences": {}
}