{
  "_format": "hh-sol-artifact-1",
  "contractName": "CheckBitcoinSigsDelegate",
  "sourceName": "contracts/lib/bitcoin-spv/contracts/CheckBitcoinSigsDelegate.sol",
  "abi": [
    {
      "inputs": [
        {
          "internalType": "bytes",
          "name": "_pubkey",
          "type": "bytes"
        }
      ],
      "name": "accountFromPubkey",
      "outputs": [
        {
          "internalType": "address",
          "name": "",
          "type": "address"
        }
      ],
      "stateMutability": "pure",
      "type": "function"
    },
    {
      "inputs": [
        {
          "internalType": "bytes",
          "name": "_p2wpkhOutputScript",
          "type": "bytes"
        },
        {
          "internalType": "bytes",
          "name": "_pubkey",
          "type": "bytes"
        },
        {
          "internalType": "bytes32",
          "name": "_digest",
          "type": "bytes32"
        },
        {
          "internalType": "uint8",
          "name": "_v",
          "type": "uint8"
        },
        {
          "internalType": "bytes32",
          "name": "_r",
          "type": "bytes32"
        },
        {
          "internalType": "bytes32",
          "name": "_s",
          "type": "bytes32"
        }
      ],
      "name": "checkBitcoinSig",
      "outputs": [
        {
          "internalType": "bool",
          "name": "",
          "type": "bool"
        }
      ],
      "stateMutability": "pure",
      "type": "function"
    },
    {
      "inputs": [
        {
          "internalType": "bytes",
          "name": "_pubkey",
          "type": "bytes"
        },
        {
          "internalType": "bytes32",
          "name": "_digest",
          "type": "bytes32"
        },
        {
          "internalType": "uint8",
          "name": "_v",
          "type": "uint8"
        },
        {
          "internalType": "bytes32",
          "name": "_r",
          "type": "bytes32"
        },
        {
          "internalType": "bytes32",
          "name": "_s",
          "type": "bytes32"
        }
      ],
      "name": "checkSig",
      "outputs": [
        {
          "internalType": "bool",
          "name": "",
          "type": "bool"
        }
      ],
      "stateMutability": "pure",
      "type": "function"
    },
    {
      "inputs": [
        {
          "internalType": "bytes",
          "name": "_candidate",
          "type": "bytes"
        },
        {
          "internalType": "bytes32",
          "name": "_digest",
          "type": "bytes32"
        }
      ],
      "name": "isKeccak256Preimage",
      "outputs": [
        {
          "internalType": "bool",
          "name": "",
          "type": "bool"
        }
      ],
      "stateMutability": "pure",
      "type": "function"
    },
    {
      "inputs": [
        {
          "internalType": "bytes",
          "name": "_candidate",
          "type": "bytes"
        },
        {
          "internalType": "bytes32",
          "name": "_digest",
          "type": "bytes32"
        }
      ],
      "name": "isSha256Preimage",
      "outputs": [
        {
          "internalType": "bool",
          "name": "",
          "type": "bool"
        }
      ],
      "stateMutability": "pure",
      "type": "function"
    },
    {
      "inputs": [
        {
          "internalType": "bytes",
          "name": "_outpoint",
          "type": "bytes"
        },
        {
          "internalType": "bytes20",
          "name": "_inputPKH",
          "type": "bytes20"
        },
        {
          "internalType": "bytes8",
          "name": "_inputValue",
          "type": "bytes8"
        },
        {
          "internalType": "bytes8",
          "name": "_outputValue",
          "type": "bytes8"
        },
        {
          "internalType": "bytes20",
          "name": "_outputPKH",
          "type": "bytes20"
        }
      ],
      "name": "oneInputOneOutputSighash",
      "outputs": [
        {
          "internalType": "bytes32",
          "name": "",
          "type": "bytes32"
        }
      ],
      "stateMutability": "pure",
      "type": "function"
    },
    {
      "inputs": [
        {
          "internalType": "bytes",
          "name": "_pubkey",
          "type": "bytes"
        }
      ],
      "name": "p2wpkhFromPubkey",
      "outputs": [
        {
          "internalType": "bytes",
          "name": "",
          "type": "bytes"
        }
      ],
      "stateMutability": "pure",
      "type": "function"
    }
  ],
  "bytecode": "0x60808060405234601957610f71908161001f823930815050f35b600080fdfe6080604052600436101561001257600080fd5b60003560e01c80633cab9126146100875780633f43b4a0146100825780633f69fc971461007d5780637452ab2414610078578063831567a0146100735780638ad522f91461006e5763cac9c9741461006957600080fd5b610690565b61065f565b61044d565b6102f7565b610296565b61020c565b6100ac60206000610097366101bc565b93908360405192828480945193849201610273565b8101039060025afa156100c85760209060005114604051908152f35b610717565b7f4e487b7100000000000000000000000000000000000000000000000000000000600052604160045260246000fd5b90601f7fffffffffffffffffffffffffffffffffffffffffffffffffffffffffffffffe0910116810190811067ffffffffffffffff82111761013d57604052565b6100cd565b81601f820112156101b75780359067ffffffffffffffff821161013d576040519261019560207fffffffffffffffffffffffffffffffffffffffffffffffffffffffffffffffe0601f86011601856100fc565b828452602083830101116101b757816000926020809301838601378301015290565b600080fd5b60407ffffffffffffffffffffffffffffffffffffffffffffffffffffffffffffffffc8201126101b7576004359067ffffffffffffffff82116101b75761020591600401610142565b9060243590565b6020610217366101bc565b9082815191012014604051908152f35b60207ffffffffffffffffffffffffffffffffffffffffffffffffffffffffffffffffc8201126101b7576004359067ffffffffffffffff82116101b75761027091600401610142565b90565b60005b8381106102865750506000910152565b8181015183820152602001610276565b601f60406102ab6102a636610227565b610891565b7fffffffffffffffffffffffffffffffffffffffffffffffffffffffffffffffe08251938492602084526102ee8151809281602088015260208888019101610273565b01168101030190f35b60c07ffffffffffffffffffffffffffffffffffffffffffffffffffffffffffffffffc3601126101b75760043567ffffffffffffffff81116101b757610341903690600401610142565b60243567ffffffffffffffff81116101b757610361903690600401610142565b606435916044359160ff841684036101b757602093610387936084359260a43594610a50565b6040519015158152f35b602435907fffffffffffffffffffffffffffffffffffffffff000000000000000000000000821682036101b757565b608435907fffffffffffffffffffffffffffffffffffffffff000000000000000000000000821682036101b757565b604435907fffffffffffffffff000000000000000000000000000000000000000000000000821682036101b757565b606435907fffffffffffffffff000000000000000000000000000000000000000000000000821682036101b757565b60a07ffffffffffffffffffffffffffffffffffffffffffffffffffffffffffffffffc3601126101b75760043567ffffffffffffffff81116101b75761064b61049d61065b923690600401610142565b610600602061061f6104ad610391565b6106057fffffffffffffffff00000000000000000000000000000000000000000000000061060060286104de6103ef565b946104e761041e565b906105d16104f36103c0565b917fffffffffffffffffffffffffffffffffffffffff00000000000000000000000060405191818d8401957f16001400000000000000000000000000000000000000000000000000000000008752166023840152601783526105566037846100fc565b7f1976a914000000000000000000000000000000000000000000000000000000006040519d8e01521660248c01527f88ac00000000000000000000000000000000000000000000000000000000000060388c0152601a8b526105b9603a8c6100fc565b60405196879416602085015251809285850190610273565b810103017fffffffffffffffffffffffffffffffffffffffffffffffffffffffffffffffe081018352826100fc565b610ef8565b9061060f86610ef8565b9360405196879560208701610e16565b037fffffffffffffffffffffffffffffffffffffffffffffffffffffffffffffffe081018352826100fc565b6040519081529081906020820190565b0390f35b602061067261066d36610227565b610a93565b73ffffffffffffffffffffffffffffffffffffffff60405191168152f35b60a07ffffffffffffffffffffffffffffffffffffffffffffffffffffffffffffffffc3601126101b75760043567ffffffffffffffff81116101b7576106da903690600401610142565b602435906044359060ff821682036101b757602092610387926064359160843593610b41565b9061071360209282815194859201610273565b0190565b6040513d6000823e3d90fd5b7f4e487b7100000000000000000000000000000000000000000000000000000000600052601160045260246000fd5b907fffffffffffffffffffffffffffffffffffffffffffffffffffffffffffffffff820191821161077f57565b610723565b908151811015610795570160200190565b7f4e487b7100000000000000000000000000000000000000000000000000000000600052603260045260246000fd5b7fff000000000000000000000000000000000000000000000000000000000000006001939260f81b1681526108028251809360208685019101610273565b010190565b1561080e57565b60846040517f08c379a0000000000000000000000000000000000000000000000000000000008152602060048201526024808201527f5769746e65737320504b4820726571756972657320636f6d707265737365642060448201527f6b657973000000000000000000000000000000000000000000000000000000006064820152fd5b61027061093461061f928051604081146000146109775750600160ff6108fb6108f56108ef6108c96108c38751610752565b87610784565b517fff000000000000000000000000000000000000000000000000000000000000001690565b60f81c90565b60011690565b16036109695761092261090f600392610cf8565b9161061f604051938492602084016107c4565b61092f6021825114610807565b610d71565b6040517e1400000000000000000000000000000000000000000000000000000000000060208201529283916022830190610700565b61092261090f600292610cf8565b604181036109bf5760ff6109986108f56108ef6108c96108c3600196610752565b16036109b1576109ac61090f600392610c78565b610922565b6109ac61090f600292610c78565b50610922565b156109cc57565b60846040517f08c379a000000000000000000000000000000000000000000000000000000000815260206004820152602760248201527f526571756972657320756e636f6d7072657373656420756e707265666978656460448201527f207075626b6579000000000000000000000000000000000000000000000000006064820152fd5b949392919094610a6360408751146109c5565b610a6c86610891565b60208151910120906020815191012003610a895761027094610b41565b5050505050600090565b6040815103610abd5780602073ffffffffffffffffffffffffffffffffffffffff92519101201690565b60846040517f08c379a000000000000000000000000000000000000000000000000000000000815260206004820152602d60248201527f5075626b6579206d7573742062652036342d62797465207261772c20756e636f60448201527f6d70726573736564206b65792e000000000000000000000000000000000000006064820152fd5b906000929460209460ff610b5e60809561066d60408251146109c5565b9760405194855216868401526040830152606082015282805260015afa156100c85773ffffffffffffffffffffffffffffffffffffffff80600051921691161490565b9190820180921161077f57565b15610bb557565b60646040517f08c379a000000000000000000000000000000000000000000000000000000000815260206004820152600e60248201527f736c6963655f6f766572666c6f770000000000000000000000000000000000006044820152fd5b15610c1a57565b60646040517f08c379a000000000000000000000000000000000000000000000000000000000815260206004820152601160248201527f736c6963655f6f75744f66426f756e64730000000000000000000000000000006044820152fd5b610c826001610bae565b610c9a8151610c9360206001610ba1565b1115610c13565b6040519060208201906021604084019101905b808310610ce557505060208252601f017fffffffffffffffffffffffffffffffffffffffffffffffffffffffffffffffe01660405290565b9091602080918451815201920190610cad565b610d026001610bae565b610d138151610c9360206000610ba1565b6040519060208201906020604084019101905b808310610d5e57505060208252601f017fffffffffffffffffffffffffffffffffffffffffffffffffffffffffffffffe01660405290565b9091602080918451815201920190610d26565b6000610d8c6020928360405192828480945193849201610273565b8101039060025afa156100c85760206000610dc481516040519084820152838152610db86040826100fc565b60405191828092610700565b039060035afa156100c85761061f610270610de160005160601b90565b604051928391602083017fffffffffffffffffffffffffffffffffffffffff0000000000000000000000006014921681520190565b927fffffffffffffffff00000000000000000000000000000000000000000000000092603496946044937f0100000000000000000000000000000000000000000000000000000000000000825260048201527f8cb9012517c817fead650287d61bdd9c68803b6bf9c64133dcab3e65b5a50cb96024820152610ea18251809360208785019101610273565b01610eb58251809360208685019101610273565b01019216825260006008830152600c8201526000602c8201527f010000000000000000000000000000000000000000000000000000000000000060308201520190565b6000610f136020928360405192828480945193849201610273565b8101039060025afa156100c85760206000610f518151604051848101918252848152610f406040826100fc565b604051928392839251928391610273565b8101039060025afa156100c8576000519056fea164736f6c634300081c000a",
  "linkReferences": {},
  "deployedLinkReferences": {}
}